:020000040800F2
:10000000B807002089010008031B0008D119000867
:10001000011B00088F020008D11D0008000000002D
:10002000000000000000000000000000071B0008A6
:10003000B103000800000000051B0008091B0008B0
:10004000A3010008A3010008A3010008A301000800
:10005000A3010008A3010008A3010008A3010008F0
:10006000A3010008A3010008A3010008A3010008E0
:10007000A3010008A301000899030008A5030008D4
:10008000A3010008A3010008A3010008A3010008C0
:10009000C51D0008A3010008A3010008A301000872
:1000A000A3010008A3010008A3010008A3010008A0
:1000B000A3010008A3010008A3010008A301000890
:1000C000A3010008A3010008A3010008A301000880
:1000D000A3010008B91D0008A3010008A30100083E
:1000E000A3010008A3010008A301000800F002F822
:1000F00000F03AF80AA090E8000C82448344AAF188
:100100000107DA4501D100F02FF8AFF2090EBAE885
:100110000F0013F0010F18BFFB1A43F0010318473B
:100120004C1D00006C1D0000103A24BF78C878C137
:10013000FAD8520724BF30C830C144BF04680C60ED
:10014000704700000023002400250026103A28BF35
:1001500078C1FBD8520728BF30C148BF0B60704739
:100160001FB51FBD10B510BD00F058F81146FFF7C0
:10017000F7FF01F03FFE00F076F803B4FFF7F2FF5F
:1001800003BC00F07DF8000009488047094800479B
:10019000FEE7FEE7FEE7FEE7FEE7FEE7FEE7FEE737
:1001A000FEE7FEE704480549054A064B7047000094
:1001B0006B1B0008ED000008B8010020B807002004
:1001C000B8030020B80300204FF0000200B513462A
:1001D00094469646203922BFA0E80C50A0E80C5067
:1001E000B1F12001BFF4F7AF090728BFA0E80C5018
:1001F00048BF0CC05DF804EB890028BF40F8042B11
:1002000008BF704748BF20F8022B11F0804F18BF7D
:1002100000F8012B7047704770477047754600F033
:100220002BF8AE4605006946534620F00700854688
:1002300018B020B5FFF7B6FFBDE820404FF000062C
:100240004FF000074FF000084FF0000B21F00701BE
:10025000AC46ACE8C009ACE8C009ACE8C009ACE801
:10026000C0098D46704710B50446AFF300802046A4
:10027000BDE81040FFF781BF0048704754010020DF
:1002800001491820ABBEFEE7260002007047FEE7DA
:1002900010B58AB000200121CDE90601059000903B
:1002A00001900290039004900E20CDE90810694659
:1002B000114800F0F1F84FF47A7428B923460A2265
:1002C0000EA1114801F033FB0B4800F0B5FB28B933
:1002D000642307220DA10C4801F029FB02210648E6
:1002E00000F069F8002805D123460C2209A1064830
:1002F00001F01DFB0AB010BD5C00002046494C54C3
:1003000045525F4F4B0A00008400002043414E5F7E
:100310004F4B0A0043414C4C4241434B5F4F4B0A09
:1003200000000000174810B540F2231101600121C0
:1003300041600021C160082202618160124A01759A
:100340000846517802F110030C181C54401C072871
:10035000FADB491C51700A20D8710B4B09491B1D4F
:1003600003F10C02094800F038F8002808D1BDE874
:1003700010404FF47A73072205A1064801F0D7BA5E
:1003800010BD000028000020000000205C000020BC
:100390004F4B0A0084000020014800F0EFBB000032
:1003A00010010020014800F0E9BB0000CC00002053
:1003B000704772B6FEE790F82020012A07D0022A83
:1003C00005D0416A41F480214162012070470068F4
:1003D00042690A43426100207047F0B590F820500E
:1003E0000468A468012D05D0022D03D0416A41F4B0
:1003F00080214DE014F0406F01D1E50045D5C4F3F4
:1004000001640125A5401D608D684FF4C0739DB146
:10041000CE6835434E6845EAC605066803EB041707
:10042000F5514FF4C275076805EB04150E697E514E
:10043000097D012905D009E00E88CD6845EA4655B9
:10044000EBE701684E5946F480764E511179D2F8A7
:1004500005504FF4C67641EA0521056806EB0416FF
:10046000A9511178D2F801204FF4C47541EA022154
:10047000026805EB04155151006803EB0411425862
:1004800042F0010242500020F0BD416A41F40011E7
:1004900041620120F0BD000010B590F820300268E4
:1004A000012B07D0022B05D0416A41F48021416223
:1004B000012010BDD2F8000240F00100C2F8000295
:1004C000087D00F01F0301209840D2F81C328343BE
:1004D000C2F81C32CB69B3B9D2F80C328343C2F8EC
:1004E0000C328C894B6864F31F434C6902EBC404E3
:1004F000C4F840320C890B6864F31F434C6902EB6B
:10050000C404C4F84432CB69012B16D1D2F80C32A2
:100510000343C2F80C320C884B6864F31F434C69E8
:1005200002EBC404C4F840320C89CB6864F31F4367
:100530004C6902EBC404C4F844328B69002BD2F836
:1005400004320FD053EA0003C2F804320B69002BC7
:10055000D2F8143208D00343C2F81432096A0129D0
:1005600004D008E08343EFE78343F5E7D2F81C1299
:100570000143C2F81C12D2F8000220F00100C2F8B8
:100580000002002010BD704770B590F82040012C8B
:1005900005D0022C03D0416A41F4802128E0046890
:1005A00009B32469A40720D04FF4D874056804EB7C
:1005B00001142D5915F00405956005682D591AD0C0
:1005C000ED08556005682C5904F00204D4604FF41E
:1005D000DA74056804EB01142E5906F00F06082E94
:1005E0000CD308250DE0E468DCE7416A41F4001112
:1005F0004162012070BD6D0D1560E3E72D5905F0D6
:100600000F05156105682D59C5F307259561056826
:100610002C59240C54614FF4DC72046802EB011273
:10062000A4581C700468A458240A5C700468A45878
:10063000240C9C700468A258120EDA704FF4DE721B
:10064000046802EB0112A4581C710468A458240A1F
:100650005C710468A458240C9C710468A258120EA2
:10066000DA71006829B1016941F0200101610020BF
:1006700070BDC16841F02001C160F8E72DE9F05F6D
:100680000546006800244669D0F804908768D0F8D1
:100690000CB0D0F810A0D0F81880F10748D0F907B6
:1006A00014D001218160B80703D5284600F0F1F984
:1006B0000CE0780702D54FF4006407E0380702D554
:1006C0004FF4805402E0284600F0E2F9F80516D510
:1006D00029684FF480708860B80503D5284600F07B
:1006E000DAF90CE0780502D544F4005407E0380547
:1006F00002D544F4804402E0284600F0CBF9F80328
:1007000016D529684FF480308860B80303D5284691
:1007100000F0C3F90CE0780302D544F4004407E08C
:10072000380302D544F4803402E0284600F0B4F9DE
:10073000300707D55FEACB6004D52968102044F460
:100740000074C86070074FF0080707D55FEA0B70A8
:1007500004D52868C760284600F05AF9B00706D5C6
:100760002868C068800702D0284600F053F9700658
:1007700007D55FEACA6004D52968102044F4806474
:100780000861B00607D55FEA0A7004D528680761DA
:10079000284600F04DF9F00606D528680069800764
:1007A00002D0284600F045F9B00308D55FEAC960D9
:1007B00005D5296810204860284600F03BF9F00371
:1007C00007D55FEA097004D528684760284600F01D
:1007D00065F9300446D55FEA497040D5F00504D587
:1007E0005FEAC87001D044F00104B00504D55FEAA7
:1007F000887001D544F00204700504D55FEA4870A2
:1008000001D544F00404300529D518F0700F26D026
:1008100008F07000402815D006DC102809D02028E8
:100820000AD0302816D10AE050280ED0602811D105
:100830000EE044F008040DE044F010040AE044F037
:10084000200407E044F0400404E044F0800401E0A8
:1008500044F480742868816921F0700181612968FD
:1008600004204860002C05D0686A2043686228464E
:10087000FFF789FEBDE8F09F70B5040003D094F83F
:10088000200010B104E0012070BD204600F082F885
:100890002068016841F00101016000F04FFB05464E
:1008A000052604E000F04AFB401B0A2811D8206806
:1008B0004068C007F6D02068016821F0020101609D
:1008C00000F03CFB05460BE000F038FB401B0A281B
:1008D00006D9606A40F40030606284F82060D2E794
:1008E000206840688007EFD4207E012820680168D6
:1008F0003DD021F080010160607E01282068016800
:1009000038D021F040010160A07E012820680168F4
:1009100033D021F020010160E07E012820680168C9
:100920002ED041F010010160207F0128206801686D
:1009300029D021F008010160607F0128206801684A
:1009400024D021F004010160D4E902010843D4E974
:100950000412114308436168491E08432168C861B5
:1009600000206062012084F82000002070BD41F06A
:100970008001C0E741F04001C5E741F02001CAE72E
:1009800021F01001CFE741F00801D4E741F0040164
:10099000D9E7000010B586B00021009101910291C5
:1009A00003910068174988422AD11748C16941F06C
:1009B0000071C161C16901F000710491816941F068
:1009C000040181618069114C00F0040004904FF42F
:1009D000006000906946204600F0BAF9A01400902B
:1009E00002200190032003906946204600F0B0F9F0
:1009F00000221146142000F00DFB142000F0FCFA38
:100A000006B010BD00640040001002400008014024
:100A100070470000044A012102F108031170034AE3
:100A20000021FFF7B1BD00000000002040000020C1
:100A3000704770477047000070B5044690F820007A
:100A4000012804D0606A40F40020606218E00220AF
:100A500084F820002068016821F00101016000F0A5
:100A60006DFA05460EE000BF00F068FA401B0A2848
:100A700008D9606A40F400306062052084F82000E4
:100A8000012070BD20684068C007EDD1606270BD74
:100A9000704770477047704770477047704710B590
:100AA00090F821100022022905D00421816380F8EA
:100AB0002020012010BD01680B6823F00E030B609D
:100AC00001680B6823F001030B6090F84030C46BA1
:100AD000012101FA03F3636080F8211080F82020DF
:100AE000104610BD10B590F821100024022903D043
:100AF0000421816301243DE001680A6822F00E02AE
:100B00000A6001680A6822F001020A601A4A016854
:100B1000914201D1012121E0174A1432914201D1C1
:100B200010211BE0144A2832914201D1891515E0A9
:100B3000114A3C32914201D189140FE00E4A5032E1
:100B4000914202D14FF4803108E00B4A6432914265
:100B500002D14FF4801101E04FF08071064A083A4B
:100B60005160012180F82110002180F82010416B94
:100B700001B18847204610BD080002402DE9F05F12
:100B8000C16B0C6801680B68D0F840C0042202FAFF
:100B90000CF2494DDFF824A1494E4A4FDFF828B145
:100BA000DFF828E122422CD05A072AD50A6892069B
:100BB00003D40A6822F004020A600168A94201D144
:100BC000042219E0514501D1402215E0B14202D181
:100BD0004FF4806210E0B94202D14FF480420BE042
:100BE000594502D14FF4802206E0714502D14FF4FD
:100BF000800201E04FF080622F4908394A60C16AE3
:100C00003BE04FF0020808FA0CF818EA040F4FF026
:100C100000094FF0010235D05FEA837832D50B68C6
:100C20009B0605D40B6823F00A030B6080F8212093
:100C30000168A94201D1022219E0514501D12022C7
:100C400015E0B14202D14FF4007210E0B94202D176
:100C50004FF400520BE0594502D14FF4003206E048
:100C6000714502D14FF4001201E04FF000721249B9
:100C700008394A6080F82090816A00291AD0BDE8BE
:100C8000F05F0847082505FA0CF5254212D01B072E
:100C900010D50B6823F00E030B6090F84010C36B67
:100CA00002FA01F15960826380F8212080F82090D7
:100CB000016BE2E7BDE8F09F080002401C00024023
:100CC0003000024044000240580002406C000240E4
:100CD00030B528B308C8134914221944B1FBF2F106
:100CE0008900C16310498163022141771A6843F684
:100CF000F0718A43D0E900142143D0E902452C4326
:100D000021430469214344692143846921431143F8
:100D1000196000214163012242770177084630BD06
:100D2000012030BDF8FFFDBF0000024070B5044651
:100D300000F004F90546601C02D004480078044421
:100D400000F0FCF8401BA042FAD370BD1800002050
:100D50002DE9F84FDFF8B8910024A9F1040B2346E0
:100D60000F2709F1040AABF1040EC9E00125A540E3
:100D70002A40AA427DD1674ED1F804C0ACEB0608E8
:100D8000B44532D014DCBCF1030F3AD009DCBCF11D
:100D9000000F2AD0BCF1010F1CD0BCF1020F31D1E1
:100DA0001DE0BCF1110F17D0BCF1120F2AD119E0D0
:100DB000B8F5881F19D006DCB8F5803F15D0B8F516
:100DC000801F1FD111E0B8F5001F0ED0B8F5041F29
:100DD00018D10AE0CB6815E0CB681B1D12E0CB6888
:100DE00008330FE0CB680C330CE08B682BB1012B80
:100DF0004FF0080303D0456104E0042302E00561DD
:100E000000E00023FF2A01D8064601E000F10406B5
:100E10004FEA840501D9A5F12005D6F8008007FA2C
:100E200005FC28EA0C0803FA05F548EA0508C6F8A7
:100E300000804D68ED0062D5374DAE6946F0010681
:100E4000AE61AD6924F0030605F001050095334D50
:100E500006EB050CDCF80850A607360F07FA06F873
:100E600025EA0805DFF8B880404503D14FF00008B7
:100E700017E044E0DFF8AC80404502D14FF00108B4
:100E80000FE0DFF8A480404502D14FF0020808E0EF
:100E9000DFF89880404502D14FF0030801E04FF0A1
:100EA000040808FA06F848EA0508CCF808804D68F6
:100EB000D9F80060ED024D4601D5164300E0964397
:100EC0002E604D68DAF80060AD02554601D5164334
:100ED00000E096432E604D68DBF80060AD035D4690
:100EE00001D5164300E096432E604D68DEF80060A1
:100EF000ED03754601D5164300E096432E60641C51
:100F00000D682A46E5407FF431AFBDE8F88F000058
:100F100008040140000011100010024000000140D0
:100F200000080140000C0140001001400014014085
:100F30000AB1016170470904FBE7000001488068BD
:100F400070470000180000200248816802781144B0
:100F50008160704718000020074810B5016841F013
:100F600010010160032000F075F80F2000F006F872
:100F700000F024F8002010BD0020024070B50D4D97
:100F800004464FF47A712878B1FBF0F00A490968F9
:100F9000B1FBF0F000F0DCFA48B9102C07D20022C7
:100FA0002146501E00F036F800206C6070BD012014
:100FB00070BD000018000020240000200C4808B577
:100FC000816941F001018161816901F001010091B4
:100FD000C16941F08051C161C06900F0805000904A
:100FE0000448416821F0E06141F00071416008BDB2
:100FF0000010024000000140002809DB00F01F0241
:10100000012191404009800000F1E020C0F800116A
:1010100070470000F0B40E4B1B680C46C3F302236C
:10102000C3F10705042D00D90425191D072901D294
:10103000002300E0DB1E012606FA05F1491E2140CF
:1010400099409E40761E16403143F0BC00F0C1BE70
:101050000CED00E0064900F0070208684FF6FF03B8
:10106000184040EA0220034A10430860704700001D
:101070000CED00E00000FA052DE9F0470F460500F1
:1010800061D0434E306800F00700B84209D23068A2
:1010900020F0070038433060306800F00700B842A5
:1010A00051D128683B4C810712D5400703D56068B1
:1010B00040F4E06060602878000703D5606840F481
:1010C000605060606068A96820F0F00008436060CC
:1010D0002878C00728D06868012810D02168022825
:1010E00010D0890700292EDA616821F0030101433D
:1010F0006160FFF723FF804641F288390DE02168E7
:101100008903EFE78901EDE7FFF718FFA0EB08017E
:10111000494502D90320BDE8F0876068696800F09E
:101120000C00B0EB810FEFD1306800F00700B8423F
:101130000BD9306820F0070038433060306800F089
:101140000700B84201D00120E5E72878400705D51F
:101150006068E96820F4E060084360602878000770
:1011600006D56068296920F4605040EAC1006060DB
:1011700000F038F86168084AC1F30311515CC840B7
:101180000649086006480068FFF7F8FE0020C2E73D
:101190000020024000100240521E000824000020DF
:1011A0001C0000200448054900684968044AC1F34E
:1011B0000221515CC840704724000020001002400A
:1011C000621E00080448054900684968044AC1F3E2
:1011D000C221515CC840704724000020001002402A
:1011E000621E00080E4A51680E4801F00C03042BE1
:1011F00011D0082B0FD10C48C1F38343C903C05C45
:101200000AD55168084AC1F34041921E515C054A13
:101210005043B0FBF1F07047044948437047000069
:101220000010024000127A00421E000800093D0032
:101230002DE9F84F040070D02078C04DC00749D088
:101240006868C0F38100012807D06868C0F3810096
:10125000022809D16868C00306D52868800339D5FB
:1012600060680028E7D035E06068B0F5803F0BD0BB
:1012700010B1B0F5A02F11D0286820F4803028607C
:10128000286820F4802002E0286840F4803028603C
:10129000606890B1FFF752FE06460AE0286840F405
:1012A00080202860F0E700BFFFF748FE801B64281D
:1012B00073D828688003F7D50CE0FFF73FFE064699
:1012C00005E000BFFFF73AFE801B6428F0D82868CD
:1012D0008003F7D420789A4E80074FF001094FF031
:1012E000000839D5686810F00C0F07D06868C0F3A3
:1012F0008100022809D16868C00306D428688007E5
:1013000014D52069012808D110E02069B0B1C6F8D1
:101310000090FFF713FE074605E00AE1FFF70EFE17
:10132000C01B0228C4D828688007F7D528686169DF
:1013300020F0F80040EAC10028600DE0C6F8008007
:10134000FFF7FCFD074604E0FFF7F8FDC01B02288D
:1013500023D828688007F7D4207800072CD579484F
:10136000A169D9B1C0F80090FFF7E8FD074604E095
:10137000FFF7E4FDC01B02280FD8686A8007F7D585
:1013800071484FF4FA510068B0FBF1F0009000BFD3
:101390000098411E0091FAD20EE080E0C0F8008073
:1013A000FFF7CCFD074604E0FFF7C8FDC01B02288D
:1013B00075D8686A8007F7D42078400760D5E86957
:1013C0000027C00008D4E86940F08050E861E8696F
:1013D000012700F0805000905C480168C90513D4D3
:1013E0000168834641F480710160FFF7A7FD8246E2
:1013F00006E000BFFFF7A2FDA0EB0A0064284ED86C
:10140000DBF80000C005F5D5E06801280AD008B176
:10141000052813D0286A20F001002862286A20F0ED
:10142000040002E0286A40F001002862E06841F20E
:10143000883B98B1FFF782FD82460BE0286A40F0B6
:1014400004002862EEE700BFFFF778FDA0EB0A0179
:1014500059455AD8286A8007F6D50CE0FFF76EFD8B
:10146000824605E0FFF76AFDA0EB0A0159454CD81A
:10147000286A8007F6D41FB1E86920F08050E8613F
:10148000E06988B36968C1F38101022944D0022868
:10149000C6F8608004D0FFF751FD044638E034E020
:1014A000FFF74CFD074604E0FFF748FDC01B02288C
:1014B0002BD828688001F7D4206AB0F5803F05D189
:1014C0006868A16820F4003008436860D4E9080126
:1014D0000843696821F4741108436860C6F8609095
:1014E000FFF72CFD044606E025E000BFFFF726FDD0
:1014F000001B022809D828688001F7D51BE000BF2F
:10150000FFF71CFD001B022802D90320BDE8F88F5D
:1015100028688001F4D40EE00128F7D06868226AB8
:1015200000F48031914204D1616A00F47010884265
:1015300001D00120EAE70020E8E7000000100240A7
:10154000000042428004424224000020007000401B
:1015500010B5401EB0F1807F01D3012010BD4FF0C7
:10156000E02460610F21601700F033FC0020A061CF
:1015700007202061002010BD70477047F8B5016852
:1015800004460868CA684B6910F00F0F4FF0000559
:1015900059D003F0010602F49077374365D0C107B4
:1015A00005D0D10503D5616C41F0010161644107AB
:1015B00005D5D90703D0616C41F002016164810750
:1015C00005D5D90703D0616C41F0040161640107BE
:1015D00007D502F02001314303D0616C41F00801CE
:1015E0006164616C00293AD0800604D5900602D56A
:1015F000204600F0EAFA20684069616CC0F3801070
:10160000090700D460B3204600F0B8FA20684069AA
:10161000400621D52068143050E8001F21F0400119
:1016200040E80012002AF5D1E06BA8B16D49416392
:10163000E06BFFF757FA002811D0E06B416B01B067
:10164000BDE8F040084783060FD593060DD5204628
:10165000BDE8F84000F0B9BA2046FFF78EFFF8BDAC
:101660002046FFF78AFF6564F8BD266B2023012E14
:101670007CD1C6067AD5D60678D508684868009029
:1016800048694FF00206400640D5E16B08684068A3
:101690000004000CE8D0A28D8242E5D9E08588697B
:1016A00020282DD020680C3050E8001F21F48071D4
:1016B00040E80012002AF5D12068143050E8001FDD
:1016C00021F0010140E80012002AF5D12068143011
:1016D00050E8001F21F0400140E80012002AF5D137
:1016E00084F84230256320680C3050E8001F21F058
:1016F000100140E80012002AF5D1E06BFFF7CFF9A6
:101700006663A08DE18D401A81B22AE0A08DE18D43
:10171000401A81B2E08D0028A6D00029A4D022680A
:101720000C3252E8000F20F4907042E80007002FBE
:10173000F5D12068143050E8002F22F0010240E873
:101740000027002FF5D184F84230256320680C3043
:1017500050E8002F22F0100240E80023002BF5D1C2
:1017600066632046FFF708FFF8BDFFE705062BD5A7
:10177000150629D594F841002128F5D1A068B0F5C7
:10178000805F01D12069B0B1206A411C21622168CB
:1017900000784860E08C401E0004000CE084E3D137
:1017A0002068C16821F08001C1602068C16841F0F3
:1017B0004001C160D8E7206A0088C0F30800486093
:1017C000206A801C2062E5E74006CDD55006CBD5C7
:1017D000CA68204622F04002CA6084F8413000F016
:1017E000F6F8C1E76D1B000870B5040004D094F84A
:1017F0004100002510B106E0012070BD84F8405082
:10180000204600F023F8242084F841002068C168B5
:1018100021F40051C160204600F038FA20680169C7
:1018200021F4904101612068416921F02A01416160
:101830002068C16841F40051C1606564202084F8CB
:10184000410084F842006563002070BDF0B585B0AA
:1018500000240646009401940294039400682E49E3
:10186000884256D12D48816941F480418161816966
:1018700001F480410491816941F004018161806932
:10188000274D00F0040004904FF4007000900220F7
:1018900001900320039069462846FFF759FA28155E
:1018A000CDE90004694628460294FFF751FA1E4D1F
:1018B0001C488027C5E90004C5E9024720202C61A7
:1018C000C5E905400002E8612846FFF701FA08B1C2
:1018D000FEF76FFDF5636E62134D12484435143800
:1018E00001C5102091C5104845F8104944306C617D
:1018F000AC61EC61FFF7ECF908B1FEF75AFDB56396
:101900000022114625206E62FFF784FB2520FFF799
:1019100073FB05B0F0BD000000380140001002402C
:101920000008014058000240CC00002070472DE91B
:10193000F843044690F84100984616460D46202884
:1019400002D00220BDE8F88385B17EB1002060643A
:10195000212084F84100FFF7F1FAA6848146E6844D
:10196000A0682027B0F5805F02D003E00120E9E7FE
:10197000206910B12E4600250EE000260CE08021E3
:10198000204600F0DFF9A8B9C6B116F8010B2168AE
:101990004860E08C401EE084E08C4B464FF0000233
:1019A000CDF800800028EAD14FF04001204600F039
:1019B000C9F940B184F841700320C3E735F8020B40
:1019C000C0F30800E3E784F841700020BAE77047ED
:1019D000FEE70000104810B50E4901600621416085
:1019E0004FF08041816000214FF40022C0E90312D2
:1019F0004FF440124261017641768176C1760177DB
:101A00004177FEF739FF002803D0BDE81040FEF70C
:101A1000D0BC10BD006400405C0000200D4808B53B
:101A2000416941F0010141614069002200F001007B
:101A3000009011460E20FFF7EDFA0E20FFF7DCFABA
:101A4000002211460F20FFF7E5FABDE808400F20FD
:101A5000FFF7D2BA0010024070B586B000241848D3
:101A60000094019402940394816941F01001816112
:101A7000816901F010010491816941F020018161C7
:101A8000816901F020010491816941F004018161C3
:101A900080690C4E00F004004FF4005504900022C1
:101AA00029463046FFF744FA01200095CDE90104AC
:101AB0000220039069463046FFF74AF906B070BD30
:101AC00000100240001001400C4810B50A490160A6
:101AD0004FF4E1314160002181600C22C160C0E916
:101AE00004128161C161FFF77FFE002803D0BDE8C9
:101AF0001040FEF75EBC10BD00380140840000209D
:101B0000FEE7FEE770477047FFF71EBA30B58FB0AB
:101B100028216846FEF758FB14210AA8FEF754FB5B
:101B200001210804CDE9001000240294022504914B
:101B3000CDE907504FF4E01009906846FFF778FBB5
:101B400008B172B6FEE70F20CDE90A054FF48060B8
:101B5000CDE90C4002210AA80E94FFF78DFA002867
:101B600001D072B6FEE70FB030BD704710B5406AC5
:101B70000021C185C184FFF700FD10BD01680C3153
:101B800051E8002F22F4907241E80023002BF5D198
:101B90000168143151E8002F22F0010241E80023CE
:101BA000002BF5D1016B012909D101680C3151E8F5
:101BB000002F22F0100241E80023002BF5D1202154
:101BC00080F8421000210163704708B590F8421078
:101BD000222901D0022008BD82684FF480539A4226
:101BE00001D1016921B1816A9A421BD04AB10AE050
:101BF0000268816A5268C2F308020A80816A891CFD
:101C000008E0026972B10268526802F07F020A704D
:101C1000816A491C8162C18D491E0904090CC18574
:101C200003D01BE002685268F1E70168CA6822F03D
:101C30002002CA600168CA6822F48072CA60016822
:101C40004A6922F001024A61202180F842100021F5
:101C50004163026B012A03D0FFF768FE002008BD34
:101C6000016301680C3151E8002F22F0100241E8B5
:101C70000023002BF5D101680A68D20602D50A6854
:101C800049680091818DFFF777FCE7E770B504465E
:101C900000680169E26821F4405111430161216942
:101CA000A0680843616908432168CA6841F20C636F
:101CB0009A430243CA6020684169A26921F44071D5
:101CC000114341611E492068884202D1FFF77AFA28
:101CD00001E0FFF767FA00EBC00101EB001260685A
:101CE00064218000B2FBF0F3B3FBF1F36FF0180650
:101CF0007343B2FBF0F5B2FBF0F605EB830532233C
:101D000003EB0515B5FBF1F5B6FBF1F605F0F005B3
:101D100005EB0615B2FBF0F6B2FBF0F0B0FBF1F00C
:101D20006FF01802504306EB800003EB0010B0FB8D
:101D3000F1F0216800F00F002844886070BD0000B9
:101D4000003801402DE9F843984617460D460446F1
:101D5000089E24E0701C22D0FFF7F0F8A0EB0800EA
:101D6000B0421AD8CEB12068C168490717D5802D76
:101D700015D0402D13D00168C94309070FD401685D
:101D80000025406800902046FFF7F8FE08206064B8
:101D900084F840500120BDE8F8830320FBE7206869
:101DA000006835EA000004D00020B842D2D00020FC
:101DB000F1E70120F9E700000148FFF7DFBB000071
:101DC000840000200148FEF759BC00005C000020A0
:101DD000FEE70907090E002804DB00F1E02080F887
:101DE0000014704700F00F0000F1E02080F8141D8F
:101DF00070470000FFF7B0F8FFF788FEFFF72CFEF2
:101E0000FFF70CFEFFF7E6FDFFF75EFEFEF740FA78
:101E10004FF47A74084E6510FEF784FA307830B1CA
:101E200005492346082208310448FFF780FD28466B
:101E3000FEF77CFFF0E70000000000208400002097
:101E4000010202030405060708090A0B0C0D0E0F18
:101E5000101000000000000000000102030406074B
:101E60000809000000000102030400008C1E0008A5
:101E7000000000202800000028010008B41E00080F
:101E80002800002090070000440100080000000026
:101E900000000000460000000000000000000000FC
:101EA0000000000001000000100000000000000021
:041EB00000127A00A2
:04000005080000ED02
:00000001FF
