:020000040800F2
:10000000F021002039020008BB2C0008D12500088F
:10001000B92C00081F1400088330000800000000FD
:10002000000000000000000000000000A101000826
:100030002114000800000000E5010008092E000856
:10004000530200085302000853020008530200083C
:10005000530200085302000853020008530200082C
:10006000530200085302000853020008530200081C
:10007000530200085302000853020008530200080C
:1000800053020008530200085302000853020008FC
:1000900053020008530200085302000853020008EC
:1000A00053020008852E000853020008530200087E
:1000B00053020008530200085302000853020008CC
:1000C00053020008530200085302000853020008BC
:1000D00053020008530200085302000853020008AC
:1000E00053020008530200085302000800F002F80F
:1000F00000F047F80AA090E8000C82448344AAF17B
:100100000107DA4501D100F03CF8AFF2090EBAE878
:100110000F0013F0010F18BFFB1A43F0010318473B
:100120008C510000AC510000103A24BF78C878C14F
:10013000FAD8520724BF30C830C144BF04680C60ED
:10014000704700000023002400250026103A28BF35
:1001500078C1FBD8520728BF30C148BF0B60704739
:10016000662904F0B587002070471FB500F01AFC1F
:1001700004000020002104F08DFBE0601FBD10B5DD
:1001800010BD00F00FFD1146FFF7EFFF02F0A6FFD4
:1001900000F02DFD03B4FFF7F2FF03BC00F070FD8B
:1001A000224B19680868B0E8F00F80F30988BFF3A4
:1001B0006F8F4FF0000080F311884EF00D0E7047E6
:1001C0000000000006480068006880F3088862B6F6
:1001D00061B6BFF34F8FBFF36F8F00DF00BF00BF6B
:1001E00008ED00E0EFF30980BFF36F8F0F4B1A6843
:1001F00020E9F00F106008B54FF0500080F311882F
:10020000BFF34F8FBFF36F8F03F03CFE4FF0000042
:1002100080F31188BDE8084019680868B0E8F00F5D
:1002200080F30988BFF36F8F704700BF380000204C
:10023000EFF30580704700000948804709480047F0
:10024000FEE7FEE7FEE7FEE7FEE7FEE7FEE7FEE786
:10025000FEE7FEE704480549054A064B70470000E3
:10026000812E0008ED000008F01B0020F021002086
:10027000F01D0020F01D00200FB41CB5084B06AA8D
:100280007B4469460090059800F01FFB044600205F
:10029000694600F02DFB20461CBC5DF814FB0000F5
:1002A0006D0600002DE9F0474FF0000A894604462C
:1002B000C0F820A02046E1688847002876D025288D
:1002C00006D0D4E901219047206A401C2062F1E762
:1002D000E168204600258847C4F81CA00646002790
:1002E000C4F818A02A2E09D0304602F0EFFE38B329
:1002F00004EB8708303EC8F8186019E059F8041B71
:10030000204604EB87029161E1688847012F064689
:1003100018D1E069002820DA25F020051DE0D8F882
:10032000180000EB800006EB40003038C8F81800D9
:100330002046E1688847064602F0C8FE0028EED154
:10034000012F0AD02E2E08D12046E16888477F1C55
:100350000646022F45F02005C4DBA069002803DA19
:10036000404245F00105A061E80701D025F01005E5
:10037000B6B1A6F14100192802D8203645F400652F
:100380004A463146204625604D46FFF7E9FE58B102
:10039000012806D0ED1D25F0070000F1080989E7C6
:1003A00004E005F1040985E730468AE7206ABDE8E4
:1003B000F087032A40F2308010F0030C00F0158023
:1003C00011F8013BBCF1020F624498BF11F801CB58
:1003D00000F8013B38BF11F8013BA2F1040298BFBD
:1003E00000F801CB38BF00F8013B11F0030300F027
:1003F0008482083AC0F0088051F8043B083A51F86A
:1004000004CBA0E80810F5E7121D5CBF51F8043BCF
:1004100040F8043BAFF30080D20724BF11F8013B42
:1004200011F801CB48BF11F8012B24BF00F8013BA4
:1004300000F801CB48BF00F8012B704702F0FF0322
:1004400043EA032242EA024200F08BBA4FF0000274
:1004500000B5134694469646203922BFA0E80C50BA
:10046000A0E80C50B1F12001BFF4F7AF090728BF95
:10047000A0E80C5048BF0CC05DF804EB890028BF11
:1004800040F8042B08BF704748BF20F8022B11F03A
:10049000804F18BF00F8012B7047704770477047B6
:1004A00070472DE9FF4F0C461E464FF0FF378BB0CB
:1004B000D2E90001DDF860800A908A46C1F30A554E
:1004C00005B93D46002108464FF00000BAF1000F83
:1004D00000F4400005DA00EB80004FF4400101EA2F
:1004E00050004FEA9059B9F1010F00DDB9460A9862
:1004F00050EA4A000ED044F61050A5F2FF354543AD
:100500002F14B8F1000F1ED07542291E1EDDC9F14F
:1005100000021CE0B8F1010F4FF0000001D03021C3
:1005200003E0F24305E02154401CB042FBDB3046BF
:100530000022002121540B99C1F80880C1E9002054
:100540000FB0BDE8F08FBD1B6D1CDEE74A4600DA38
:10055000694206A800F0B0FA06AB93E8070003ABC7
:1005600083E8070050460A9900F091FB8DE80700E8
:10057000A0F500501F3800900398002D0ADD42F2CC
:100580001F014A460844002303A90390684600F06F
:10059000FAFD09E0A0F500504A461F38002303A9E0
:1005A0000390684600F004FE8DE807000004000C8C
:1005B00003D04FF0FF30410800E01046B8F1000FC3
:1005C00003D00022009215461EE0751E05D400F0EF
:1005D000EDF9303262556D1EF9D5B346012208435C
:1005E00002D000227F1C04E02078302801D10022B4
:1005F0007F1E002A099784D01DE0112D07DA00F034
:10060000D5F9303262556D1C50EA0102F5D108432C
:1006100002D00098C8B10EE00021681E05E0235CFE
:10062000625C63542254401E491C8142F7DBAB4696
:10063000A81B401E0990002004F80B000B98099A93
:10064000C0F80880C0E9002B7AE711264FF00008B7
:1006500057E72DE9F04F88460446D21D22F00701E6
:1006600091B0D1E90001CDE90A0102F00BFD02468B
:100670000B98C00F01D02D2007E02068810701D51D
:100680002B2002E0202101EAC000032A099001D0BA
:10069000072A05DB03464146204600F0CDF90BE171
:1006A0002078800601D5E06900E00620B8F1650FEA
:1006B000814606D0B8F1660F18D0B8F1670F70D137
:1006C00031E00020B9F1110F009001DB112301E0AE
:1006D00009F101030AAA01A90CA8FFF7E2FEDDE96E
:1006E0000C70002609F10105834647E001204B46C6
:1006F00000904FF000470AAA01A90CA8FFF7D1FE0D
:10070000DDE90DB00C995D46002610B909F1010034
:100710000D18B9EB050003D4C0F1FF3609F101054E
:10072000A5EB09002BE0B9F1010F01DA4FF0010947
:100730000020B9F1110F0090484601DD112300E0BF
:1007400003460AAA01A90CA8FFF7ABFEDDE90C706D
:100750004D4600268346207800070AD4AB4500DAD0
:100760005D4601A8012D04DD411911F8011C302955
:1007700007D04F4502DA17F1040F04DA0120824650
:100780000FE06D1EEEE7002F02DCED1B3E4403E0A0
:10079000781CA84200DD7D1CB81B00F1010A4FF057
:1007A00000472078000703D4AA4501DB4FF0FF3A49
:1007B0000021B7F1004F0DF143088DF8431024D00C
:1007C00002202B23002F01DA7F422D230A21021E53
:1007D000A0F1010000DC5FB197FBF1FC97FBF1F2A7
:1007E00001FB1C7C17460CF1300C08F801CDEEE73C
:1007F000A8F1010003702188090501D5452100E019
:100800006521A0F1010800F8011C09980FA9A1EBCE
:100810000807FF1D00B10120411901EBEA70A16931
:100820003844081A401EA0612078C00602D4204631
:10083000AFF30080099828B1D4E901219047206ADC
:10084000401C20622078C00622D52046AFF30080ED
:100850001EE0002E04DBB34502DD01A8805D00E050
:100860003020D4E901219047206A401C2062761C88
:10087000AAF101005FEA000A0AD100F093F8C0680B
:100880000168405CD4E901219047206A401C206245
:10089000281EA5F10105DCDC07E0D4E9012118F8E8
:1008A000010B9047206A401C2062381EA7F1010707
:1008B000F3DC2046AFF30080032011B041E60000D6
:1008C00001694A1C02610878704700B58FB0CDE914
:1008D00001310021059105497944CDE90310114604
:1008E0006846FFF7DFFC0FB000BD0000E5FFFFFF2B
:1008F0000A6802F8010B0A60704710B5203AC0F090
:100900000B80B1E81850203AA0E81850B1E8185010
:10091000A0E81850BFF4F5AF5FEA027C24BFB1E84D
:100920001850A0E8185044BF18C918C0BDE81040BE
:100930005FEA827C24BF51F8043B40F8043B08BFC7
:100940007047D20728BF31F8023B48BF11F8012B8E
:1009500028BF20F8023B48BF00F8012B70474FF03A
:1009600000020429C0F0128010F0030C3FF470ADB7
:10097000CCF1040CBCF1020F18BF00F8012BA8BF8A
:1009800020F8022BA1EB0C01FFF762BD5FEAC17CEE
:1009900024BF00F8012B00F8012B48BF00F8012B01
:1009A0007047000000487047B01B002030B5B0F120
:1009B0000A024FEA900E71F100034EEA817EB0EB1D
:1009C0000E0061EB91014FEA101E4EEA017E10EB22
:1009D0000E0041EB11114FEA102E4EEA016E10EBA2
:1009E0000E0041EB11214FEA104E4EEA014E10EB82
:1009F0000E0041EB1141401841F100014FEAD000D7
:100A000040EA41704FEAD10110EB80054FEA8104C2
:100A100044EA907444EB01046D1944EB0404521B46
:100A2000A3414FF0000348BF0A3200D530BD401C3F
:100A300041F1000130BD00002DE9F0411F460446A0
:100A400003260168072A01F4006004DB08B116A53B
:100A500005E016A503E008B115A500E015A521F0F5
:100A600010002060A069C01EA0610FB1401EA061EF
:100A70002046AFF300804FB1D4E9012138469047BA
:100A8000206A401C2062C01C206206E0206AFAE74F
:100A9000D4E9012115F8010B9047761EF8D22046C3
:100AA000AFF30080BDE8F0814E414E006E616E00F4
:100AB000494E4600696E66002DE9F04781461646AC
:100AC0008AB0354878440DC88DE80D003248784426
:100AD000801C03AC0DC884E80D0041F69B3008442F
:100AE000372190FBF1F290FBF1F5A5F1800501FBB8
:100AF00012041B3C02D56442012000E00020DFF814
:100B000098A080460027FA44AAF1BE0A0EE0E0074A
:100B10000AD03246684607EB470101230AEB810100
:100B200000F046FB8DE8070064107F1C002CEED11E
:100B3000194F7F44AE3F19E0E80715D007EB0410CA
:100B40000DF1180A90E80E008AE80E00C068F04225
:100B500001D1981908903246012306A903A800F094
:100B600027FB03AB83E807006D10641C002DE3D165
:100B70004FF0010332466946B8F1000F03A802D0D6
:100B800000F001FB01E000F013FBC9E90001C9F826
:100B900008200AB0BDE8F087C84700000048704749
:100BA000901B00207546FFF7F9FFAE460500694629
:100BB000534620F00700854618B020B5FFF74AFBE2
:100BC000BDE820404FF000064FF000074FF000084E
:100BD0004FF0000B21F00701AC46ACE8C009ACE8CF
:100BE000C009ACE8C009ACE8C0098D46704710B533
:100BF0000446AFF300802046BDE81040FFF7CABAB4
:100C00004FF0013C50F8042B51F8043B9A4221D19B
:100C1000A2EB0C03934313EACC1317D150F8042B27
:100C200051F8043B9A4215D1A2EB0C03934313EA0B
:100C3000CC130BD150F8042B51F8043B9A4209D144
:100C4000A2EB0C03934313EACC13DBD04FF000006C
:100C5000704700BFD01A01BAB1FA81F101F0180152
:100C600022FA01F0CB40C1F12001DBB2C0B2C01AC0
:100C70002CFA01F3D11A914311EAC311E6D170475E
:100C800001491820ABBEFEE72600020070475FEA6C
:100C9000400C08BF91F0000F4FEA8C234FEAC122AD
:100CA00043EA51514FEA1C5018BF00F5F0404FEA9B
:100CB000300018BF41F000415FEA6C5C00F0298011
:100CC000BCF1FF3F08BF40F080407047130C06BFE7
:100CD00012044FF0100C4FF0000C130E04BF120260
:100CE0000CF1080C130F04BF12010CF1040C930F4C
:100CF00004BF92000CF1020CD30F04BF52000CF1A0
:100D0000010C11464FF00002A0F11F00A0EB0C00F7
:100D1000704711F0004F08BF704731F000413FF4B9
:100D2000D5AF0B0C06BF09044FF0100C4FF0000CB0
:100D30000B0E04BF09020CF1080C0B0F04BF0901D4
:100D40000CF1040C8B0F04BF89000CF1020CCB0FCB
:100D500004BF49000CF1010CCCF12003A0EB0C0006
:100D600022FA03F302FA0CF241EA030100F1010056
:100D7000704720F07F4C80EA030023F07F47ACEB04
:100D8000070303F57C5300F0004003F1FF032DE956
:100D900080494FEA154B09B44FEA144325EA0B4E3C
:100DA00024EA03480FF2042606EB132749083E788D
:100DB0005FEA320203FB0667C7F5000707FB06F68A
:100DC0004FEA54374FEAD64606F1020607FB066C97
:100DD000CCF1005C4FEA1C472CEA074C07FB06F4F9
:100DE0000CFB06F504EB15464FEA961634BF0020BF
:100DF0004FF000404FEAD13706FB07FC4FEA1C4C8E
:100E00000CFB0BF7D21B03FB0CF761EB07010CFB90
:100E10000EF7B0EB074072EB17420CFB08F734BF3C
:100E2000A2EB0742B2EB074261EB17414FEA0C44D9
:100E30004FEA910706FB07FC4FEA1C4C0CFB0BF733
:100E4000B0EBC74072EB573203FB0CF734BFA2EB99
:100E5000C742B2EBC74261EB57310CFB0EF7B0EB68
:100E6000C70072EB57720CFB08F734BFA2EBC70246
:100E7000B2EBC70261EB5771039F4FEA816141EA10
:100E8000921104EBCC044FEAD1374FEA826206FBA1
:100E900007FC42EA90124FEA80604FEA1C4C0CFBC0
:100EA0000BF7D21B03FB0CF761EB07010CFB0EF7F2
:100EB000B0EB074072EB17420CFB08F734BFA2EB14
:100EC0000742B2EB074261EB17414FEA8C554FEAFC
:100ED000910704EB9C2406FB07FC4FEA1C4C0CFB1F
:100EE0000BF7B0EBC74072EB573203FB0CF734BF84
:100EF000A2EBC742B2EBC74261EB57310CFB0EF7D6
:100F0000B0EBC70072EB57720CFB08F734BFA2EBD3
:100F1000C702B2EBC70261EB577115EB4C254FEAE4
:100F2000816141EA92114FEA82624FEAD13742EA87
:100F3000901206FB07FC44F100044FEA80604FEA80
:100F40001C4C0CFB0BF7D21B03FB0CF761EB0701EE
:100F50000CFB0EF7B0EB074072EB17420CFB08F7E7
:100F600034BFA2EB0742B2EB074261EB174115EB2E
:100F70001C154FEA813141EA92414FEA823242EA3E
:100F800090424FEA80304FEA0C7644F1000448EA80
:100F900003434EEA0B484FF0000EB2EB080C71EB26
:100FA000030724BF624639464EEB0E0E4FF0000B8E
:100FB0000018524149414BEB0B0BB2EB080C71EBA3
:100FC00003077BF1000B24BF624639464EEB0E0E41
:100FD0004FF0000B0018524149414BEB0B0BB2EBA9
:100FE000080C71EB03077BF1000B24BF6246394606
:100FF0004EEB0E0E51EA020718BF46F0010616EB43
:101000000E7655F1000254F1000103D5BDE88901C7
:10101000BDE80088BDE88901BDE80048B619524125
:1010200041EB0101A3F10103704780807F7E7D7C4D
:101030007B7A7978777676757473727171706F6E6A
:101040006E6D6C6C6B6A6A69686867666665646415
:10105000636362616160605F5F5E5E5D5D5C5C5B9F
:101060005B5A5A595958585757565655555554540E
:10107000535352525251515050504F4F4F4E4E4D6C
:101080004D4D4C4C4C4B4B4B4A4A4A4949494848B8
:1010900048474747474646464545454444444443F8
:1010A00043434342424242414141002B9C4630D49B
:1010B00077002BD01CB54FEA370703B44FF0100070
:1010C0004FF01001BAF1000F06D0BCF1000FDCBFE9
:1010D00040F0080040F008014FF000000FBCBDE8F0
:1010E00010400BF1010BBBF1010F08BF5FEA1707BE
:1010F00022BF12F1010211F101014FF0004143F151
:10110000000300F0004043EA00007047F9D357089D
:10111000D0E746EA064613F1400F4FEA16461FDDB8
:1011200013F1200FDFBF16430A46002120335B4234
:10113000BED0C3F1200746EA064602FA07F74FEA97
:10114000164646EA0706C3F1200722FA03F201FA1F
:1011500007F721FA03F14FF0000342EA0702A7E77D
:1011600046EA020646EA06464FEA164646EA0106FF
:10117000BCBF46EA0646360C4FF000034FF00002B3
:101180004FF0000194E72DE9804C9A46934670B4E5
:1011900091E8380007C831EA400C48BF34EA430CF4
:1011A00003D5FFF7E6FDFFF780FFF0BCBDE8008C3C
:1011B0002DE9804C9A46934670B491E8380007C8F0
:1011C00010F0804F08BF13F0804F03D100F005F8F6
:1011D000FFF76BFFF0BCBDE8008C20F07F4780EA92
:1011E000030023F07F4C07EB0C03A3F57C5300F0C6
:1011F0000040A3F1FE0392F0000F00F0B38095F0E1
:10120000000F00F077802DE901494FEA11404FEAC5
:10121000144621EA004800FB06FC24EA064708FBC6
:1012200006F607FB08F800FB07F718EB06484CEB3F
:10123000164C4FEA124B18EB07484FEA15464CEB99
:10124000174022EA0B4E0BFB06FC25EA06470EFB75
:1012500006F607FB0EFE0BFB07F71EEB064E4CEBEC
:10126000164C4FF000061EEB074E4CEB174B18EBDD
:101270000B0840F1000018EB0E0B58EB000840F192
:1012800000008F1A4FF000013CBFC943661B14BF1A
:10129000B5EB040C00213CBFC943F61B4FEA1744D1
:1012A0004EEA8E0E27EA04454FEA1C4704FB07620C
:1012B0002CEA074C05FB07F70CFB05F604FB0CFCBE
:1012C00016EB074642EB174216EB0C4642EB1C426C
:1012D0001BEB060658EB0202414146EA9E0601D589
:1012E000BDE80189B619524141EB0101A3F10103A7
:1012F000BDE801894FEA14454FEA114724EA054643
:1013000021EA074C05FB07F406FB07F70CFB06F187
:1013100005FB0CFC11EB074144EB17444FEA124765
:1013200011EB0C4144EB1C4422EA074C05FB07F28D
:1013300006FB07F70CFB06F605FB0CFC16EB074655
:1013400042EB174216EB0C4642EB1C456A1854F16F
:10135000000148BF7047B619524141EB0101A3F1AA
:101360000103704795F0000F37D04FEA11424FEA62
:10137000144721EA024624EA074C02FB07F106FB68
:1013800007F70CFB06F402FB0CFC14EB074441EBE3
:1013900017414FEA154714EB0C4441EB1C4125EA79
:1013A000074C02FB07F506FB07F70CFB06F602FBF2
:1013B0000CFC16EB074645EB174516EB0C4645EBC8
:1013C0001C42121951F1000148BF7047B619524131
:1013D00041EB0101A3F1010370474FEA14454FEAC5
:1013E000114724EA054621EA074C05FB07F106FBF5
:1013F00007F70CFB06F24FF0000605FB0CFC12EBA6
:10140000074241EB174112EB0C4251EB1C4148BF24
:101410007047921841EB0101A3F101037047FEE709
:10142000704772B6FEE7000070B5044600F004F99C
:101430000546601C02D004480078044400F0FCF823
:10144000401BA042FAD370BD280000202DE9F84FC0
:10145000DFF8B8910024A9F1040B23460F2709F106
:10146000040AABF1040EC9E00125A5402A40AA42B6
:101470007DD1674ED1F804C0ACEB0608B44532D03C
:1014800014DCBCF1030F3AD009DCBCF1000F2AD008
:10149000BCF1010F1CD0BCF1020F31D11DE0BCF139
:1014A000110F17D0BCF1120F2AD119E0B8F5881F1F
:1014B00019D006DCB8F5803F15D0B8F5801F1FD1D4
:1014C00011E0B8F5001F0ED0B8F5041F18D10AE0DE
:1014D000CB6815E0CB681B1D12E0CB6808330FE02A
:1014E000CB680C330CE08B682BB1012B4FF0080359
:1014F00003D0456104E0042302E0056100E000231D
:10150000FF2A01D8064601E000F104064FEA8405EF
:1015100001D9A5F12005D6F8008007FA05FC28EAD4
:101520000C0803FA05F548EA0508C6F800804D687E
:10153000ED0062D5374DAE6946F00106AE61AD698A
:1015400024F0030605F001050095334D06EB050C6C
:10155000DCF80850A607360F07FA06F825EA080552
:10156000DFF8B880404503D14FF0000817E044E0B1
:10157000DFF8AC80404502D14FF001080FE0DFF802
:10158000A480404502D14FF0020808E0DFF89880BF
:10159000404502D14FF0030801E04FF0040808FA7B
:1015A00006F848EA0508CCF808804D68D9F80060CC
:1015B000ED024D4601D5164300E096432E604D687E
:1015C000DAF80060AD02554601D5164300E09643B7
:1015D0002E604D68DBF80060AD035D4601D5164313
:1015E00000E096432E604D68DEF80060ED0375461E
:1015F00001D5164300E096432E60641C0D682A4610
:10160000E5407FF431AFBDE8F88F000008040140E9
:1016100000001110001002400000014000080140CD
:10162000000C014000100140001401400AB10161AA
:1016300070470904FBE7000001488068704700001C
:101640002800002070B5040025D094F83D00002546
:1016500020B984F83C50204600F07EFA242084F81B
:101660003D002068016821F00101016020680168E7
:1016700041F4004101602068016821F400410160EB
:1016800000F012FC4D4A6168914201D84C4900E0DB
:101690004C49884201D2012070BD4B492368B0FB00
:1016A000F1F15E6826F03F060E435E606368934288
:1016B00006D94FF4967359434FF47A73B1FBF3F1A3
:1016C0002368491C1E6A26F03F063143196261688F
:1016D000914210D84900401EB0FBF1F2521CC2F3F7
:1016E0000B02042A01D2042022E0B0FBF1F0401CDE
:1016F000C0F30B001CE0A268F2B301EBC10303EBE3
:101700000116431EB3FBF6F35B1C43F480431B0539
:1017100049D092B301EBC10202EB0111401EB0FBB4
:10172000F1F0401CC0F30B0040F4804040F4004056
:101730002168CA694CF6FF739A431043C861D4E923
:10174000071001432068026822F0C00211430160C3
:10175000D4E9030101432068826848F2FF339A43C9
:1017600011438160D4E9050108432168CA6822F069
:10177000FF021043C86001E00EE016E02068016837
:1017800041F0010101602564202084F83D002563BB
:1017900084F83E50002070BD01EB4106431EB3FBB0
:1017A000F6F35B1CB3E70120C2E701EB4101401EE9
:1017B000B0FBF1F0401CC0F30B00B7E7A0860100BE
:1017C00080841E0000093D0040420F002DE9FF4FBC
:1017D00083B00025DDE910799A4693460446DDF88A
:1017E00048800095FFF728FF064694F83D00202822
:1017F0007CD11923012288492046009600F0FEFF83
:101800000028F5D194F83C0001286FD0012084F81D
:101810003C0020680168C90703D1016841F001015B
:1018200001602068016821F400610160222084F8D1
:101830003D00402084F83E0025646762A4F82A90A9
:10184000608D20857548E062CDE9008653465A4692
:101850002046049900F0D4FE00287CD1208DDFF8CA
:10186000C091202768B1012814D00228206801689F
:101870001ED041F480610160206841698069009058
:10188000BCE02068416981690091016841F4007100
:101890000160B3E02068016821F48061016072B6E4
:1018A0002068416981690091016841F400710AE092
:1018B00041F40061016072B620684169816900915C
:1018C000016821F48061016062B697E0032865D861
:1018D00001280CD0022843464FF00002494620461A
:1018E00000960BD000F08AFFA8BB0CE091E03246D6
:1018F0004146204601F028F868BB72E000F07EFF08
:1019000048BB72B633E02068016821F48061016051
:1019100072B620680069616A0870606A401C606283
:10192000208D401E2085608D401E60853D4846F21A
:10193000A8110068B0FBF1F0C0EBC00000EB800024
:101940000090401E009007D020684069C0434007C7
:101950000DD50098F5E727E044F8305F6773A5736D
:10196000206940F02000206162B625731CE02068E9
:10197000016841F40071016020680069616A0870C3
:10198000606A401C6062218D491E2185618D491E5F
:10199000618562B621680969017026E032464146D8
:1019A000204600F0D1FF18B1012007B0BDE8F08F4C
:1019B00020680069616A0870606A401C6062208D5E
:1019C000401E81B22185608D401E6085206842697D
:1019D000D243520712D4032903D1016821F4806154
:1019E000016020680069616A0870606A401C60627A
:1019F000208D401E2085608D401E6085208D002832
:101A00007FF464AF84F83D7084F83E5084F83C5015
:101A1000CBE70220C9E70000020010000000FFFF32
:101A200004000100340000202DE9FF4F83B09A46E6
:101A3000DDE9119793460446DDF84080FFF7FCFD91
:101A4000054694F83D0020287FD119230122404902
:101A50002046009500F0D2FE002876D194F83C0094
:101A6000012872D0012084F83C0020680168C90771
:101A700003D1016841F0010101602068016821F48F
:101A800000610160212084F83D00402084F83E0080
:101A900000262664C4F82480A4F82A90608D20854E
:101AA0002C48E062CDE9007553465A462046049919
:101AB00000F024FE70B930E02A463946204600F096
:101AC0007BFF58B1206C042804D12068016841F4E0
:101AD00000710160012007B0BDE8F08F606A2168E5
:101AE00000780861606A401C6062218D491E89B2DD
:101AF0002185628D521E628522685369DB435B0734
:101B00000BD469B100781061606A401C6062208D5E
:101B1000401E2085608D401E6085208D0028CBD121
:101B20002A463946204600F03DFE0028CAD154F826
:101B30003D0B016841F400710160202004F81E098A
:101B4000E67766770020C6E7FFE70220C3E70000DC
:101B5000020010000000FFFF10B586B000210091C8
:101B600001910291039100680F4988421AD10F4CEC
:101B7000A06940F00800A061A069694600F0080073
:101B80000490C02000901220019003200390084888
:101B9000FFF75CFCE06940F40010E061E06900F4EC
:101BA0000010049006B010BD005400400010024028
:101BB000000C01400248816802781144816070473E
:101BC00028000020074810B5016841F010010160AD
:101BD000032000F0A1F80F2000F006F800F04AF80A
:101BE000002010BD0020024030B505461C4887B0DB
:101BF000816941F400618161806906A900F4006097
:101C0000009001A800F030F900F05EF91549164A7D
:101C1000B0FBF1F11548491E0260416040F2E73225
:101C20000021C0E903218160816100F015FB0400FF
:101C300012D10E4800F03EFB04000DD1192000F037
:101C40003DF8102D07D200222946192000F044F853
:101C50000748056000E0012407B0204630BD0000C1
:101C60000010024040420F00002C0140740200208E
:101C70002C0000200F4808B5816941F00101816105
:101C8000816901F001010091C16941F08051C16198
:101C9000C069002200F0805000900F21901E00F0DB
:101CA0001BF80548416821F0E06141F00071416096
:101CB00008BD00000010024000000140002809DBC0
:101CC00000F01F02012191404009800000F1E02056
:101CD000C0F8001170470000F0B40E4B1B680C46B2
:101CE000C3F30223C3F10705042D00D90425191DF0
:101CF000072901D2002300E0DB1E012606FA05F1C8
:101D0000491E214099409E40761E16403143F0BC4A
:101D100001F0CCB90CED00E0064900F007020868BC
:101D20004FF6FF03184040EA0220034A10430860C0
:101D3000704700000CED00E00000FA052DE9F047C7
:101D40000F46050061D0434E306800F00700B842EE
:101D500009D2306820F0070038433060306800F066
:101D60000700B84251D128683B4C810712D5400783
:101D700003D5606840F4E06060602878000703D510
:101D8000606840F4605060606068A96820F0F0000E
:101D9000084360602878C00728D06868012810D000
:101DA0002168022810D0890700292EDA616821F005
:101DB000030101436160FFF73FFC804641F288392F
:101DC0000DE021688903EFE78901EDE7FFF734FCB7
:101DD000A0EB0801494502D90320BDE8F0876068FF
:101DE000696800F00C00B0EB810FEFD1306800F0B3
:101DF0000700B8420BD9306820F007003843306044
:101E0000306800F00700B84201D00120E5E72878EB
:101E1000400705D56068E96820F4E0600843606029
:101E20002878000706D56068296920F4605040EAE8
:101E3000C100606000F058F86168084AC1F30311FE
:101E4000515CC8400649086006480068FFF7CCFEB0
:101E50000020C2E70020024000100240FA510008B2
:101E6000340000202C0000200F2202600C4A53682E
:101E700003F003034360536803F0F0038360536887
:101E800003F4E063C36052684FF4E06303EAD202F4
:101E900002610448006800F0070008607047000015
:101EA00000100240002002400448054900684968CB
:101EB000044AC1F30221515CC8407047340000203D
:101EC000001002400A5200080448054900684968A9
:101ED000044AC1F3C221515CC8407047340000205D
:101EE000001002400A5200080E4A51680E4801F0E4
:101EF0000C03042B11D0082B0FD10C48C1F38343E2
:101F0000C903C05C0AD55168084AC1F34041921E1A
:101F1000515C054A5043B0FBF1F070470449484317
:101F2000704700000010024000127A00EA510008D9
:101F300000093D002DE9F84F040070D02078C04D15
:101F4000C00749D06868C0F38100012807D06868DD
:101F5000C0F38100022809D16868C00306D528684B
:101F6000800339D560680028E7D035E06068B0F5B7
:101F7000803F0BD010B1B0F5A02F11D0286820F40D
:101F800080302860286820F4802002E0286840F42F
:101F900080302860606890B1FFF74EFB06460AE08B
:101FA000286840F480202860F0E700BFFFF744FB7A
:101FB000801B642873D828688003F7D50CE0FFF7EE
:101FC0003BFB064605E000BFFFF736FB801B64289D
:101FD000F0D828688003F7D420789A4E80074FF015
:101FE00001094FF0000839D5686810F00C0F07D0D0
:101FF0006868C0F38100022809D16868C00306D46C
:102000002868800714D52069012808D110E02069CC
:10201000B0B1C6F80090FFF70FFB074605E00AE1F4
:10202000FFF70AFBC01B0228C4D828688007F7D531
:102030002868616920F0F80040EAC10028600DE0DE
:10204000C6F80080FFF7F8FA074604E0FFF7F4FA55
:10205000C01B022823D828688007F7D420780007FF
:102060002CD57948A169D9B1C0F80090FFF7E4FAFE
:10207000074604E0FFF7E0FAC01B02280FD8686AA1
:102080008007F7D571484FF4FA510068B0FBF1F0C2
:10209000009000BF0098411E0091FAD20EE080E04F
:1020A000C0F80080FFF7C8FA074604E0FFF7C4FA5B
:1020B000C01B022875D8686A8007F7D420784007CB
:1020C00060D5E8690027C00008D4E86940F0805076
:1020D000E861E869012700F0805000905C480168E1
:1020E000C90513D40168834641F480710160FFF78C
:1020F000A3FA824606E000BFFFF79EFAA0EB0A00B3
:1021000064284ED8DBF80000C005F5D5E06801284A
:102110000AD008B1052813D0286A20F001002862EF
:10212000286A20F0040002E0286A40F001002862DA
:10213000E06841F2883B98B1FFF77EFA82460BE0F7
:10214000286A40F004002862EEE700BFFFF774FA47
:10215000A0EB0A0159455AD8286A8007F6D50CE049
:10216000FFF76AFA824605E0FFF766FAA0EB0A017C
:1021700059454CD8286A8007F6D41FB1E86920F089
:102180008050E861E06988B36968C1F38101022980
:1021900044D00228C6F8608004D0FFF74DFA044608
:1021A00038E034E0FFF748FA074604E0FFF744FA66
:1021B000C01B02282BD828688001F7D4206AB0F50C
:1021C000803F05D16868A16820F40030084368604A
:1021D000D4E908010843696821F474110843686070
:1021E000C6F86090FFF728FA044606E025E000BF35
:1021F000FFF722FA001B022809D828688001F7D5CA
:102200001BE000BFFFF718FA001B022802D90320C9
:10221000BDE8F88F28688001F4D40EE00128F7D0DB
:102220006868226A00F48031914204D1616A00F446
:102230007010884201D00120EAE70020E8E70000A2
:10224000001002400000424280044242340000205C
:10225000007000407047704710B5040003D094F838
:102260003D0010B107E0012010BD002084F83C00C3
:10227000204600F01EF8022084F83D00211D206851
:1022800000F006FE012084F8460084F83E0084F841
:102290003F0084F8400084F8410084F8420084F84C
:1022A000430084F8440084F8450084F83D00002091
:1022B00010BD704790F83D10012901D001207047F2
:1022C000022180F83D100168CA6842F00102CA602C
:1022D00000680B49884208D0B0F1804F05D0094909
:1022E000884202D00849884204D1816801F0070180
:1022F000062903D0016841F0010101600020704708
:10230000002C0140000400400008004070472DE907
:10231000F04104460068C66805694FF00007A90748
:1023200013D5B10711D5F91E01610120207720686E
:1023300080698007204602D0FFF7E8FF04E000F044
:102340007EF8204600F07CF82777680716D57007DE
:1023500014D521686FF004000861022020772068FE
:10236000806910F4407F204602D0FFF7CFFF04E0E1
:1023700000F065F8204600F063F82777280715D5A8
:10238000300713D521686FF008000861042020771A
:102390002068C0698007204602D0FFF7B7FF04E03D
:1023A00000F04DF8204600F04BF82777E80616D5E8
:1023B000F00614D521686FF010000861082020771E
:1023C0002068C06910F4407F204602D0FFF79EFFCE
:1023D00004E000F034F8204600F032F82777E807F0
:1023E00008D0F00706D021686FF001000861204690
:1023F00000F028F8280608D5300606D521686FF0C9
:10240000800008612046FFF725FF680608D57006A2
:1024100006D521686FF040000861204600F01CF8E6
:10242000A8060AD5B00608D521686FF0200008611B
:102430002046BDE8F041FFF70EBFBDE8F0817047D0
:102440007047000000680349884201D1FFF7B2BB22
:1024500070470000002C0140704770B5040004D0A4
:1024600094F84100002510B106E0012070BD84F809
:102470004050204600F024F8242084F841002068D1
:10248000C16821F40051C160204600F065FD20685C
:10249000016921F4904101612068416921F02A011C
:1024A00041612068C16841F40051C1606564202029
:1024B00084F8410084F842006563002070BD00008C
:1024C00030B585B000240094019402940394006810
:1024D0001449884224D11448816941F480418161C2
:1024E000816901F480410491816941F004018161B5
:1024F00080690E4D00F0040004904FF400700090CD
:10250000022001900320039069462846FEF79EFFB3
:102510002815CDE90004694628460294FEF796FF87
:1025200005B030BD003801400010024000080140F5
:102530002DE9F843044690F84100984616460D46AA
:10254000202802D00220BDE8F88385B17EB10020AA
:102550006064212084F84100FFF76EF8A68481466C
:10256000E684A0682027B0F5805F02D003E0012058
:10257000E9E7206910B12E4600250EE000260CE0A8
:102580008021204600F044FDA8B9C6B116F8010B21
:1025900021684860E08C401EE084E08C4B464FF0A0
:1025A0000002CDF800800028EAD14FF0400120461B
:1025B00000F02EFD40B184F841700320C3E735F8E8
:1025C000020BC0F30800E3E784F841700020BAE78B
:1025D000FEE701684A69D24352050FD46FF4806266
:1025E0004A61002140F8301F202242738173026942
:1025F00042F004020261017301207047002070471D
:102600002DE9F84F0446006889460B9D01689846FD
:10261000174641F4806101602068016841F48071CF
:10262000016000954FF0011B0022594620460A9B8D
:1026300000F0E4F84FF4007A40B120680068C0056B
:1026400001D5C4F840A00320BDE8F88F216809F047
:10265000FE0008612B46284920460A9A00F016F928
:10266000F0BB20684169806900902A4620460A999B
:1026700000F0A2F940B1206C04283AD1206801682A
:1026800041F40071016034E0FEB2B8F1010F09D0ED
:102690002168380A08612A4620460A9900F08CF918
:1026A0000028E8D1206806612A4620460A9900F0F1
:1026B00083F90028DFD12068016841F4807101604E
:1026C00000950022594620460A9B00F097F8002802
:1026D000B3D1216809F0FF0040F00100086100E07B
:1026E00007E02B46044920460A9A00F0CFF800285C
:1026F000AAD00120A8E70000020001002DE9F8435C
:10270000044600680D46DDE90897016898461646BC
:1027100041F4807101604B4600224FF001112046C8
:10272000009700F06BF848B120680068C00502D53A
:102730004FF4007020640320BDE8F883216805F0A1
:10274000FE0008613B464A461549204600F09EF8C7
:1027500088B920684169806900903A464946204618
:1027600000F02AF948B1206C042804D120680168DF
:1027700041F4007101600120DEE7F5B2B8F1010F0C
:1027800009D02168300A08613A464946204600F0DF
:1027900013F90028E7D1206805610020CCE700008C
:1027A0000200010070B516460D4604461EE02046A4
:1027B000FFF70FFF08B1012070BD681C16D0FEF7AF
:1027C0003BFF801BA84200D885B920684069C04300
:1027D00040070BD5002044F8300F20216173A0730F
:1027E000216941F0200121612073E4E720684069FC
:1027F000C0434007DBD4002070BD00002DE9F04746
:10280000984617460D460446C1F30746DDF820906A
:102810002AE000BFB8F1FF3F26D0FEF70DFFA0EB86
:102820000901414502D8B8F1000F1DD12068012EE1
:1028300016D0806925EA00000004000C12D00020A8
:10284000B84211D1002044F8300F20216173A073E9
:10285000216941F02001216120730120BDE8F0874A
:102860004069E7E70120EBE72068012E0AD0806984
:1028700025EA00000004000C06D00020B842C9D0B0
:102880000020EBE74069F3E70120F7E72DE9F04787
:10289000984616460D4604464FF000094FF0200AB0
:1028A000C1F3074723E020684069C043400515D4C1
:1028B0002068016841F40071016021686FF4806054
:1028C0004861C4F8309084F83DA084F83E90216CB3
:1028D00041F00401216484F83C9021E0701C06D092
:1028E000FEF7AAFEA0EB0800B04203D816B1012FF4
:1028F0001FD021E02068012F15D0806925EA000053
:102900000004000C18D000BF44F8309F84F80DA0DC
:1029100084F80E90216941F02001216184F80C9027
:102920000120BDE8F087406925EA00000004000CA2
:10293000EAD12068406901E02068806925EA00004A
:102940000004000CAFD1ECE72DE9F04100259046E2
:102950000E460446202728E04069C043C0060CD438
:1029600054F8301B6FF01000486144F81059677735
:10297000A577206A2062257714E0FEF75DFEA0EBC4
:102980000800B04200D886B920684069C0434006BC
:102990000BD544F8305F6773A573206940F02000C1
:1029A000206125730120BDE8F08120684169C94399
:1029B0004906D1D40020F6E770B516460D46044608
:1029C0001EE02046FFF705FE08B1012070BD681C1F
:1029D00016D0FEF731FE801BA84200D885B92068CA
:1029E0004069C04300060BD5002044F8300F202179
:1029F0006173A073216941F0200121612073E4E734
:102A000020684069C0430006DBD4002070BD000090
:102A10002DE9FF5F374C84B03949D4E90623CDE96D
:102A20000023C4E90023D4E9082302939246C4E9B1
:102A30000223D4E90A23C4E90423D1E9040193461B
:102A400099462D4A2D4B01F03BFF2D4A06468846FC
:102A5000C2E906012B4A2C4B01F032FF02460B461D
:102A60003046414601F0DCFF254A0D460746C2E9E3
:102A70000801DDE90401DDE9002302F03FFA3A46EE
:102A80002B4602F03DF9DDE9002301F019FFC4E90E
:102A90000601DDE906015246029B02F02FFA3A4692
:102AA0002B4602F02DF95246029B01F009FFC4E9C2
:102AB0000801DDE912015A464B4602F01FFA3A4678
:102AC0002B4602F01DF95A464B4601F0F9FEC4E9C7
:102AD0000A013A462B4600200C4902F00FFA324612
:102AE000434602F00DF9064AC2E9040108B0BDE808
:102AF000F09F0000B800002084F743D694102E3ECB
:102B000000000020EF71C717C472813E0000F03F43
:102B10002DE9FF414FF47A70FEF786FC002701256E
:102B200003AE8DF80C70FF240096CDE901546B22A2
:102B30002B46D1211948FEF777FF07208DF80C00AE
:102B40000096CDE9015419220123D1211348FEF743
:102B50006BFF06208DF80C000096CDE901541A2277
:102B60000123D1210D48FEF75FFF08208DF80C00EE
:102B70000096CDE901541B220123D1210748FEF71D
:102B800053FF8DF80C700096CDE901541C220123EF
:102B9000D1210248FEF748FFBDE8FF81D80100209F
:102BA00010B5044A0021044800F0F4FA03494860D3
:102BB00010BD0000C4510008BD2C0008000000201A
:102BC00070B586B000241C480094019402940394CC
:102BD000816941F010018161816901F01001049166
:102BE000816941F020018161816901F02001049136
:102BF000816941F004018161816901F0040104915E
:102C0000816941F00801816180690C4E00F0080083
:102C10004FF400550490002229463046FEF706FD89
:102C200001200095CDE90104022003906946304659
:102C3000FEF70CFC06B070BD001002400010014011
:102C40000D4810B50B4901600C49416000214FF45B
:102C500080428160C0E9031241618161C16101620A
:102C6000FEF7F0FC002803D0BDE81040FEF7D9BB0A
:102C700010BD000000540040D8010020A0860100D3
:102C80000C4810B50A4901604FF4E1314160002160
:102C900081600C22C160C0E904128161C161FFF74B
:102CA000DCFB002803D0BDE81040FEF7BABB10BD26
:102CB000003801402C020020FEE7FEE78AB0FFF753
:102CC00027FF444DA5F5887404F1480632200E21F3
:102CD0000095CDE9011040480123D12102783F48F9
:102CE000FEF774FD288840BA00B201F0F1FF6FF0E2
:102CF0000D073A4602F020FAC4E90C01834602911E
:102D0000688840BA00B201F0E3FF3A4602F014FAD4
:102D1000C4E90E018146A8888A4640BA00B201F093
:102D2000D7FF3A4602F008FAC4E91001074628899D
:102D3000884640BA00B201F0CBFF0022284B01F0D8
:102D40006FFEC6E90C01688940BA00B201F0C0FF0D
:102D50000022234B01F064FEC6E90E01A88940BAA7
:102D600000B201F0B5FF00221D4B01F059FEC6E98B
:102D70001001CDE900784A46534658460299FFF7BC
:102D800047FED4E91001CDE90801D4E90E01CDE9EF
:102D90000601D4E90C01CDE90401D4E90A01CDE929
:102DA0000201D4E90801CDE900010A48D4E906236B
:102DB0000CA18038FDF760FA074982B2642388606D
:102DC000044910488039FFF7B3FB052000F0A6F94D
:102DD0007CE70000C801002000000020D80100208E
:102DE00000605040252E33662C252E33662C252E70
:102DF00033662C252E32662C252E32662C252E325B
:102E0000660A00002C02002010B54FF0E020006997
:102E100001F08AFB012803D0BDE8104001F0B8B8EA
:102E200010BD30B58FB028216846FDF70FFB142187
:102E30000AA8FDF70BFB01210804CDE900100024CE
:102E4000029402250491CDE907504FF4E010099057
:102E50006846FFF76FF808B172B6FEE70F20CDE9BC
:102E60000A054FF48060CDE90C4002210AA80E94B7
:102E7000FEF764FF002801D072B6FEE70FB030BD48
:102E8000704700000148FFF742BA000074020020BA
:102E9000F0B50268194B1A4C1A4D4FF08047984212
:102EA00005D0B84203D0A04201D0A84203D122F0FD
:102EB00070064A683243984205D0B84203D0A04217
:102EC00001D0A84203D122F44074CA6822434C695D
:102ED00022F08002224302608A68C2620A6882622B
:102EE000984201D109690163012141610169C90762
:102EF00003D0016921F001010161F0BD002C014006
:102F0000000400400008004001680C3151E8002F27
:102F100022F4907241E80023002BF5D101681431AE
:102F200051E8002F22F0010241E80023002BF5D1E7
:102F3000016B012909D101680C3151E8002F22F001
:102F4000100241E80023002BF5D1202180F8421027
:102F5000002101637047000070B5044600680169F4
:102F6000E26821F44051114301612169A0680843DE
:102F7000616908432168CA6841F20C639A430243BD
:102F8000CA6020684169A26921F44071114341611E
:102F90001E492068884202D1FEF796FF01E0FEF745
:102FA00083FF00EBC00101EB001260686421800028
:102FB000B2FBF0F3B3FBF1F36FF018067343B2FB0F
:102FC000F0F5B2FBF0F605EB8305322303EB0515B4
:102FD000B5FBF1F5B6FBF1F605F0F00505EB0615CE
:102FE000B2FBF0F6B2FBF0F0B0FBF1F06FF01802BC
:102FF000504306EB800003EB0010B0FBF1F02168BA
:1030000000F00F002844886070BD000000380140C7
:103010002DE9F843984617460D460446089E24E0DD
:10302000701C22D0FEF708FBA0EB0800B0421AD8B3
:10303000CEB12068C168490717D5802D15D0402D25
:1030400013D00168C94309070FD4016800254068FF
:1030500000902046FFF758FF0820606484F8405035
:103060000120BDE8F8830320FBE72068006835EA0B
:10307000000004D00020B842D2D00020F1E70120A7
:10308000F9E7FEE7490050EAC12018BF04204A0DC5
:1030900018BF40F0010040F2FF72B2EB515F08BF71
:1030A00040F00200012808BF052070470907090EFB
:1030B000002804DB00F1E02080F80014704700F0E5
:1030C0000F0000F1E02080F8141D704730380A2806
:1030D00001D201207047002070470000FEF772FD0A
:1030E000FFF79FFEFFF76CFDFFF7AAFDFFF7C8FD96
:1030F0004FF47A730B2205A10748FFF719FA00F085
:103100001BF8FFF74DFD00F029F8FEE753797374C3
:10311000656D4C696E6B0A002C02002010B5EFF350
:10312000058111B16FF0050403E0002408B100F03F
:10313000F5FD204610BD0000EFF3058010B16FF0E3
:10314000050070470448016811B14FF0FF30704727
:1031500001210160002070478800002010B5EFF3C6
:10316000058010B16FF0050010BD08480168012905
:1031700002D04FF0FF3010BD054A002182F8141D27
:103180000221016000F032FE002010BD8800002006
:103190000BE000E02DE9FF414FEA01034FF000058D
:1031A000EFF30581039549BB40B380271821002424
:1031B0004AB3166806B1344696691EB13146761E8A
:1031C000382E02D21679F60703D0002004B0BDE8ED
:1031D000F081566906B1B708D2F808C0BCF1000FFB
:1031E0000DD0D5685C2D18D312693AB136B18DE88F
:1031F00006103A46214601F06CF903900DE0D668BE
:103200005EB912694AB903AACDE90012BAB22146E1
:1032100001F032F9012800D003950398D6E70000A9
:103220002DE9F041134C0F460546E6682068001D65
:1032300000F040FC681C07D137B12168BDE8F041BF
:103240000D48091D00F086BC20683544B542456034
:10325000216805D2A06BBDE8F041091D00F062BCF9
:10326000606B091D00F05EFCA06A854200D2A56279
:10327000BDE8F08138000020AC0700202DE9F041C6
:10328000054600F073FC2D4CA068401CA06020682F
:103290002B4F10B1606930B32BE02560A068012886
:1032A00027D1002606EB860007EB800000F02CFCFF
:1032B000761C382EF6D3234800F026FC2148143023
:1032C00000F022FC1F48283000F01EFC1D483C3056
:1032D00000F01AFC1B48503000F016FC19486063DF
:1032E0001430A06305E02068E96AC06A884200D80B
:1032F0002560606A401C60626864E86A21698842EF
:1033000000D9206100EB800007EB8000291D00F050
:1033100021FC00F04BFC606900280CD02068E96AB1
:10332000C06A884207D208494FF080500860BFF356
:103330004F8FBFF36F8FBDE8F08100003800002091
:10334000FC0200205C07002004ED00E038B500F02E
:103350000DFC104C2068C8B90F4800F0D5FB0E4892
:10336000143000F0D1FB0C48E060143020610A4BAF
:103370000020F03B009003F1500210210A2000F0E1
:103380001DFE206010B105A100F092FCBDE83840A0
:1033900000F00CBC74000020B0080020546D725185
:1033A0000000000030B4026C0B46002A0BD0C1684C
:1033B0001144C1608468A14201D30168C16030BC7E
:1033C0001846FCF7F6BF30BC70472DE9F041856B1D
:1033D000174604460026026C82B1C7B1E068FCF7CC
:1033E000E8FFE168206C091AE1602268914202D28C
:1033F000A168081AE060022F16D017E02068A8B96B
:10340000A06801F009F906460020A0600EE060689F
:10341000FCF7CFFF216C606808446060A1688842B7
:1034200004D32068606001E005B16D1E6D1CA563CA
:103430003046BDE8F08110B5044690F8590058B107
:1034400001280CD002280FD0502080F31188BFF340
:103450004F8FBFF36F8FFEE7206B00F0BBFB204662
:10346000BDE8104000F0B6BB10BD000010484FF49E
:103470004061420706D0C01D0D4920F00700411AE7
:10348000C1F540610B4A00230144C2E90003083939
:10349000183A21F0070111604B600B600B1AC0E96C
:1034A000001393604FF0004053605061704700007C
:1034B000900F0020A4000020144E154CA6F29C474B
:1034C0004FF08058DFF84C9012E000BF00F04EFB48
:1034D000F068C568281D00F0EDFAA068401EA060E5
:1034E0006068401E606000F061FB2846FFF7A3FFA4
:1034F00060680028EAD138680128F9D9C9F8008045
:10350000BFF34F8FBFF36F8FF2E7000098070020E3
:103510003800002004ED00E070B51D46049C51B158
:10352000C4F80020C4E90F010121204600F07AFD13
:1035300084F84C5070BD2460F4E700002DE9F05F82
:103540008846DDE90B941546834691009A460A9E0B
:10355000A522206BFCF772FF6FF00301206B01EBDB
:103560008501084420F00707780707D0502080F332
:103570001188BFF34F8FBFF36F8FFEE70025B8F1BF
:10358000000F0FD05FF00000221818F8001082F82A
:10359000341018F8001011B1401C1028F4D384F82E
:1035A000435001E084F83450382E00D33726E662C9
:1035B000C4E91365201D00F0B2FA04F1180000F010
:1035C000AEFA2461C6F138006462A061656584F8D2
:1035D000585052465946384600F05AFA2060B9F120
:1035E000000F01D0C9F80040BDE8F09F30B5114987
:1035F00000E011460A688242FBD34B685C188442A3
:1036000003D1406818444860084643681C18944237
:1036100009D1084C183C2468A24209D052681A44C7
:1036200042600A6812680260814200D0086030BDC2
:103630000460F9E7A400002070B5002441600B4D40
:103640000061914206D8D11A8269914206D2011DC9
:10365000286907E09A4203D2994201D3012403E08A
:10366000011DE86800F05EFA204670BD740000207D
:1036700010B5044600F07AFAA06B28B15FF00004A0
:1036800000F094FA204610BD0124F9E730B589B066
:103690003C4D6EE00498002806DADDE90601059A43
:1036A00090470498002864DB069C606910B1201DD7
:1036B00000F000FA03A800F0D7F8024604980A28A0
:1036C00057D2DFE800F00505052D334A05052D33F7
:1036D00094F8280040F0010084F828000599A069BA
:1036E000059B01442046FFF7A7FF68B3216A2046E7
:1036F000884794F8280040073BD5002000900598A3
:10370000A169002342181946204601F08FF8D8B964
:10371000502080F31188BFF34F8FBFF36F8FFEE708
:1037200014F8280F20F00100207022E094F82800FF
:1037300040F0010084F828000598A06128B18118A4
:1037400013462046FFF778FF13E0502080F31188DE
:10375000BFF34F8FBFF36F8FFEE794F82800810708
:1037600003D4204600F036FA03E020F0010084F88C
:103770002800002204A9286800F0A8FD002889D1AB
:1037800009B030BD740000202DE9FC410F4605460C
:1037900000F070FB01A800F067F80446019818B12A
:1037A00000F0B2FFBDE8FC81254EAFB13069006882
:1037B000D0B30027291B3A46306800F08DFA00F09C
:1037C000A3FF0028EED11F494FF080500860BFF3DF
:1037D0004F8FBFF36F8FE5E7A542EBD800F094FF62
:1037E000F0682746C068C468201D00F063F994F8AB
:1037F0002800410719D5A0692B4641193A462046B1
:10380000FFF71AFFA8B100200346014600902A46A0
:10381000204601F00BF860B9502080F31188BFF307
:103820004F8FBFF36F8FFEE707E020F0010084F8B1
:103830002800216A20468847B4E70127BAE700003C
:103840007400002004ED00E00648416B096829B1CE
:10385000416BC968C9684968816270474FF0FF31A0
:10386000FAE700003800002070B5054600F06AFE57
:10387000064E0446B068844203D200F009F80120E5
:1038800000E0002028602046B46070BD7400002075
:10389000F8B5194D20E0C068C4680668201D00F026
:1038A00009F9216A2046884794F82800400713D573
:1038B000A0693044B04206D924616060211DE868E7
:1038C00000F030F908E0002003460146009032463F
:1038D000204600F0ABFF38B1E86801680029DAD172
:1038E0002969C5E90310F8BD502080F31188BFF3A2
:1038F0004F8FBFF36F8FFEE77400002008484068C9
:10390000401C4FF0500080F3118804D0BFF34F8F5C
:10391000BFF36F8FFEE7BFF34F8FBFF36F8FFEE7ED
:10392000AC000020074CE068016841B1C06800218C
:10393000D0F80000FFF728FFFFF7A8FEF3E701210A
:103940000020F7E7740000202DE9F041044600F064
:103950000DF994F9455004F1240609E0606A48B174
:10396000304600F099FE08B100F006FA6D1E6DB207
:10397000002DF3DC4FF0FF3684F8456000F016F9B7
:1039800000F0F4F894F9445004F1100709E02069BC
:1039900048B1384600F080FE08B100F0EDF96D1E28
:1039A0006DB2002DF3DC84F84460BDE8F04100F016
:1039B000FDB800002DE9F0410546002700F05AFA55
:1039C000324E306808B9FFF751FD706905424ED19B
:1039D000C5B3083568070ED005F00700C0F1080030
:1039E0000544680707D0502080F31188BFF34F8F3C
:1039F000BFF36F8FFEE72DB37068854237D8234839
:103A0000183001460C6801E020460C466168A94266
:103A100002D221680029F7D131688C4227D007688B
:103A20002168016060680837411B10290FD96019AF
:103A3000420708D0502080F31188BFF34F8FBFF3A7
:103A40006F8FFEE713E041606560FFF7CFFD6168AF
:103A50007068401A7060B268904200D2B0607069BD
:103A600001430020C4E90001F068401CF06000F050
:103A70004BFE780707D0502080F31188BFF34F8F9B
:103A8000BFF36F8FFEE73846BDE8F0818C00002061
:103A900010B5031F4FF080741C601B1F21F0010143
:103AA0001960191F024B0B60143940380A6010BDB1
:103AB000FD380008D0E9013201699A60D0E901239C
:103AC0005A604A68824201D182684A6000220261DB
:103AD0000868401E0860086870470000034B0360D8
:103AE00003F15C000860802010607047D808002057
:103AF000044B036003F15C0008604FF480701060B9
:103B000070470000340B002000F108014FF0FF3235
:103B1000C0E90112C160016100210160704700210C
:103B20000161704730B50B685A1C02D000F10802E1
:103B300002E0026904E02246546825689D42FAD9F1
:103B400053684B6099608A60516008610168491C44
:103B5000016030BD42684A6093688B609368596029
:103B6000916008610168491C01607047502080F332
:103B70001188BFF34F8FBFF36F8F0A494868401C0D
:103B8000486001280CD10848006810F0FF0F07D0EA
:103B9000502080F31188BFF34F8FBFF36F8FFEE784
:103BA00070470000AC00002004ED00E008494868C0
:103BB00028B1401E486001D180F311887047502021
:103BC00080F31188BFF34F8FBFF36F8FFEE70000C4
:103BD000AC00002070B500282AD0164DA0F10804D2
:103BE00060686969084207D1502080F31188BFF3EB
:103BF0004F8FBFF36F8FFEE722683AB1502080F3FA
:103C00001188BFF34F8FBFF36F8FFEE7884360606B
:103C100000F030F960686968084468602046FFF782
:103C2000E5FC2869401C2861BDE8704000F06CBDCF
:103C300070BD00008C0000204FF0E02000210161E9
:103C4000816105494FF47A720968B1FBF2F1491EAE
:103C500041610721016170473400002010B5FCF775
:103C6000E7FA114910280ED300F1E02090F8F00394
:103C70000A78904207D2502080F31188BFF34F8F0B
:103C8000BFF36F8FFEE709480068896800F4E060C1
:103C9000884207D9502080F31188BFF34F8FBFF3BC
:103CA0006F8FFEE710BD0000AC0000200CED00E0BF
:103CB00010B5084B002200BF53F832401CB1521C13
:103CC000082AF9D310BD43F8321003EBC201486053
:103CD00010BD0000BC02002070B515460E4604461B
:103CE000FFF744FF94F944100020491C01D184F8E7
:103CF000440094F94510491C01D184F84500FFF7B0
:103D000055FFA06B28B92A46314604F1240000F083
:103D100051F82046BDE87040FFF716BE10B502000E
:103D200014D00F48006B38B1502080F31188BFF3D6
:103D30004F8FBFF36F8FFEE700F09CF80021104615
:103D4000FFF76EFA00F0E0FC002807D105494FF0BC
:103D500080500860BFF34F8FBFF36F8F10BD00001E
:103D60003800002004ED00E002490A6A0260C968D8
:103D7000416070473800002001490120C861704748
:103D80003800002010B50C4650B1094909681831B7
:103D9000FFF7C8FE2046BDE810400121FFF740BAFA
:103DA000502080F31188BFF34F8FBFF36F8FFEE772
:103DB0003800002070B514460D4668B10A490968FC
:103DC0001831FFF7C7FE0CB14FF0FF3521462846EA
:103DD000BDE87040FFF724BA502080F31188BFF38C
:103DE0004F8FBFF36F8FFEE73800002030B587B0EC
:103DF0000024039405AA04A903A80494FFF76EFE07
:103E0000DDE903010094CDE90110002315A1174855
:103E1000059A00F05EFB164D0028E8621FD000F006
:103E2000D5FC012809D0401C19D1502080F31188FD
:103E3000BFF34F8FBFF36F8FFEE7502080F31188E1
:103E4000BFF34F8FBFF36F8F4FF0FF30A862012099
:103E50006861EC6007B0BDE8304000F045B807B0DD
:103E600030BD000049444C4500000000B934000852
:103E7000380000200248016B491C016370470000B4
:103E800038000020164810B5016B11B10121C16145
:103E900010BD0021C1610169124A01E0B9B1491E9A
:103EA00001EB810352F82330002BF7D001EB8103A3
:103EB00002EB830202F1080453685B685360A3427B
:103EC00001D15B685360DA680260016110BD502067
:103ED00080F31188BFF34F8FBFF36F8FFEE70000B1
:103EE00038000020FC0200201CB52649087801900B
:103EF000FF20087008788DF800009DF800009DF8FC
:103F0000002000F0F000904207D0502080F311888C
:103F1000BFF34F8FBFF36F8FFEE79DF800001A4C81
:103F200000F0500020700720A06005E09DF8002000
:103F300052008DF80020401E9DF800201206F5D496
:103F4000A060032807D0502080F31188BFF34F8F63
:103F5000BFF36F8FFEE74FF44070A06001980870C8
:103F60000A48016841F470010160016841F0704144
:103F70000160FFF761FE00206060FCF723F900207C
:103F80001CBD000000E400E0AC00002020ED00E0DB
:103F900010B5502080F31188BFF34F8FBFF36F8FA0
:103FA00000F0D6FA18B104494FF0805008600020A4
:103FB00080F3118810BD000004ED00E038B5049DC9
:103FC00018B153B1CAB181B120E0502080F31188FB
:103FD000BFF34F8FBFF36F8FFEE7502080F3118840
:103FE000BFF34F8FBFF36F8FFEE7502080F3118830
:103FF000BFF34F8FBFF36F8FFEE739B1502080F3CF
:104000001188BFF34F8FBFF36F8FFEE750241C461C
:10401000012384F846302B460094FFF77DFA2046B2
:1040200038BD000070B50D46040025D0FFF79EFD99
:10403000D4E90F20216802FB0011A1600021A163D7
:10404000216861600A46D4E90F01401E00FB01218E
:10405000E16021464FF0FF3001F8440F487004F151
:1040600010008DB1FFF750FD04F12400FFF74CFD67
:10407000FFF79CFD012070BD502080F31188BFF335
:104080004F8FBFF36F8FFEE721690029F0D000F05A
:1040900003FB0028ECD004494FF080500860BFF3C8
:1040A0004F8FBFF36F8FE3E704ED00E02DE9FF478B
:1040B00082B01D468A464FF00008040003D0BAF1D2
:1040C000000F08D011E0502080F31188BFF34F8F0C
:1040D000BFF36F8FFEE7206C38B1502080F311885A
:1040E000BFF34F8FBFF36F8FFEE7022D0AD1E06B56
:1040F000012807D0502080F31188BFF34F8FBFF302
:104100006F8FFEE700F010FA3F4F4FF000094FF0BD
:10411000805648B9049838B1502080F31188BFF315
:104120004F8FBFF36F8FFEE7FFF720FDA06BE16BB2
:10413000884207D3022D05D00498D0B1B8F1000F02
:104140001AD01EE02A4651462046FFF73EF9616A22
:1041500019B104F1240000F09FFA20B13E60BFF3D2
:104160004F8FBFF36F8FFFF721FD012006B0BDE831
:10417000F087FFF71BFD22E06846FFF7F5FD4FF0E3
:104180000108FFF713FDFFF775FEFFF7EFFC94F949
:104190004400401C01D184F8449094F94500401C2F
:1041A00001D184F84590FFF701FD04A9684600F0AD
:1041B00029F930B12046FFF7C7FB00F0A5FA00202F
:1041C000D4E7FFF7D3FCA06BE16B884213D1FFF774
:1041D000EDFC04F110000499FFF7D4FD2046FFF731
:1041E000B3FB00F091FA00289ED13E60BFF34F8FE1
:1041F000BFF36F8F98E7FFF7D9FC2046FFF7A4FBCA
:1042000000F082FA90E7000004ED00E02DE9F047AD
:104210001F4690468946040003D0B9F1000F08D02C
:1042200011E0502080F31188BFF34F8FBFF36F8FE1
:10423000FEE7206C38B1502080F31188BFF34F8F18
:10424000BFF36F8FFEE7022F0AD1E06B012807D082
:10425000502080F31188BFF34F8FBFF36F8FFEE7BD
:10426000FFF7FCFC5020EFF3118680F31188BFF3B9
:104270004F8FBFF36F8FA06BE16B884206D3022F85
:1042800004D0002086F31188BDE8F08794F94550EA
:10429000A06B3A4649462046FFF797F8681C04D0C1
:1042A0006D1C84F845500120ECE7606A0028FAD0C4
:1042B00004F1240000F0F0F90028F4D0B8F1000F68
:1042C000F1D00121C8F80010EDE700002DE9F74713
:1042D000002683B08A46040003D0BAF1000F08D04C
:1042E00011E0502080F31188BFF34F8FBFF36F8F21
:1042F000FEE7206C38B1502080F31188BFF34F8F58
:10430000BFF36F8FFEE700F00FF9DFF8F4804FF096
:1043100000094FF0805748B9059838B1502080F314
:104320001188BFF34F8FBFF36F8FFEE7FFF71EFCBF
:10433000A56BC5B151462046FFF734F86D1EA56345
:10434000206950B104F1100000F0A6F928B1C8F8B6
:104350000070BFF34F8FBFF36F8FFFF727FC012073
:1043600006B0BDE8F087059808B11EB106E0FFF77A
:104370001DFC27E06846FFF7F7FC0126FFF716FC57
:10438000FFF778FDFFF7F2FB94F94400401C01D1E0
:1043900084F8449094F94500401C01D184F845907C
:1043A000FFF704FC05A9684600F02CF80028204619
:1043B0000AD0FFF7C9FA00F0A7F92046FFF758F92D
:1043C0000028B3D00020CBE7FFF752F990B104F1F9
:1043D00024000599FFF7D6FC2046FFF7B5FA00F058
:1043E00093F90028A2D1C8F80070BFF34F8FBFF334
:1043F0006F8F9BE72046FFF7A7FA00F085F995E756
:1044000004ED00E02DE9F0410C46050011D0C4B1E7
:10441000FFF7ACFB174BDA686E682068911B471CEE
:1044200017D02F681B6A9F4219D0964217D80124D3
:1044300010E0502080F31188BFF34F8FBFF36F8FD0
:10444000FEE7502080F31188BFF34F8FBFF36F8FCB
:10445000FEE70024FFF7AAFB2046BDE8F081884272
:1044600005D9401A20602846FFF77EFCF1E70020BE
:104470002060DCE7380000202DE9FF5F8346DDE99E
:104480000E87994616468A469000FFF793FA050074
:104490001CD05C20FFF78EFA040014D000202563A6
:1044A00084F85900CDE90240CDE900874B463246F9
:1044B00051465846FFF742F82046FEF7DFFE01203E
:1044C00004B0BDE8F09F2846FFF784FB4FF0FF30B3
:1044D000F6E7F0B585B0DDE90B640A9DA6B1DCB165
:1044E0005C2700972663022684F85960002604AFF3
:1044F000CDE90246CDE90057FFF720F82046FEF748
:10450000BDFE049805B0F0BD502080F31188BFF3C4
:104510004F8FBFF36F8FFEE7502080F31188BFF3FA
:104520004F8FBFF36F8FFEE70548416919B1006BEC
:1045300018B100207047012070470220704700002A
:10454000380000200148C068704700003800002093
:104550002DE9F0412E4C0027206B28B1A069401CAA
:10456000A0613846BDE8F081E668761CE66013D1AC
:10457000606B006838B1502080F31188BFF34F8F13
:10458000BFF36F8FFEE7606BA16B6163A063206A6E
:10459000401C2062FFF758F9A06ADFF87880864255
:1045A00009D3606B0068A0B1606BC068C5686868BB
:1045B000864211D2A0622068C06A00EB800158F8E0
:1045C0002100012800D90127E0690028C9D001276E
:1045D000C7E74FF0FF30EDE7281DFFF76BFAA86A39
:1045E00018B105F11800FFF765FAE86A21698842F9
:1045F00000D9206100EB800108EB8100291DFFF745
:10460000A9FAE86A2168C96A8842CAD30127C8E7BB
:1046100038000020FC02002070B504004FF00001BB
:1046200033D01B4D2868844207D0502080F3118876
:10463000BFF34F8FBFF36F8FFEE7206D38B1401E81
:104640002065E36CE26A9A421FD040B11DE0502021
:1046500080F31188BFF34F8FBFF36F8FFEE7201DEC
:10466000FFF728FAE06CE062C0F13800A061E06A70
:104670002969884200D92861064900EB800001EBD6
:104680008000211DFFF766FA0121084670BD000079
:1046900038000020FC02002070B5C068C46854B126
:1046A00004F118000646FFF705FA144D286B50B1C7
:1046B0003146134815E0502080F31188BFF34F8F27
:1046C000BFF36F8FFEE7201DFFF7F4F9E06A296959
:1046D000884200D928610B4900EB800001EB800083
:1046E000211DFFF737FAE06A2968C96A884202D9B2
:1046F0000120E86170BD002070BD0000380000207E
:1047000084070020FC0200202DE9F0472C4D0024F6
:104710002746286B38B1FFF729FA286B401E28631B
:10472000286B40B146E0502080F31188BFF34F8FD3
:10473000BFF36F8FFEE7A968224E0120D1B3A6F523
:10474000916980463068E0B1F068C46804F11800EF
:10475000FFF7B0F9201DFFF7ADF9E06A296988423B
:1047600000D9286100EB800109EB8100211DFFF7D2
:10477000F1F9E06A2968C96A8842E3D3C5F81C8068
:10478000E0E70CB1FFF760F8AC694CB14FEA0806FE
:10479000FFF7DEFE00B1EE61641EF9D10020A861D2
:1047A000E86938B10849012738070860BFF34F8F1F
:1047B000BFF36F8FFFF7FAF93846BDE8F0870000C6
:1047C000380000208407002004ED00E010B586B01A
:1047D000FEF7BCFD114C2068B8B100200390049096
:1047E00005AA04A903A8FFF783F9DDE90321022044
:1047F0008DE8070000230AA10B48059AFFF769FE20
:10480000606010B106B0012010BD502080F3118807
:10481000BFF34F8FBFF36F8FFEE7000074000020DF
:10482000546D722053766300253900082DE9FF414D
:104830001E46134602000A9D4FF0000016D0144C8D
:104840002768002F0FD0CDE900130292062917DA4E
:10485000FFF76AFE02284FF000030FD000226946DE
:104860002068FFF723FC04B0BDE8F081502080F3FE
:104870001188BFF34F8FBFF36F8FFEE72A46EEE735
:104880000023324669463846FFF7C0FCEBE70000DC
:104890007400002010B500290AD00878002807D03D
:1048A00005487844FCF7ACF9002801D0002010BD81
:1048B0000248784410BD00002A0A0000220A0000C5
:1048C00010B591EA030F48BF83F0004300F11E8347
:1048D000841A71EB030C05D2121943EB0C03001B75
:1048E00061EB0C01DFF824E14FEA1154A4EB135CF7
:1048F0001EEA430F18BF9EEA445F73D023EA0E03FB
:10490000DCF1200E21EA045143F4801332D322FA61
:104910000CFE10EB0E0023FA0CFE41EB0E01CCF165
:10492000200E03FA0EFE10EB0E0051F10001B1F55E
:10493000801FCCF1200E32D201EB045112FA0EF29C
:10494000BDE8104058BF7047401C38BF5FEA4202C4
:1049500018BF7047002814BF20F0010041F100018A
:104960004FEA410313F5001F38BF7047A1F1C04162
:1049700000F0BEBA012A43EB0302ACF1200CDCF1DB
:104980001F0E32BF4FF0000E23FA0CF310EB0300A2
:1049900041EB0451B4EB115FD0D0A1EB045101F510
:1049A000801149085FEA300001EB04510ED350F149
:1049B000000038BF12FA0EFE08D1BDE81040C9E76A
:1049C000401C38BF5FEA4202CAD1C3E7BDE81040CD
:1049D0004FEA410313F5001F38BF7047A1F1C041F2
:1049E00000F086BA9EEA445F08D011EA5E0FBDE887
:1049F000104004BF01F0004100207047BDE81040A6
:104A000070B500F027FA00BF64FBBE3E0000E0FF77
:104A100002494FF0000000F05DBB00BF0000F87FCE
:104A20002DE9C04130B4DFF8A0C23CEA111418BF30
:104A30003CEA131400F0EC8081EA03051CEA11142F
:104A400044EAD57418BF1CEA131500F0C780A4EB24
:104A500005044FF0004545EAC12145EAC32341EA78
:104A6000505143EA525304F17F74994204F50034E3
:104A70004FEAC0204FEAC22208BF904200F09C805B
:104A80004FEA13650FF24016765D4FEA134506FBB9
:104A900005F7C7F1807706FB07F74FEAD737A7FB83
:104AA00003687642C8F58038A7FB06CE38BFA8F168
:104AB000010807FB08E64FF0000EA6FB028CE6FBA0
:104AC00003CEDCF1000CCEF1004E38BFAEF1010E8A
:104AD000A6FB0C584FF000074FF00005E6FB0E87D1
:104AE000A1FB08C6A0FB07CE16EB0E0645F100059C
:104AF000E1FB076515F1E04E7EBFA4F580345FEA67
:104B000046066D4116F1800745F100054FEA17276B
:104B10004FEA066647EA0567A6F1DE46B6F1805F12
:104B20004FEA15251FD9384624F0010C05EBC47156
:104B3000BCF1FE6F01EB0C1102D8F0BCBDE80081A6
:104B400024425CBF01F5801E9EEAC47F02D4F0BC03
:104B5000BDE80081244238D4F0BCA1F1C041BDE8D9
:104B6000004100F0C5B94FEAD22242EA43524FEA6F
:104B7000D323A7FB02864FEAD02040EA415007FB2F
:104B800003661EEA0E0F4FEAD12105FB026658BFED
:104B9000A6EB0056B6EB00564FEA520E4EEAC37E25
:104BA00018EB0E0E56EB530EBDD518EB02085E4106
:104BB0007F1C55F10005B6E74FF480154FF0000754
:104BC0004FF000064FF00008ADE7F0BC4FF00000DA
:104BD00001F1C04101F00041BDE8008111EA0C1F64
:104BE0000CEA131500D00CE013EA0C1F00F025802E
:104BF0004FF00000F0BC81EA030101F00041BDE884
:104C00000081F0BCBDE8004181EA030100F070B909
:104C1000F0BCBDE8004170B500F01CF9097EFC3E17
:104C200000F007B881EA03014FF0000001F00041F5
:104C3000704781EA030100F05BB9F0BCBDE80041B8
:104C40004FF0000021497047FFFDFBF9F7F5F4F242
:104C5000F0EEEDEBE9E8E6E4E3E1E0DEDDDBDAD817
:104C6000D7D5D4D3D1D0CFCDCCCBCAC8C7C6C5C475
:104C7000C2C1C0BFBEBDBCBBBAB9B8B7B6B5B4B38C
:104C8000B2B1B0AFAEADACABAAA9A8A8A7A6A5A477
:104C9000A3A3A2A1A09F9F9E9D9C9C9B9A9999983B
:104CA0009797969595949393929191908F8F8E8EDE
:104CB0008D8C8C8B8B8A898988888787868585846B
:104CC00084838382828181800000FF070000F87F57
:104CD00010F0004248BF4042B0FA80F310FA03F1EE
:104CE0000AD0C3F11D0303F580634FEA415002EB84
:104CF000035202EBD12170474FF0000070470000D3
:104D0000DFF848C170B51CEA111E1EBF1CEA13155E
:104D10009EEA0C0F95EA0C0F00F06F8081EA030405
:104D200023EA4C134EEAD47E21EA4C1141F480115F
:104D300043F48013AE44A1FB024CA0FB0365AEF12B
:104D40007F7E361955EB0C05A1FB034C4CF100039B
:104D5000A0FB021C16EB0C06654153F1000309424F
:104D600018BF46F0010613F4007F0BD14FEA033160
:104D70004FEA0530340341EA155140EA16506FF00E
:104D800003020AE04FEAC3214FEAC520F40241EAD8
:104D9000555140EA56506FF0020202EB2E4201EBF1
:104DA000025585EACE710AD05FEA440C18BF24F0A0
:104DB000004450F1000041F1000120EAD47040F2BB
:104DC000FE7C624500D270BDA84214BF4FF0804403
:104DD0004FF04044002E08BF0024BEF1806FA8BFF2
:104DE000A1F1C041BDE8704080F282804FF0000028
:104DF00001F1C04101F0004170479EEA0C0F0CEA3E
:104E0000131518BF95EA0C0F06D04FF0000081EA89
:104E1000030E0EF0004170BD00F01CF88900013E49
:104E200000F007B800F009B84FEA430C5FEA5C5C99
:104E300008D081EA030100F05BB84FEA410C5FEA59
:104E40005C5CF6D14FF00000014970470000FF079D
:104E50000000F87F0EF1020E2EF0030E5EF8046BD8
:104E6000364205D4012A43EB030515F5001F12D87D
:104E7000012841EB010C1CF5001F0CD80ED14FEAA4
:104E8000D17C15F5001F0CEB4C0C0CF1020C08BF8B
:104E90004CEBD37C04E04FF0080C01E04FEAD37CEC
:104EA0000CEB4C0526FA05F606F00706B6F1040CE5
:104EB00006D20EEB860CBDE870404CF0010C60474A
:104EC000DFE80CF0090B02024FF000414FF0000048
:104ED000A1F5002170BD19461046012851EB0104CF
:104EE00018BFD4F5001484BF002001F0004170BD4C
:104EF0000808A0F500114FEA3101704710B591EA9A
:104F0000030F48BF83F000433FF5E2AC841A71EB16
:104F1000030C07D212198CF0004C43EB0C03001B5E
:104F200061EB0C01DFF8A4E14FEA1154A4EB135C30
:104F30001EEA430F18BF9EEA445F00F0B08023EAE8
:104F40006E03524221EA0451C3EB6E0338BF5B1E6D
:104F5000DCF1200E25D322FA0CFE10EB0E0043FAF2
:104F60000CFE41EB0E01CCF1200E03FA0EFE10EB0D
:104F70000E0051F10001CCF1200E29D412FA0EF2EC
:104F800001EB0451BDE8104058BF7047401C1CBFE6
:104F9000B2F1004F704700280CBF491C20F00100FF
:104FA000704712EB020E43EB030218BF4FF0010EE5
:104FB0004EEA4202ACF1200CDCF11E0E54D943FA49
:104FC0000CFE10EB0E0051F1FF31CCF11E0ED5D5C9
:104FD0000EF1010E12FA0EFE404141EB010101EB10
:104FE000445C5FEA5C5C10D910EBDE7001EB0451AD
:104FF00038BFBEF1004FBDE8104018BF7047002811
:105000000CBF491C20F00100704730D24FEAD42C6D
:1050100011F5001124F400641BD0B1FA81F20B3AAF
:10502000A41AA41ED2F12003914030FA03F31943CD
:10503000904001EBCC71002C01EB0451BDE8104015
:10504000A8BF704701F1C0414FF0000001F00041DE
:105050007047B0FA80F310FA03F100D110BDE41AE2
:10506000173C4805C90AE4E701EB045110BD49109B
:1050700001EB0451BDE810404FEA300002E04FF070
:10508000000170474A0008BF0042F8D0B2F5001F87
:1050900028BF704701F000414FF0000070479EEAC2
:1050A000445F07D011EA5E0FBDE8104004BF002145
:1050B00000207047BDE8104070B5FFF7CBFE00BF81
:1050C00040DFF63E83F00041104670470000E0FFED
:1050D000FBF7BFBA0CF00F03092B08BF082000F044
:1050E00059800A2B0BD0082B18BF704708BF1CF043
:1050F000400F0AD04FF000004FF0000170471CF045
:10510000400F18BF4FF0004070471CF0100F08D040
:1051100020F0704300F07F4242EAD3014FEA43702F
:10512000704700F0604021F07F4242EA000201F047
:105130007F4040EA727070474FF0FF0C4CF4E06C17
:105140001CEA11531CBF9CEA030C9445C2BFDA420F
:1051500001EB02517047002B0DD0BCF1000F0FD0B6
:10516000002A01F00041A4BF41F0E04141F07F611D
:105170004FF00000704701F000414FF00000704711
:1051800050EA01334FF09B0C18BF4CF0806C7FF459
:105190003FAC70471CF4801F11D01CF4E02F03D0EB
:1051A0006FEACC31490070474FF04050EFF3008276
:1051B00022F0704242EA000282F3008870474FF00A
:1051C00000007047A8520008000000000000000026
:1051D00000000000000000000002000018000000B5
:1051E00000000000000000000102020304050607A1
:1051F00008090A0B0C0D0E0F101000000000000033
:105200000000010203040607080900000000010273
:105210000304000002400000000000A000000000A5
:1052200005400000000000C8000000000C40000025
:105230000000409C00000000194000000020BCBE9F
:105240000000000034400000BFC91B8E00000004B5
:10525000B5400000504BCFD06607E2CF0100000000
:105260006C4100003E8251AADFEEA734010000002D
:10527000D9420000DCB5A0E23A301F97FFFFFFFFE4
:10528000B4450000FD25A0C8E9A3C14FFFFFFFFF03
:10529000FF3F00000000008000000000FF3F000012
:1052A00000000080000000004D505500E85200084A
:1052B00000000020B800000028010008A0530008EA
:1052C000B800002038210000440100081C00000044
:1052D00043000000F8FFFFFF0C0000000E0000007C
:1052E0000F0000002E0000003B0000000000000046
:1052F00000000000000000000000000000000000AE
:10530000000000000000000000000000000000009D
:1053100001000000100000000000000000127A00F0
:10532000000000000000000000000000000000007D
:10533000000000000000000000000000000000006D
:10534000000000000000000000000000000000005D
:10535000000000000000000000000000000000004D
:10536000000000000000000000000000000000003D
:10537000000000000000000000000000000000002D
:10538000000000000000000000000000000000001D
:105390000000000000000000AAAAAAAA0000000065
:04000005080000ED02
:00000001FF
