:020000040800F2
:100000004023002021020008371D0008551B00086E
:10001000351D000887040008912500080000000035
:10002000000000000000000000000000890100083E
:10003000CB04000800000000CD010008E51D000809
:100040003B0200083B0200083B0200083B0200089C
:100050003B0200083B0200083B0200083B0200088C
:100060003B0200083B0200083B0200083B0200087C
:100070003B0200083B0200088904000895040008C0
:100080003B0200083B0200083B0200083B0200085C
:100090003B0200083B0200083B0200083B0200084C
:1000A0003B0200083B0200083B0200083B0200083C
:1000B000611E00083B0200083B0200083B020008EA
:1000C0003B0200083B0200083B0200083B0200081C
:1000D0003B020008E12400083B0200083B02000844
:1000E0003B0200083B0200083B02000800F002F857
:1000F00000F03AF80AA090E8000C82448344AAF188
:100100000107DA4501D100F02FF8AFF2090EBAE885
:100110000F0013F0010F18BFFB1A43F0010318473B
:10012000584E0000784E0000103A24BF78C878C1BD
:10013000FAD8520724BF30C830C144BF04680C60ED
:10014000704700000023002400250026103A28BF35
:1001500078C1FBD8520728BF30C148BF0B60704739
:100160001FB51FBD10B510BD00F058F91146FFF7BF
:10017000F7FF02F053FD00F076F903B4FFF7F2FF4A
:1001800003BC00F079F90000224B19680868B0E858
:10019000F00F80F30988BFF36F8F4FF0000080F3FA
:1001A00011884EF00D0E70470000000006480068F0
:1001B000006880F3088862B661B6BFF34F8FBFF363
:1001C0006F8F00DF00BF00BF08ED00E0EFF3098094
:1001D000BFF36F8F0F4B1A6820E9F00F106008B55E
:1001E0004FF0500080F31188BFF34F8FBFF36F8F34
:1001F00003F01AFC4FF0000080F31188BDE80840BE
:1002000019680868B0E8F00F80F30988BFF36F8FB2
:10021000704700BF28000020EFF305807047000002
:100220000948804709480047FEE7FEE7FEE7FEE78A
:10023000FEE7FEE7FEE7FEE7FEE7FEE704480549C6
:10024000054A064B704700005D1E0008ED000008DF
:10025000401D002040230020401F0020401F0020A0
:10026000032A40F2308010F0030C00F0158011F8E2
:10027000013BBCF1020F624498BF11F801CB00F8BA
:10028000013B38BF11F8013BA2F1040298BF00F80E
:1002900001CB38BF00F8013B11F0030300F062808E
:1002A000083AC0F0088051F8043B083A51F804CBF2
:1002B000A0E80810F5E7121D5CBF51F8043B40F8B8
:1002C000043BAFF30080D20724BF11F8013B11F8C3
:1002D00001CB48BF11F8012B24BF00F8013B00F807
:1002E00001CB48BF00F8012B704702F0FF0343EA3F
:1002F000032242EA024200F069B84FF0000200B562
:10030000134694469646203922BFA0E80C50A0E838
:100310000C50B1F12001BFF4F7AF090728BFA0E8E6
:100320000C5048BF0CC05DF804EB890028BF40F8B2
:10033000042B08BF704748BF20F8022B11F0804FF4
:1003400018BF00F8012B704770477047704710B511
:1003500000F05CF8006810BD10B5044600F056F8D7
:10036000046010BD10B5203AC0F00B80B1E8185001
:10037000203AA0E81850B1E81850A0E81850BFF48F
:10038000F5AF5FEA027C24BFB1E81850A0E818502E
:1003900044BF18C918C0BDE810405FEA827C24BF82
:1003A00051F8043B40F8043B08BF7047D20728BF10
:1003B00031F8023B48BF11F8012B28BF20F8023B5F
:1003C00048BF00F8012B70474FF000020429C0F02D
:1003D000128010F0030C3FF492AFCCF1040CBCF18E
:1003E000020F18BF00F8012BA8BF20F8022BA1EBC9
:1003F0000C01FFF784BF5FEAC17C24BF00F8012B2A
:1004000000F8012B48BF00F8012B704700487047E7
:10041000DC1C002000487047DC1C00207546FFF7FC
:10042000F9FFAE4605006946534620F007008546B1
:1004300018B020B5FFF702FFBDE820404FF00006DE
:100440004FF000074FF000084FF0000B21F00701BC
:10045000AC46ACE8C009ACE8C009ACE8C009ACE8FF
:10046000C0098D46704710B50446AFF300802046A2
:10047000BDE81040FFF781BE01491820ABBEFEE782
:10048000260002007047FEE7014800F091B8000026
:100490007C030020014800F08BB8000038030020E6
:1004A00030B590F840500124AC40C56B6C600468D6
:1004B00063604368102B036803D099600068C260D2
:1004C00030BD9A600068C16030BD704772B6FEE70B
:1004D00010B590F821100022022905D00421816373
:1004E00080F82020012010BD01680B6823F00E0366
:1004F0000B6001680B6823F001030B6090F840303B
:10050000C46B012101FA03F3636080F8211080F8C5
:100510002020104610BD000010B590F821100024D6
:10052000022903D00421816301243DE001680A68A7
:1005300022F00E020A6001680A6822F001020A60D5
:100540001A4A0168914201D1012121E0174A14326F
:10055000914201D110211BE0144A2832914201D16D
:10056000891515E0114A3C32914201D189140FE0FE
:100570000E4A5032914202D14FF4803108E00B4ACA
:100580006432914202D14FF4801101E04FF080714A
:10059000064A083A5160012180F82110002180F8B4
:1005A0002010416B01B18847204610BD0800024071
:1005B0002DE9F05FC16B0C6801680B68D0F840C092
:1005C000042202FA0CF2494DDFF824A1494E4A4FA9
:1005D000DFF828B1DFF828E122422CD05A072AD5CB
:1005E0000A68920603D40A6822F004020A600168CD
:1005F000A94201D1042219E0514501D1402215E060
:10060000B14202D14FF4806210E0B94202D14FF4FE
:1006100080420BE0594502D14FF4802206E071453B
:1006200002D14FF4800201E04FF080622F49083977
:100630004A60C16A3BE04FF0020808FA0CF818EA79
:10064000040F4FF000094FF0010235D05FEA8378C4
:1006500032D50B689B0605D40B6823F00A030B60A8
:1006600080F821200168A94201D1022219E05145F8
:1006700001D1202215E0B14202D14FF4007210E006
:10068000B94202D14FF400520BE0594502D14FF468
:10069000003206E0714502D14FF4001201E04FF044
:1006A0000072124908394A6080F82090816A002956
:1006B0001AD0BDE8F05F0847082505FA0CF5254279
:1006C00012D01B0710D50B6823F00E030B6090F8B7
:1006D0004010C36B02FA01F15960826380F8212057
:1006E00080F82090016BE2E7BDE8F09F080002402F
:1006F0001C0002403000024044000240580002400A
:100700006C00024030B528B308C8134914221944BC
:10071000B1FBF2F18900C163104981630221417785
:100720001A6843F6F0718A43D0E900142143D0E9F6
:1007300002452C43214304692143446921438469D0
:10074000214311431960002141630122427701775F
:10075000084630BD012030BDF8FFFDBF000002405B
:1007600070B5044690F82000002501280CD0012027
:1007700084F8200094F821600020012E06D084F82F
:1007800020000225284670BD022070BD022684F894
:100790002160A0632068066826F0010606602046F6
:1007A000FFF77EFEE06A00282068016802D041F071
:1007B0000E0106E021F0040101602068016841F0AB
:1007C0000A0101602068016841F001010160D9E778
:1007D00070B5044600F004F90546601C02D00448D8
:1007E0000078044400F0FCF8401BA042FAD370BD2E
:1007F000180000202DE9F84FDFF8B8910024A9F186
:10080000040B23460F2709F1040AABF1040EC9E0DB
:100810000125A5402A40AA427DD1674ED1F804C0E7
:10082000ACEB0608B44532D014DCBCF1030F3AD06F
:1008300009DCBCF1000F2AD0BCF1010F1CD0BCF1C7
:10084000020F31D11DE0BCF1110F17D0BCF1120F16
:100850002AD119E0B8F5881F19D006DCB8F5803F19
:1008600015D0B8F5801F1FD111E0B8F5001F0ED0CC
:10087000B8F5041F18D10AE0CB6815E0CB681B1D42
:1008800012E0CB6808330FE0CB680C330CE08B68C8
:100890002BB1012B4FF0080303D0456104E0042382
:1008A00002E0056100E00023FF2A01D8064601E0CE
:1008B00000F104064FEA840501D9A5F12005D6F818
:1008C000008007FA05FC28EA0C0803FA05F548EA57
:1008D0000508C6F800804D68ED0062D5374DAE6959
:1008E00046F00106AE61AD6924F0030605F001058E
:1008F0000095334D06EB050CDCF80850A607360FC3
:1009000007FA06F825EA0805DFF8B880404503D164
:100910004FF0000817E044E0DFF8AC80404502D11A
:100920004FF001080FE0DFF8A480404502D14FF0FE
:10093000020808E0DFF89880404502D14FF0030834
:1009400001E04FF0040808FA06F848EA0508CCF878
:1009500008804D68D9F80060ED024D4601D5164378
:1009600000E096432E604D68DAF80060AD0255460F
:1009700001D5164300E096432E604D68DBF8006019
:10098000AD035D4601D5164300E096432E604D68E9
:10099000DEF80060ED03754601D5164300E096438E
:1009A0002E60641C0D682A46E5407FF431AFBDE837
:1009B000F88F0000080401400000111000100240F0
:1009C0000000014000080140000C014000100140FF
:1009D000001401400AB1016170470904FBE70000FF
:1009E00001488068704700001800002002488168B4
:1009F000027811448160704718000020074810B544
:100A0000016841F010010160032000F0A7F80F20F9
:100A100000F006F800F050F8002010BD0020024061
:100A200030B50546204887B0C16941F00101C16178
:100A3000C06906A900F00100009001A800F036F995
:100A40000498B8B100F052F9400018494FF08042C4
:100A5000B0FBF1F11648491E0260416040F2E732F6
:100A60000021C0E903218160816100F075FB040071
:100A700003D015E000F03AF9E7E70D4800F0AEFBCF
:100A800004000DD11C2000F03BF8102D07D20022ED
:100A900029461C2000F042F80648056000E00124C9
:100AA00007B0204630BD00000010024040420F0059
:100AB000C00300201C0000200F4808B5816941F0E8
:100AC00001018161816901F001010091C16941F079
:100AD0008051C161C069002200F0805000900F2158
:100AE000901E00F01BF80548416821F0E06141F0DC
:100AF0000071416008BD000000100240000001408C
:100B0000002809DB00F01F0201219140400980000C
:100B100000F1E020C0F8001170470000F0B40E4B67
:100B20001B680C46C3F30223C3F10705042D00D94B
:100B30000425191D072901D2002300E0DB1E012630
:100B400006FA05F1491E214099409E40761E164046
:100B50003143F0BC01F031BD0CED00E0064900F07E
:100B6000070208684FF6FF03184040EA0220034AD4
:100B700010430860704700000CED00E00000FA052B
:100B80002DE9F0470F46050061D0434E306800F074
:100B90000700B84209D2306820F0070038433060BF
:100BA000306800F00700B84251D128683B4C8107FB
:100BB00012D5400703D5606840F4E0606060287893
:100BC000000703D5606840F4605060606068A96801
:100BD00020F0F000084360602878C00728D06868DB
:100BE000012810D02168022810D0890700292EDAA8
:100BF000616821F0030101436160FFF7F1FE804667
:100C000041F288390DE021688903EFE78901EDE7BA
:100C1000FFF7E6FEA0EB0801494502D90320BDE835
:100C2000F0876068696800F00C00B0EB810FEFD1CD
:100C3000306800F00700B8420BD9306820F0070098
:100C400038433060306800F00700B84201D001201E
:100C5000E5E72878400705D56068E96820F4E0609A
:100C6000084360602878000706D56068296920F489
:100C7000605040EAC100606000F058F86168084ABE
:100C8000C1F30311515CC84006490860064800687A
:100C9000FFF7C6FE0020C2E700200240001002401D
:100CA0002E4E0008240000201C0000200F220260AD
:100CB0000C4A536803F003034360536803F0F003E6
:100CC0008360536803F4E063C36052684FF4E063E9
:100CD00003EAD20202610448006800F007000860DD
:100CE00070470000001002400020024004480549FF
:100CF00000684968044AC1F30221515CC84070474A
:100D000024000020001002403E4E0008044805491F
:100D100000684968044AC1F3C221515CC840704769
:100D200024000020001002403E4E00080E4A516888
:100D30000E4801F00C03042B11D0082B0FD10C48E6
:100D4000C1F38343C903C05C0AD55168084AC1F3A3
:100D50004041921E515C054A5043B0FBF1F0704790
:100D600004494843704700000010024000127A0016
:100D70001E4E000800093D002DE9F84F040070D018
:100D80002078C04DC00749D06868C0F381000128B1
:100D900007D06868C0F38100022809D16868C003E1
:100DA00006D52868800339D560680028E7D035E08B
:100DB0006068B0F5803F0BD010B1B0F5A02F11D016
:100DC000286820F480302860286820F4802002E021
:100DD000286840F480302860606890B1FFF700FE1A
:100DE00006460AE0286840F480202860F0E700BF4B
:100DF000FFF7F6FD801B642873D828688003F7D5B9
:100E00000CE0FFF7EDFD064605E000BFFFF7E8FD4B
:100E1000801B6428F0D828688003F7D420789A4E85
:100E200080074FF001094FF0000839D5686810F0CD
:100E30000C0F07D06868C0F38100022809D16868E8
:100E4000C00306D42868800714D52069012808D17A
:100E500010E02069B0B1C6F80090FFF7C1FD074669
:100E600005E00AE1FFF7BCFDC01B0228C4D82868D2
:100E70008007F7D52868616920F0F80040EAC100D2
:100E800028600DE0C6F80080FFF7AAFD074604E0E1
:100E9000FFF7A6FDC01B022823D828688007F7D4D7
:100EA000207800072CD57948A169D9B1C0F8009005
:100EB000FFF796FD074604E0FFF792FDC01B0228EE
:100EC0000FD8686A8007F7D571484FF4FA51006867
:100ED000B0FBF1F0009000BF0098411E0091FAD2E3
:100EE0000EE080E0C0F80080FFF77AFD074604E0DE
:100EF000FFF776FDC01B022875D8686A8007F7D413
:100F00002078400760D5E8690027C00008D4E86968
:100F100040F08050E861E869012700F080500090BF
:100F20005C480168C90513D40168834641F48071A7
:100F30000160FFF755FD824606E000BFFFF750FD58
:100F4000A0EB0A0064284ED8DBF80000C005F5D5F8
:100F5000E06801280AD008B1052813D0286A20F0DB
:100F600001002862286A20F0040002E0286A40F0AC
:100F700001002862E06841F2883B98B1FFF730FD3C
:100F800082460BE0286A40F004002862EEE700BFCA
:100F9000FFF726FDA0EB0A0159455AD8286A8007B9
:100FA000F6D50CE0FFF71CFD824605E0FFF718FDC3
:100FB000A0EB0A0159454CD8286A8007F6D41FB126
:100FC000E86920F08050E861E06988B36968C1F39E
:100FD0008101022944D00228C6F8608004D0FFF7BE
:100FE000FFFC044638E034E0FFF7FAFC074604E073
:100FF000FFF7F6FCC01B02282BD828688001F7D425
:10100000206AB0F5803F05D16868A16820F40030FF
:1010100008436860D4E908010843696821F4741141
:1010200008436860C6F86090FFF7DAFC044606E003
:1010300025E000BFFFF7D4FC001B022809D8286870
:101040008001F7D51BE000BFFFF7CAFC001B022898
:1010500002D90320BDE8F88F28688001F4D40EE09F
:101060000128F7D06868226A00F48031914204D1E7
:10107000616A00F47010884201D00120EAE7002084
:10108000E8E70000001002400000424280044242B3
:1010900024000020007000407047704710B590F8A1
:1010A0003C20012A22D0012280F83C20CA688C68AA
:1010B00022F4407222434C6822F4806222430C687E
:1010C00022F4006222430C6922F4805222434C69CC
:1010D00022F400522243C969002322F480420A43C9
:1010E00001684A6480F83C30002010BD022010BD29
:1010F00070B590F83C20012A26D0012480F83C40AD
:10110000022280F83D2003685A689D6822F070062C
:101110000A6832435A600D4B02689A4208D0B2F115
:10112000804F05D00A4B9A4202D00A4B9A4204D112
:10113000496825F080031943916080F83D40002103
:1011400080F83C10084670BD022070BD002C0140A4
:10115000000400400008004010B5040003D094F8DB
:101160003D0010B107E0012010BD002084F83C00D4
:10117000204600F01FF8022084F83D00211D206861
:1011800000F074FE012084F8460084F83E0084F8E4
:101190003F0084F8400084F8410084F8420084F85D
:1011A000430084F8440084F8450084F83D000020A2
:1011B00010BD000008B500680649884208D10648FD
:1011C000816941F400618161806900F400600090F0
:1011D00008BD0000002C01400010024090F83D10B6
:1011E000012901D001207047022180F83D100168DB
:1011F000CA6842F00102CA6000680B49884208D000
:10120000B0F1804F05D00949884202D00849884290
:1012100004D1816801F00701062903D0016841F07B
:101220000101016000207047002C014000040040D3
:101230000008004070B5044690F83C0000250128E5
:1012400017D0012684F83C60022084F83D00206815
:10125000826822F0770222F47F4282600868502878
:1012600038D00DDC20284FD005DC90B3102811D1E8
:101270004AE0022070BD302846D040280AD13BE029
:1012800060282FD070280DD0B0F5805F03D0B0F566
:10129000005F12D0012584F83D60002084F83C00F6
:1012A000284670BDCB68D1E90121206800F027FEF7
:1012B0002068816841F0770109E0CB68D1E901211C
:1012C000206800F01CFE2068816841F48041816044
:1012D000E1E719E0CA684968206800F0C5FE5021BE
:1012E000206806E0CA684968206800F0CEFE6021E8
:1012F000206800F00EFECEE7CA684968206800F05A
:10130000B3FE40212068F4E7226801461046F0E76A
:1013100070472DE9F04104460068C66805694FF042
:101320000007A90713D5B10711D5F91E01610120E6
:101330002077206880698007204602D0FFF7E8FF09
:1013400004E000F0A5F8204600F037F92777680799
:1013500016D5700714D521686FF0040008610220CB
:1013600020772068806910F4407F204602D0FFF784
:10137000CFFF04E000F08CF8204600F01EF927773C
:10138000280715D5300713D521686FF008000861CC
:10139000042020772068C0698007204602D0FFF72C
:1013A000B7FF04E000F074F8204600F006F9277754
:1013B000E80616D5F00614D521686FF01000086114
:1013C000082020772068C06910F4407F204602D0B2
:1013D000FFF79EFF04E000F05BF8204600F0EDF818
:1013E0002777E80708D0F00706D021686FF00100E2
:1013F0000861204600F030F9280608D5300606D5E9
:1014000021686FF0800008612046FFF745FE6806FE
:1014100008D5700606D521686FF0400008612046A7
:1014200000F021F9A8060AD5B00608D521686FF0AA
:10143000200008612046BDE8F041FFF72EBEBDE860
:10144000F081000000B585B000210091019102916A
:10145000039100680B49884212D10B48816941F021
:10146000040181618069694600F0040004904FF432
:10147000807000900220019003900448FFF7BAF9B1
:1014800005B000BD002C01400010024000080140E2
:10149000704770B5044690F83C0000260D460128C0
:1014A0000FD0012084F83C006AB1042A1DD0082A1C
:1014B0002FD00C2A3FD00126002084F83C00304673
:1014C00070BD022070BD206800F02CFD206881698D
:1014D00041F0080181612068816921F00401816186
:1014E000206881692A69114311E0206800F042FDFB
:1014F0002068816941F4006181612068816921F47B
:1015000080618161206881692A6941EA02218161E3
:10151000D2E7206800F05AFD2068C16941F0080157
:10152000C1612068C16921F00401C1612068C169FD
:101530002A69114311E0206800F074FD2068C16938
:1015400041F40061C1612068C16921F48061C16119
:101550002068C1692A6941EA0221C161ACE710B57E
:10156000040003D094F83D0010B107E0012010BD45
:10157000002084F83C00204600F01EF8022084F889
:101580003D00211D206800F071FC012084F8460018
:1015900084F83E0084F83F0084F8400084F841005D
:1015A00084F8420084F8430084F8440084F845003D
:1015B00084F83D00002010BD7047704710B5044608
:1015C000022249B104290ED0082913D094F8410011
:1015D000012816D0012010BD94F83E000128F9D151
:1015E00084F83E200FE094F83F000128F2D184F8FF
:1015F0003F2008E094F840000128EBD184F8402017
:1016000001E084F841200122206800F06BFC0F49C2
:101610002068884203D1426C42F400424264206850
:10162000884208D0B0F1804F05D00949884202D0E5
:101630000849884204D1816801F00701062903D0D6
:10164000016841F001010160002010BD002C014043
:1016500000040040000800400068B0F1804F01D154
:10166000FFF7C4B97047704770477047F8B5016815
:1016700004460868CA684B6910F00F0F4FF0000568
:1016800059D003F0010602F49077374365D0C107C3
:1016900005D0D10503D5616C41F0010161644107BA
:1016A00005D5D90703D0616C41F00201616481075F
:1016B00005D5D90703D0616C41F0040161640107CD
:1016C00007D502F02001314303D0616C41F00801DD
:1016D0006164616C00293AD0800604D5900602D579
:1016E000204600F0BEFD20684069616CC0F38010A8
:1016F000090700D460B3204600F07EFD20684069F1
:10170000400621D52068143050E8001F21F0400128
:1017100040E80012002AF5D1E06BA8B16D494163A1
:10172000E06BFEF7F9FE002811D0E06B416B01B0D1
:10173000BDE8F040084783060FD593060DD5204637
:10174000BDE8F84000F08DBD2046FFF78EFFF8BDE4
:101750002046FFF78AFF6564F8BD266B2023012E23
:101760007CD1C6067AD5D60678D508684868009038
:1017700048694FF00206400640D5E16B08684068B2
:101780000004000CE8D0A28D8242E5D9E08588698A
:1017900020282DD020680C3050E8001F21F48071E3
:1017A00040E80012002AF5D12068143050E8001FEC
:1017B00021F0010140E80012002AF5D12068143020
:1017C00050E8001F21F0400140E80012002AF5D146
:1017D00084F84230256320680C3050E8001F21F067
:1017E000100140E80012002AF5D1E06BFEF770FE10
:1017F0006663A08DE18D401A81B22AE0A08DE18D53
:10180000401A81B2E08D0028A6D00029A4D0226819
:101810000C3252E8000F20F4907042E80007002FCD
:10182000F5D12068143050E8002F22F0010240E882
:101830000027002FF5D184F84230256320680C3052
:1018400050E8002F22F0100240E80023002BF5D1D1
:1018500066632046FFF708FFF8BDFFE705062BD5B6
:10186000150629D594F841002128F5D1A068B0F5D6
:10187000805F01D12069B0B1206A411C21622168DA
:1018800000784860E08C401E0004000CE084E3D146
:101890002068C16821F08001C1602068C16841F002
:1018A0004001C160D8E7206A0088C0F308004860A2
:1018B000206A801C2062E5E74006CDD55006CBD5D6
:1018C000CA68204622F04002CA6084F8413000F025
:1018D0003FF9C1E7AF20000870B5040004D094F8C8
:1018E0004100002510B106E0012070BD84F8405091
:1018F000204600F023F8242084F841002068C168C5
:1019000021F40051C160204600F00CFD20680169FF
:1019100021F4904101612068416921F02A0141616F
:101920002068C16841F40051C1606564202084F8DA
:10193000410084F842006563002070BDF0B585B0B9
:1019400000240646009401940294039400682D49F3
:10195000884255D12C48816941F480418161816977
:1019600001F480410491816941F004018161806941
:10197000264D00F0040004904FF400700090022007
:1019800001900320039069462846FEF733FF28158F
:10199000CDE90004694628460294FEF72BFF1D4D51
:1019A0001B488027C5E90004C5E9024720202C61B7
:1019B000C5E905402846EC61FEF7A4FE08B1FEF734
:1019C00085FDF5636E62134D11484435143801C529
:1019D000102091C50F4845F8104944306C61AC6146
:1019E000EC61FEF78FFE08B1FEF770FDB5630022D3
:1019F000052125206E62FFF791F82520FFF780F87A
:101A000005B0F0BD00380140001002400008014060
:101A1000580002403803002090F84230202B01D0BB
:101A20000220704721B11AB10023036300F0D6BC35
:101A300001207047704770472DE9F843044690F83D
:101A40004100984616460D46202802D00220BDE8E7
:101A5000F88385B17EB100206064212084F84100C4
:101A6000FEF7BEFFA6848146E684A0682027B0F575
:101A7000805F02D003E00120E9E7206910B12E4623
:101A800000250EE000260CE08021204600F0EEFC50
:101A9000A8B9C6B116F8010B21684860E08C401E59
:101AA000E084E08C4B464FF00002CDF80080002827
:101AB000EAD14FF04001204600F0D8FC40B184F854
:101AC00041700320C3E735F8020BC0F30800E3E7D9
:101AD00084F841700020BAE770B5044690F84100E0
:101AE000202801D0022070BD49B342B32162A284F4
:101AF000E28400206064212384F84130A56B114BFF
:101B0000AB62A56B104BEB62A56B104B2B63A36B09
:101B10005863256813462A1DA06BFEF721FE216835
:101B20006FF0400008602068143050E8001F41F05A
:101B3000800140E80012002AF5D1002070BD01208C
:101B400070BD0000AD210008EF210008BF20000893
:101B500070477047FEE700000D4808B5416941F045
:101B6000010141614069002200F00100009005215F
:101B70000E20FEF7D3FF0E20FEF7C2FF0022052144
:101B80000F20FEF7CBFFBDE808400F20FEF7B8BFDF
:101B90000010024010B5074A0021074801F0A2F8E2
:101BA000064C044A002120602432054801F09AF8CE
:101BB000606010BDD44D0008391D000810000020E1
:101BC000A51D000870B586B0002418480094019443
:101BD00002940394816941F010018161816901F0EF
:101BE00010010491816941F020018161816901F056
:101BF00020010491816941F00401816180690C4EEA
:101C000000F004004FF400550490002229463046AD
:101C1000FEF7E0FE01200095CDE9010402200390CB
:101C200069463046FEF7E6FD06B070BD0010024082
:101C30000010014010B596B000240F941094119438
:101C4000129413941C2108A81494FEF756FB20212B
:101C50006846FEF752FB28482649016040F2CF2132
:101C6000C0E901146321C0E9031444618461FFF7F2
:101C700073FA08B1FEF72AFC4FF480500F900FA9B9
:101C80001D48FFF7D7FA08B1FEF720FC1A48FFF706
:101C900066FC08B1FEF71AFC139413A916481494B5
:101CA000FFF726FA08B1FEF711FC6020CDE9080421
:101CB0000A940B940C940D94002208A90E480E94DB
:101CC000FFF7E7FB08B1FEF701FC00944FF400506A
:101CD000CDE90440029401940394694606480794B0
:101CE000FFF7DCF908B1FEF7F1FB0348FFF7AAFBA9
:101CF00016B010BD002C0140A80200200C4810B501
:101D00000A4901604FF4E1314160002181600C22F9
:101D1000C160C0E904128161C161FFF7DDFD0028E7
:101D200003D0BDE81040FEF7D1BB10BD0038014024
:101D3000F0020020FEE7FEE7154FDFF85880DFF8DD
:101D40005890164D164E0024600002F0ACFD3A4645
:101D5000434602F0D3FD00224B4602F01DFC01F089
:101D600051FC00222B4602F0C9FD00222B4602F056
:101D700063FB02F069FD316848630A20FEF728FD25
:101D8000641C642CE0DB6420FEF722FDDBE700002E
:101D90006F1283C0CA210940000059400000494029
:101DA000A80200200B4C0C4F0C4D0026207860B18F
:101DB000267038880A4982B20848FFF78DFEE86B22
:101DC0000068016841F0010101601420FEF700FD88
:101DD000ECE700000C00002004000020F0020020CE
:101DE000A800002010B54FF0E020006902F06EF965
:101DF000012803D0BDE8104001F09CBE10BD30B5F5
:101E00008FB028216846FEF778FA14210AA8FEF759
:101E100074FA01210804CDE900100024029402257F
:101E20000491CDE907504FF4E01009906846FEF7A1
:101E3000A3FF08B172B6FEE70F20CDE90A054FF403
:101E40008060CDE90C4002210AA80E94FEF798FEAE
:101E5000002801D072B6FEE70FB030BD7047000019
:101E60000148FFF756BA0000C0030020F0B5026831
:101E7000194B1A4C1A4D4FF08047984205D0B84282
:101E800003D0A04201D0A84203D122F070064A68D4
:101E90003243984205D0B84203D0A04201D0A842B4
:101EA00003D122F44074CA6822434C6922F08002B4
:101EB000224302608A68C2620A688262984201D143
:101EC00009690163012141610169C90703D0016901
:101ED00021F001010161F0BD002C0140000400402F
:101EE0000008004010B501F01F030121046A994069
:101EF0008C430462016A9A401143016210BD10B51F
:101F0000846842EA032224F47F440A432243826025
:101F100010BD826822F070020A4342F0070181601E
:101F20007047000030B5036A026A22F001020262C3
:101F30004268846924F073050C682C4323F0020581
:101F40008B682B430A4DA8420BD123F00805CB68C0
:101F500022F440722B434D6923F0040315438A6930
:101F60002A434260846149684163036230BD0000D6
:101F7000002C014030B5026A036A23F010030362AB
:101F8000436884690D6824F4E64444EA05248D68B6
:101F900022F0200242EA05120B4DA8420ED1CD6874
:101FA00022F0800242EA05124D6923F4406343EABD
:101FB00085038D6922F0400243EA85034360846112
:101FC00049688163026230BD002C014030B5036A6C
:101FD000026A22F4807202624268C46923F40073C8
:101FE00024F073050C682C438D6843EA05230C4DDF
:101FF000A8420ED1CD6823F4006343EA05234D695E
:1020000022F4405242EA05128D6923F4806342EAC9
:1020100005124260C4614968C163036230BD0000BB
:10202000002C014030B5046A026A22F48052026238
:102030004268C3690D6823F4E64343EA05238D68CB
:1020400024F4005444EA0534064DA84204D14D69F5
:1020500022F4804242EA85124260C3614968016409
:10206000046230BD002C014010B5036A046A24F0FC
:1020700001040462846924F0F00444EA021423F0A9
:102080000A020A438461026210BD10B5036A046A41
:1020900024F010040462846923F0A00324F4704443
:1020A00044EA023243EA01118261016210BD10B5B7
:1020B000406A0021C185C184FFF7D7FA10BD70B511
:1020C000446A2068406994F84110C0F3C0100025AC
:1020D000212904D118B1E584204600F0B4F8206825
:1020E000406994F84210C0F38010222904D118B13D
:1020F000E585204600F080F8606C40F010006064D8
:102100002046FFF7B2FA70BD10B50146406A096873
:1021100009684FF0000289062ED4C28501680C318F
:1021200051E8003F23F4807341E80034002CF5D1DE
:102130000168143151E8003F23F0010341E8003405
:10214000002CF5D10168143151E8003F23F0400321
:1021500041E80034002CF5D1202180F84210016BB9
:10216000012909D101680C3151E8003F23F0100327
:1021700041E80034002CF5D14263016B012902D003
:10218000FFF758FC10BD818DFFF76EFA10BD10B53A
:10219000406A01214163016B012902D0FFF74BFC2A
:1021A00010BD818D4908FFF75FFA10BD10B50146DB
:1021B000406A09680968890616D40021C18401684B
:1021C000143151E8002F22F0800241E80023002B57
:1021D000F5D101680C3151E8002F42F0400241E88E
:1021E0000023002BF5D110BDFFF7B2FC10BD10B5D8
:1021F000406AFFF7AEFC10BD01680C3151E8002FBA
:1022000022F4907241E80023002BF5D101681431CB
:1022100051E8002F22F0010241E80023002BF5D104
:10222000016B012909D101680C3151E8002F22F01E
:10223000100241E80023002BF5D1202180F8421044
:1022400000210163704701680C3151E8002F22F032
:10225000C00241E80023002BF5D1202180F8411075
:10226000704708B590F84210222901D0022008BD1D
:1022700082684FF480539A4201D1016921B1816A89
:102280009A421BD04AB10AE00268816A5268C2F3DE
:1022900008020A80816A891C08E0026972B102683A
:1022A000526802F07F020A70816A491C8162C18D06
:1022B000491E0904090CC18503D01BE0026852685D
:1022C000F1E70168CA6822F02002CA600168CA68A2
:1022D00022F48072CA6001684A6922F001024A61F0
:1022E000202180F8421000214163026B012A03D0B3
:1022F000FFF7A0FB002008BD016301680C3151E825
:10230000002F22F0100241E80023002BF5D10168D4
:102310000A68D20602D50A6849680091818DFFF7E4
:10232000A3F9E7E770B5044600680169E26821F4A3
:102330004051114301612169A06808436169084364
:102340002168CA6841F20C639A430243CA6020685C
:102350004169A26921F44071114341611E4920681D
:10236000884202D1FEF7D2FC01E0FEF7BFFC00EB91
:10237000C00101EB0012606864218000B2FBF0F341
:10238000B3FBF1F36FF018067343B2FBF0F5B2FB49
:10239000F0F605EB8305322303EB0515B5FBF1F5EC
:1023A000B6FBF1F605F0F00505EB0615B2FBF0F60D
:1023B000B2FBF0F0B0FBF1F06FF01802504306EB07
:1023C000800003EB0010B0FBF1F0216800F00F007B
:1023D0002844886070BD00000038014038B5816233
:1023E00004468285002013466064222284F842203D
:1023F000E56B1B4AAA62E56B1A4AEA62E56B1A4A68
:102400002A63E26B50630A462168E06B091DFEF700
:10241000A7F92068016840680090206948B12068E9
:102420000C3050E8001F41F4807140E80012002A8F
:10243000F5D12068143050E8001F41F0010140E858
:102440000012002AF5D12068143050E8001F41F036
:10245000400140E80012002AF5D1002038BD0000FC
:10246000092100088F210008BF2000082DE9F8434A
:10247000984617460D460446089E24E0701C22D05C
:10248000FEF7AEFAA0EB0800B0421AD8CEB1206831
:10249000C168490717D5802D15D0402D13D001688C
:1024A000C94309070FD40168002540680090204601
:1024B000FFF7A2FE0820606484F840500120BDE8C8
:1024C000F8830320FBE72068006835EA000004D0A9
:1024D0000020B842D2D00020F1E70120F9E7000047
:1024E0002DE9F801234801680A68D243D2063CD49A
:1024F0000A6849680091C16B09680A6822F0010204
:102500000A60C06B006840681D4AC0F580731A48B5
:1025100003601A481468016821440160FF2902D948
:10252000A1F5807101608B42A3EB010001D800F599
:102530008070106012680846124B134C4FF480757F
:102540000A440DE0FF2801DC1E5C06E0A84206DD1F
:102550001E18A6F5805696F8006F471AE655401CDF
:102560008242EFD8094901200870BDE8F80101480E
:10257000FFF77CB8F00200200800002000000020D7
:1025800004000020A8010020A80000200C0000206A
:10259000FEE7490050EAC12018BF04204A0D18BFC9
:1025A00040F0010040F2FF72B2EB515F08BF40F013
:1025B0000200012808BF052070470907090E0028FE
:1025C00004DB00F1E02080F80014704700F00F00F9
:1025D00000F1E02080F8141D704700002DE9F74F4E
:1025E000144694B00021C4E902111599079121F015
:1025F0000045C9498D4206DC1599C4E9000117B0B0
:102600000020BDE8F08FC549DFF814A3A9423CDDE6
:102610000799C44E0029C44FC44A1599534619DD81
:1026200002F076FA554506D0C14AC24B02F070FA64
:10263000C4E900010AE04FF0D352BE4B02F068FA41
:1026400032463B4602F064FAC4E9000117B00120AB
:10265000BDE8F08F01F0F0FE554506D0B44AB54B09
:1026600001F0EAFEC4E900010AE04FF0D352B14B99
:1026700001F0E2FE32463B4601F0DEFEC4E9000115
:1026800017B04FF0FF30BDE8F08FAB49A942159964
:1026900078DB21F0004183468846A84AA84B02F027
:1026A0002DF90022A74B01F0C7FE02F0CDF80990EA
:1026B00002F0F9F806460F469C4A534602F01EF90E
:1026C00043465A4602F018FA80468A46984A994B81
:1026D0003046394602F012F92A0D01250B92424686
:1026E000534602F009FA032DC4E9000139D00B98D2
:1026F000C1F30A51401A05EB45111139814230DA14
:102700009148C346784400EB0510CDF80CA00C901E
:10271000D0E900233046394602F0F0F802460B4675
:10272000049106905846039902F0F2F980468A46D1
:1027300002460B465846039902F0EAF9049B069AB2
:1027400002F0E6F983460C9803913946D0E902235A
:10275000304602F0D3F85A46039B02F0D9F96D1CBB
:10276000BDE707980028A2BF099817B0BDE8F08F11
:10277000616881F000416160099817B04042BDE88E
:10278000F08FFFE784461598C1F31301C0F30A5098
:10279000A0F2F5304FEA601800F01F06C6F12000E5
:1027A000139000200690079041F4801E05206D468E
:1027B00076B1664A08EB00017A4452F8213002EB08
:1027C0008101B3404A68139922FA01F1194305E0E7
:1027D0005F4908EB0002794451F82210A1FB0E2753
:1027E000A1FB0C131A449A4234BF0123002303EBCC
:1027F000070A05EB8003D3E901B70F448F4234BFCA
:102800000121002193448B4411B1934502D903E087
:10281000934501D2012100E00021C3E901B75144F1
:1028200045F82010011EA0F10100C1DC0298059FAF
:1028300000F10050800F12900298DDE903568000ED
:1028400002F031F8834628460D9102F043F86FF00C
:102850001D0202F079FACDE90E01304602F03AF895
:102860006FF03D0202F070FA80468A46384602F068
:1028700031F86FF05D0202F067FA074642465346B0
:10288000119101F0D9FDDDE90E2301F0D5FD5A4685
:102890000D9B01F0D1FD00250E465A4628460D9BA2
:1028A00002F036F9DDE90E2302F032F942465346D2
:1028B00002F02EF93A46119B02F01EF9DFF898A0BB
:1028C000244A534602F01AF807468846234A244B06
:1028D0003146284602F012F83A46434601F0ACFD74
:1028E000074688464FF0A84253463146284602F034
:1028F00005F83A46434601F09FFD159A12F0004F45
:1029000004D0129A81F0004152421292C4E90001AF
:10291000129817B0BDE8F08FFB21E93F7CD9024047
:10292000FB21F93F7370032E8A19A33B000040542A
:102930003163621A61B4D03DFB21394183C8C96D4E
:10294000305FE43F0000E03F70270000EC2600000D
:10295000CE260000182D4454FB21F93D3326A61144
:10296000460B113C2DE9FF4D21F0004807460C466F
:10297000B8F1795F08DA01F067FF002801BF002095
:10298000324904B0BDE8F08D3A4623461046194658
:1029900001F0B4FF054602462D480E460B460621BF
:1029A000784400F05DF82A46334601F0A7FFDDE9E0
:1029B000022382468B463846214601F09FFF04469B
:1029C0000F4652465B462846314601F097FF2246A5
:1029D0003B4602F09DF807468A464FF0FF322846F4
:1029E000314602F0B1F91B4A90450ADA3A4653469D
:1029F00002F08EF804B00022BDE8F04D134B02F057
:102A00007BB8154A4245A8BFA8F500154FF0000451
:102A1000B8BF124D22462B4602F07AF80646884689
:102A200022462B460020094902F072F804460D4662
:102A30003A4653463046414602F06AF804B0224610
:102A40002B46BDE8F04D02F057B800000000F03F03
:102A5000A42400003333D33F0000E93F0000D23FFD
:102A60002DE9F0414F1E00EBC7010446D1E90001FA
:102A700015461E4637F006020DD02A46334601F0B1
:102A80003DFF7F1E04EBC703D3E9002301F0D4FC14
:102A900037F00602F1D1022F25D0042F13D0062FD4
:102AA00018BFBDE8F0812A46334601F027FFD4E97C
:102AB0000A2301F0C1FC2A46334601F01FFFD4E986
:102AC000082301F0B9FC2A46334601F017FFD4E988
:102AD000062301F0B1FC2A46334601F00FFFD4E98A
:102AE000042301F0A9FC2A46334601F007FFD4E98C
:102AF000022301F0A1FC2A46334601F0FFFED4E98F
:102B00000023BDE8F04101F097BC00002DE9FF4D26
:102B1000054621F0004084B00C46B0F1795F0BDA35
:102B20002846FFF736FD042808BF00F06FF8284656
:102B300008B02146BDE8F08D2A460B46104601F04C
:102B4000DDFE06460F462A46234601F0D7FE8046A4
:102B500026488A4632463B4605217844FFF780FFE7
:102B600083461098029160B3214A224B4046514659
:102B700001F0C4FECDE900015A4640465146029B91
:102B800001F0BCFE82468846DDE906014FF0FF32C7
:102B900002F0DAF85246434601F0BAFF32463B46AD
:102BA00001F0ACFEDDE9062301F0B2FFDDE9002310
:102BB00001F0AEFF08B02A462346BDE8F04D01F013
:102BC0009BBF0B465A463046394601F097FE084AED
:102BD000084B01F031FC4246534601F08FFE08B02D
:102BE0002A462346BDE8F04D01F026BCE223000052
:102BF000495555555555C5BF012202F0A5B80022CB
:102C000013461046114601F0C7BC0000024A0020DE
:102C1000110702F099B8000001FDFFFFFDF7EEFE7D
:102C2000FFF7EDF8FEF7CEFFFEF796FFFFF702F88D
:102C3000FFF764F800210E48FEF7C0FC4FF48072E5
:102C40000C490D48FEF7E8FE0B480068C16841F0EA
:102C50001001C16064230B2208A10748FEF7ECFEB7
:102C600000F012F8FEF796FF00F020F8FEE70000F3
:102C7000A8020020A8010020F002002053797374FC
:102C8000656D4C696E6B0A00EFF3058010B16FF053
:102C9000050070470448016811B14FF0FF307047DC
:102CA00001210160002070477800002010B5EFF38B
:102CB000058010B16FF0050010BD084801680129BA
:102CC00002D04FF0FF3010BD054A002182F8141DDC
:102CD0000221016000F05CFE002010BD78000020A1
:102CE0000BE000E02DE9FF414FEA01034FF0000542
:102CF000EFF30581039549BB40B3802718210024D9
:102D00004AB3166806B1344696691EB13146761E3E
:102D1000382E02D21679F60703D0002004B0BDE8A1
:102D2000F081566906B1B708D2F808C0BCF1000FAF
:102D30000DD0D5685C2D18D312693AB136B18DE843
:102D400006103A46214601F096F903900DE0D66848
:102D50005EB912694AB903AACDE90012BAB2214696
:102D600001F05CF9012800D003950398D6E7000034
:102D70002DE9F041134C0F460546E6682068001D1A
:102D800000F090FC681C07D137B12168BDE8F04124
:102D90000D48091D00F0D6BC20683544B542456099
:102DA000216805D2A06BBDE8F041091D00F0B2BC5E
:102DB000606B091D00F0AEFCA06A854200D2A562DE
:102DC000BDE8F08128000020F80800202DE9F0413E
:102DD000054600F0C3FC2D4CA068401CA060206894
:102DE0002B4F10B1606930B32BE02560A06801283B
:102DF00027D1002606EB860007EB800000F07CFC64
:102E0000761C382EF6D3234800F076FC2148143087
:102E100000F072FC1F48283000F06EFC1D483C306A
:102E200000F06AFC1B48503000F066FC19486063F3
:102E30001430A06305E02068E96AC06A884200D8BF
:102E40002560606A401C60626864E86A21698842A3
:102E500000D9206100EB800007EB8000291D00F005
:102E600071FC00F09BFC606900280CD02068E96AC6
:102E7000C06A884207D208494FF080500860BFF30B
:102E80004F8FBFF36F8FBDE8F08100002800002056
:102E900048040020A808002004ED00E038B500F048
:102EA0005DFC104C2068C8B90F4800F025FC0E48A6
:102EB000143000F021FC0C48E060143020610A4B13
:102EC0000020F03B009003F1500210210A2000F096
:102ED00047FE206010B105A100F0E2FCBDE83840DB
:102EE00000F05CBC64000020FC090020546D7251AD
:102EF0000000000030B4026C0B46002A0BD0C16801
:102F00001144C1608468A14201D30168C16030BC32
:102F10001846FDF7A5B930BC70472DE9F041856B27
:102F2000174604460026026C82B1C7B1E068FDF77F
:102F300097F9E168206C091AE1602268914202D297
:102F4000A168081AE060022F16D017E02068A8B91F
:102F5000A06801F033F906460020A0600EE060682A
:102F6000FDF77EF9216C606808446060A1688842C2
:102F700004D32068606001E005B16D1E6D1CA5637F
:102F80003046BDE8F08110B5044690F8590058B1BC
:102F900001280CD002280FD0502080F31188BFF3F5
:102FA0004F8FBFF36F8FFEE7206B00F00BFC2046C6
:102FB000BDE8104000F006BC10BD000010484FF402
:102FC0004061420706D0C01D0D4920F00700411A9C
:102FD000C1F540610B4A00230144C2E900030839EE
:102FE000183A21F0070111604B600B600B1AC0E921
:102FF000001393604FF00040536050617047000031
:10300000DC10002094000020144E154CA6F29C47C2
:103010004FF08058DFF84C9012E000BF00F09EFBAC
:10302000F068C568281D00F03DFBA068401EA06048
:103030006068401E606000F0B1FB2846FFF7A3FF08
:1030400060680028EAD138680128F9D9C9F80080F9
:10305000BFF34F8FBFF36F8FF2E70000E40800204B
:103060002800002004ED00E070B51D46049C51B11D
:10307000C4F80020C4E90F010121204600F0A4FD9E
:1030800084F84C5070BD2460F4E700002DE9F05F37
:103090008846DDE90B941546834691009A460A9EC0
:1030A000A522206BFDF721F96FF00301206B01EBE6
:1030B0008501084420F00707780707D0502080F3E7
:1030C0001188BFF34F8FBFF36F8FFEE70025B8F174
:1030D000000F0FD05FF00000221818F8001082F8DF
:1030E000341018F8001011B1401C1028F4D384F8E3
:1030F000435001E084F83450382E00D33726E6627E
:10310000C4E91365201D00F002FB04F1180000F073
:10311000FEFA2461C6F138006462A061656584F836
:10312000585052465946384600F05AFA2060B9F1D4
:10313000000F01D0C9F80040BDE8F09F30B511493B
:1031400000E011460A688242FBD34B685C18844257
:1031500003D1406818444860084643681C189442EC
:1031600009D1084C183C2468A24209D052681A447C
:1031700042600A6812680260814200D0086030BD77
:103180000460F9E79400002070B5002441600B4D05
:103190000061914206D8D11A8269914206D2011D7E
:1031A000286907E09A4203D2994201D3012403E03F
:1031B000011DE86800F0AEFA204670BD64000020F2
:1031C00010B5044600F0CAFAA06B28B15FF0000405
:1031D00000F0E4FA204610BD0124F9E730B589B0CB
:1031E0003C4D6EE00498002806DADDE90601059AF8
:1031F00090470498002864DB069C606910B1201D8C
:1032000000F050FA03A800F0D7F8024604980A2804
:1032100057D2DFE800F00505052D334A05052D33AB
:1032200094F8280040F0010084F828000599A0696E
:10323000059B01442046FFF7A7FF68B3216A20469B
:10324000884794F8280040073BD500200090059857
:10325000A169002342181946204601F0B9F8D8B9EF
:10326000502080F31188BFF34F8FBFF36F8FFEE7BD
:1032700014F8280F20F00100207022E094F82800B4
:1032800040F0010084F828000598A06128B1811859
:1032900013462046FFF778FF13E0502080F3118893
:1032A000BFF34F8FBFF36F8FFEE794F828008107BD
:1032B00003D4204600F086FA03E020F0010084F8F1
:1032C0002800002204A9286800F0D2FD002889D136
:1032D00009B030BD640000202DE9FC410F460546D1
:1032E00000F09AFB01A800F067F80446019818B1B5
:1032F00000F0DCFFBDE8FC81254EAFB1306900680D
:10330000D0B30027291B3A46306800F0DDFA00F000
:10331000CDFF0028EED11F494FF080500860BFF369
:103320004F8FBFF36F8FE5E7A542EBD800F0BEFFEC
:10333000F0682746C068C468201D00F0B3F994F80F
:103340002800410719D5A0692B4641193A46204665
:10335000FFF71AFFA8B100200346014600902A4655
:10336000204601F035F860B9502080F31188BFF392
:103370004F8FBFF36F8FFEE707E020F0010084F866
:103380002800216A20468847B4E70127BAE70000F1
:103390006400002004ED00E00648416B096829B193
:1033A000416BC968C9684968816270474FF0FF3155
:1033B000FAE700002800002070B5054600F094FEF2
:1033C000064E0446B068844203D200F009F801209A
:1033D00000E0002028602046B46070BD640000203A
:1033E000F8B5194D20E0C068C4680668201D00F0DB
:1033F00059F9216A2046884794F82800400713D5D8
:10340000A0693044B04206D924616060211DE8689B
:1034100000F080F908E000200346014600903246A3
:10342000204600F0D5FF38B1E86801680029DAD1FC
:103430002969C5E90310F8BD502080F31188BFF356
:103440004F8FBFF36F8FFEE764000020084840688D
:10345000401C4FF0500080F3118804D0BFF34F8F11
:10346000BFF36F8FFEE7BFF34F8FBFF36F8FFEE7A2
:103470009C000020074CE068016841B1C068002151
:10348000D0F80000FFF728FFFFF7A8FEF3E70121BF
:103490000020F7E7640000202DE9F041044600F029
:1034A0005DF994F9455004F1240609E0606A48B1D9
:1034B000304600F0C3FE08B100F030FA6D1E6DB268
:1034C000002DF3DC4FF0FF3684F8456000F066F91C
:1034D00000F044F994F9445004F1100709E0206920
:1034E00048B1384600F0AAFE08B100F017FA6D1E88
:1034F0006DB2002DF3DC84F84460BDE8F04100F0CB
:103500004DB900002DE9F0410546002700F084FA8E
:10351000324E306808B9FFF751FD706905424ED14F
:10352000C5B3083568070ED005F00700C0F10800E4
:103530000544680707D0502080F31188BFF34F8FF0
:10354000BFF36F8FFEE72DB37068854237D82348ED
:10355000183001460C6801E020460C466168A9421B
:1035600002D221680029F7D131688C4227D0076840
:103570002168016060680837411B10290FD9601964
:10358000420708D0502080F31188BFF34F8FBFF35C
:103590006F8FFEE713E041606560FFF7CFFD616864
:1035A0007068401A7060B268904200D2B060706972
:1035B00001430020C4E90001F068401CF06000F005
:1035C00075FE780707D0502080F31188BFF34F8F26
:1035D000BFF36F8FFEE73846BDE8F0817C00002026
:1035E00010B5031F4FF080741C601B1F21F00101F8
:1035F0001960191F024B0B60143940380A6010BD66
:103600004D34000800B5254B21F0004287B09A42A6
:1036100003DC0022134600922BE0214B9A4208D192
:1036200040B94FF00100FCF797FEFFF7E8FA07B04A
:1036300000BD03DBFFF7E0FA07B000BD02AAFEF70A
:10364000CDFF10F003014FF001000DD0012914D07F
:1036500002291AD00DF1080C9CE80F00FFF782F93F
:1036600007B081F0004100BD0DF1080C00909CE80E
:103670000F00FFF74BFA07B000BD0DF1080C9CE8F6
:103680000F00FFF76FF907B000BD0DF1080C0090B7
:103690009CE80F00FFF73AFAE2E70000FB21E93F60
:1036A0000000F07FD0E9013201699A60D0E901237E
:1036B0005A604A68824201D182684A6000220261EF
:1036C0000868401E0860086870470000034B0360EC
:1036D00003F15C000860802010607047240A00201D
:1036E000044B036003F15C0008604FF480701060CD
:1036F00070470000800C002000F108014FF0FF32FD
:10370000C0E90112C1600161002101607047002120
:103710000161704730B50B685A1C02D000F10802F5
:1037200002E0026904E02246546825689D42FAD905
:1037300053684B6099608A60516008610168491C58
:10374000016030BD42684A6093688B60936859603D
:10375000916008610168491C01607047502080F346
:103760001188BFF34F8FBFF36F8F0A494868401C21
:10377000486001280CD10848006810F0FF0F07D0FE
:10378000502080F31188BFF34F8FBFF36F8FFEE798
:10379000704700009C00002004ED00E008494868E4
:1037A00028B1401E486001D180F311887047502035
:1037B00080F31188BFF34F8FBFF36F8FFEE70000D8
:1037C0009C00002070B500282AD0164DA0F10804F6
:1037D00060686969084207D1502080F31188BFF3FF
:1037E0004F8FBFF36F8FFEE722683AB1502080F30E
:1037F0001188BFF34F8FBFF36F8FFEE78843606080
:1038000000F00AF960686968084468602046FFF7BC
:1038100095FC2869401C2861BDE8704000F046BD59
:1038200070BD00007C0000204FF0E020002101610D
:10383000816105494FF47A720968B1FBF2F1491EC2
:1038400041610721016170472400002010B5FCF799
:10385000E3FC114910280ED300F1E02090F8F003AA
:103860000A78904207D2502080F31188BFF34F8F1F
:10387000BFF36F8FFEE709480068896800F4E060D5
:10388000884207D9502080F31188BFF34F8FBFF3D0
:103890006F8FFEE710BD00009C0000200CED00E0E3
:1038A00010B5084B002200BF53F832401CB1521C27
:1038B000082AF9D310BD43F8321003EBC201486067
:1038C00010BD00000804002070B515460E460446E1
:1038D000FFF744FF94F944100020491C01D184F8FB
:1038E000440094F94510491C01D184F84500FFF7C4
:1038F00055FFA06B28B92A46314604F1240000F098
:103900002BF82046BDE87040FFF7C6BD02490A6AA1
:103910000260C96841607047280000200149012009
:10392000C86170472800002010B50C4650B1094905
:1039300009681831FFF7EEFE2046BDE8104001216E
:10394000FFF716BA502080F31188BFF34F8FBFF3F3
:103950006F8FFEE72800002070B514460D4668B151
:103960000A4909681831FFF7EDFE0CB14FF0FF3539
:1039700021462846BDE87040FFF7FAB9502080F391
:103980001188BFF34F8FBFF36F8FFEE72800002031
:1039900030B587B00024039405AA04A903A80494B1
:1039A000FFF794FEDDE903010094CDE90110002347
:1039B00015A11748059A00F05EFB164D0028E86235
:1039C0001FD000F0D5FC012809D0401C19D150208F
:1039D00080F31188BFF34F8FBFF36F8FFEE7502046
:1039E00080F31188BFF34F8FBFF36F8F4FF0FF301D
:1039F000A86201206861EC6007B0BDE8304000F0CB
:103A000045B807B030BD000049444C4500000000F7
:103A100009300008280000200248016B491C01639E
:103A20007047000028000020164810B5016B11B146
:103A30000121C16110BD0021C1610169124A01E08B
:103A4000B9B1491E01EB810352F82330002BF7D0A6
:103A500001EB810302EB830202F1080453685B6807
:103A60005360A34201D15B685360DA680260016170
:103A700010BD502080F31188BFF34F8FBFF36F8FBD
:103A8000FEE7000028000020480400201CB526495D
:103A900008780190FF20087008788DF800009DF8E4
:103AA00000009DF8002000F0F000904207D0502068
:103AB00080F31188BFF34F8FBFF36F8FFEE79DF840
:103AC00000001A4C00F0500020700720A06005E0B4
:103AD0009DF8002052008DF80020401E9DF8002027
:103AE0001206F5D4A060032807D0502080F3118877
:103AF000BFF34F8FBFF36F8FFEE74FF44070A060AE
:103B0000019808700A48016841F470010160016879
:103B100041F070410160FFF787FE00206060FCF714
:103B200045FB00201CBD000000E400E09C000020DC
:103B300020ED00E010B5502080F31188BFF34F8FC7
:103B4000BFF36F8F00F0D6FA18B104494FF08050E0
:103B50000860002080F3118810BD000004ED00E033
:103B600038B5049D18B153B1CAB181B120E05020DD
:103B700080F31188BFF34F8FBFF36F8FFEE75020A4
:103B800080F31188BFF34F8FBFF36F8FFEE7502094
:103B900080F31188BFF34F8FBFF36F8FFEE739B10A
:103BA000502080F31188BFF34F8FBFF36F8FFEE774
:103BB00050241C46012384F846302B460094FFF71E
:103BC00053FA204638BD000070B50D46040025D0DC
:103BD000FFF7C4FDD4E90F20216802FB0011A160AA
:103BE0000021A163216861600A46D4E90F01401EEB
:103BF00000FB0121E16021464FF0FF3001F8440F46
:103C0000487004F110008DB1FFF776FD04F1240037
:103C1000FFF772FDFFF7C2FD012070BD502080F359
:103C20001188BFF34F8FBFF36F8FFEE72169002923
:103C3000F0D000F003FB0028ECD004494FF0805096
:103C40000860BFF34F8FBFF36F8FE3E704ED00E031
:103C50002DE9FF4782B01D468A464FF00008040058
:103C600003D0BAF1000F08D011E0502080F3118882
:103C7000BFF34F8FBFF36F8FFEE7206C38B150203A
:103C800080F31188BFF34F8FBFF36F8FFEE7022DD4
:103C90000AD1E06B012807D0502080F31188BFF3D0
:103CA0004F8FBFF36F8FFEE700F010FA3F4F4FF0DA
:103CB00000094FF0805648B9049838B1502080F37D
:103CC0001188BFF34F8FBFF36F8FFEE7FFF746FDFD
:103CD000A06BE16B884207D3022D05D00498D0B1C8
:103CE000B8F1000F1AD01EE02A4651462046FFF7D1
:103CF00014F9616A19B104F1240000F09FFA20B1AF
:103D00003E60BFF34F8FBFF36F8FFFF747FD01207A
:103D100006B0BDE8F087FFF741FD22E06846FFF7F7
:103D2000F5FD4FF00108FFF739FDFFF775FEFFF7CE
:103D300015FD94F94400401C01D184F8449094F995
:103D40004500401C01D184F84590FFF727FD04A9E8
:103D5000684600F029F930B12046FFF79DFB00F0DE
:103D6000A5FA0020D4E7FFF7F9FCA06BE16B8842CD
:103D700013D1FFF713FD04F110000499FFF7D4FDF0
:103D80002046FFF789FB00F091FA00289ED13E60A3
:103D9000BFF34F8FBFF36F8F98E7FFF7FFFC20460D
:103DA000FFF77AFB00F082FA90E7000004ED00E0F4
:103DB0002DE9F0471F4690468946040003D0B9F12B
:103DC000000F08D011E0502080F31188BFF34F8F0F
:103DD000BFF36F8FFEE7206C38B1502080F311885D
:103DE000BFF34F8FBFF36F8FFEE7022F0AD1E06B57
:103DF000012807D0502080F31188BFF34F8FBFF305
:103E00006F8FFEE7FFF722FD5020EFF3118680F35E
:103E10001188BFF34F8FBFF36F8FA06BE16B8842A8
:103E200006D3022F04D0002086F31188BDE8F08766
:103E300094F94550A06B3A4649462046FFF76DF885
:103E4000681C04D06D1C84F845500120ECE7606AC2
:103E50000028FAD004F1240000F0F0F90028F4D092
:103E6000B8F1000FF1D00121C8F80010EDE7000013
:103E70002DE9F747002683B08A46040003D0BAF143
:103E8000000F08D011E0502080F31188BFF34F8F4E
:103E9000BFF36F8FFEE7206C38B1502080F311889C
:103EA000BFF34F8FBFF36F8FFEE700F00FF9DFF81E
:103EB000F4804FF000094FF0805748B9059838B1A9
:103EC000502080F31188BFF34F8FBFF36F8FFEE751
:103ED000FFF744FCA56BC5B151462046FFF70AF831
:103EE0006D1EA563206950B104F1100000F0A6F921
:103EF00028B1C8F80070BFF34F8FBFF36F8FFFF783
:103F00004DFC012006B0BDE8F087059808B11EB150
:103F100006E0FFF743FC27E06846FFF7F7FC0126C1
:103F2000FFF73CFCFFF778FDFFF718FC94F944001D
:103F3000401C01D184F8449094F94500401C01D103
:103F400084F84590FFF72AFC05A9684600F02CF894
:103F5000002820460AD0FFF79FFA00F0A7F9204674
:103F6000FFF72EF90028B3D00020CBE7FFF728F9A0
:103F700090B104F124000599FFF7D6FC2046FFF725
:103F80008BFA00F093F90028A2D1C8F80070BFF3B3
:103F90004F8FBFF36F8F9BE72046FFF77DFA00F04E
:103FA00085F995E704ED00E02DE9F0410C460500A8
:103FB00011D0C4B1FFF7D2FB174BDA686E682068E6
:103FC000911B471C17D02F681B6A9F4219D096423D
:103FD00017D8012410E0502080F31188BFF34F8FD1
:103FE000BFF36F8FFEE7502080F31188BFF34F8F30
:103FF000BFF36F8FFEE70024FFF7D0FB2046BDE83C
:10400000F081884205D9401A20602846FFF77EFCDF
:10401000F1E700202060DCE7280000202DE9FF5FA9
:104020008346DDE90E87994616468A469000FFF7DB
:1040300069FA05001CD05C20FFF764FA040014D074
:104040000020256384F85900CDE90240CDE90087BE
:104050004B46324651465846FFF718F82046FEF7C1
:10406000B5FE012004B0BDE8F09F2846FFF7AAFB8B
:104070004FF0FF30F6E7F0B585B0DDE90B640A9D3F
:10408000A6B1DCB15C2700972663022684F859604C
:10409000002604AFCDE90246CDE90057FEF7F6FF52
:1040A0002046FEF793FE049805B0F0BD502080F343
:1040B0001188BFF34F8FBFF36F8FFEE7502080F35F
:1040C0001188BFF34F8FBFF36F8FFEE7054841693B
:1040D00019B1006B18B10020704701207047022011
:1040E00070470000280000200148C06870470000A9
:1040F000280000202DE9F0412E4C0027206B28B12C
:10410000A069401CA0613846BDE8F081E668761CD5
:10411000E66013D1606B006838B1502080F31188DD
:10412000BFF34F8FBFF36F8FFEE7606BA16B6163CF
:10413000A063206A401C2062FFF72EF9A06ADFF816
:104140007880864209D3606B0068A0B1606BC0685C
:10415000C5686868864211D2A0622068C06A00EB18
:10416000800158F82100012800D90127E0690028C2
:10417000C9D00127C7E74FF0FF30EDE7281DFFF753
:1041800091FAA86A18B105F11800FFF78BFAE86AEE
:104190002169884200D9206100EB800108EB810091
:1041A000291DFFF7CFFAE86A2168C96A8842CAD395
:1041B0000127C8E7280000204804002070B504004B
:1041C0004FF0000133D01B4D2868844207D05020A7
:1041D00080F31188BFF34F8FBFF36F8FFEE7206D21
:1041E00038B1401E2065E36CE26A9A421FD040B1AC
:1041F0001DE0502080F31188BFF34F8FBFF36F8F06
:10420000FEE7201DFFF74EFAE06CE062C0F13800D7
:10421000A061E06A2969884200D92861064900EB5B
:10422000800001EB8000211DFFF78CFA0121084678
:1042300070BD0000280000204804002070B5C06850
:10424000C46854B104F118000646FFF72BFA144D68
:10425000286B50B13146134815E0502080F3118887
:10426000BFF34F8FBFF36F8FFEE7201DFFF71AFAE2
:10427000E06A2969884200D928610B4900EB800077
:1042800001EB8000211DFFF75DFAE06A2968C96A29
:10429000884202D90120E86170BD002070BD000095
:1042A00028000020D0080020480400202DE9F04715
:1042B0002C4D00242746286B38B1FFF74FFA286BA6
:1042C000401E2863286B40B146E0502080F31188DF
:1042D000BFF34F8FBFF36F8FFEE7A968224E012017
:1042E000D1B3A6F5916980463068E0B1F068C46842
:1042F00004F11800FFF7D6F9201DFFF7D3F9E06AA3
:104300002969884200D9286100EB800109EB81000E
:10431000211DFFF717FAE06A2968C96A8842E3D3CA
:10432000C5F81C80E0E70CB1FFF736F8AC694CB17A
:104330004FEA0806FFF7DEFE00B1EE61641EF9D118
:104340000020A861E86938B10849012738070860EA
:10435000BFF34F8FBFF36F8FFFF720FA3846BDE8EA
:10436000F087000028000020D008002004ED00E0C5
:1043700010B586B0FEF792FD114C2068B8B1002050
:104380000390049005AA04A903A8FFF7A9F9DDE9A1
:10439000032102208DE8070000230AA10B48059A9B
:1043A000FFF769FE606010B106B0012010BD50201B
:1043B00080F31188BFF34F8FBFF36F8FFEE70000CC
:1043C00064000020546D7220537663007534000839
:1043D0002DE9FF411E46134602000A9D4FF00000E2
:1043E00016D0144C2768002F0FD0CDE9001302928D
:1043F000062917DAFFF76AFE02284FF000030FD0F4
:10440000002269462068FFF723FC04B0BDE8F08174
:10441000502080F31188BFF34F8FBFF36F8FFEE7FB
:104420002A46EEE70023324669463846FFF7C0FCCD
:10443000EBE700006400002010B591EA030F48BFCD
:1044400083F0004300F16C83841A71EB030C05D2F6
:10445000121943EB0C03001B61EB0C01DFF824E1A4
:104460004FEA1154A4EB135C1EEA430F18BF9EEAF7
:10447000445F73D023EA0E03DCF1200E21EA0451DD
:1044800043F4801332D322FA0CFE10EB0E0023FA11
:104490000CFE41EB0E01CCF1200E03FA0EFE10EBE8
:1044A0000E0051F10001B1F5801FCCF1200E32D287
:1044B00001EB045112FA0EF2BDE8104058BF7047EC
:1044C000401C38BF5FEA420218BF7047002814BF83
:1044D00020F0010041F100014FEA410313F5001FF4
:1044E00038BF7047A1F1C04100F000BB012A43EB87
:1044F0000302ACF1200CDCF11F0E32BF4FF0000EB6
:1045000023FA0CF310EB030041EB0451B4EB115F01
:10451000D0D0A1EB045101F5801149085FEA3000C9
:1045200001EB04510ED350F1000038BF12FA0EFE19
:1045300008D1BDE81040C9E7401C38BF5FEA42021D
:10454000CAD1C3E7BDE810404FEA410313F5001F8D
:1045500038BF7047A1F1C04100F0C8BA9EEA445F7D
:1045600008D011EA5E0FBDE8104004BF01F0004121
:1045700000207047BDE8104070B500F069FA00BF38
:1045800064FBBE3E0000E0FF02494FF0000000F077
:10459000A9BB00BF0000F87F2DE9C04130B4DFF8AF
:1045A000A0C23CEA111418BF3CEA131400F0EC80DE
:1045B00081EA03051CEA111444EAD57418BF1CEA09
:1045C000131500F0C780A4EB05044FF0004545EA41
:1045D000C12145EAC32341EA505143EA525304F151
:1045E0007F74994204F500344FEAC0204FEAC2229A
:1045F00008BF904200F09C804FEA13650FF240160E
:10460000765D4FEA134506FB05F7C7F1807706FB99
:1046100007F74FEAD737A7FB03687642C8F580381B
:10462000A7FB06CE38BFA8F1010807FB08E64FF04C
:10463000000EA6FB028CE6FB03CEDCF1000CCEF1F3
:10464000004E38BFAEF1010EA6FB0C584FF000072C
:104650004FF00005E6FB0E87A1FB08C6A0FB07CEC6
:1046600016EB0E0645F10005E1FB076515F1E04E7E
:104670007EBFA4F580345FEA46066D4116F18007DF
:1046800045F100054FEA17274FEA066647EA056736
:10469000A6F1DE46B6F1805F4FEA15251FD93846F0
:1046A00024F0010C05EBC471BCF1FE6F01EB0C11A1
:1046B00002D8F0BCBDE8008124425CBF01F5801E39
:1046C0009EEAC47F02D4F0BCBDE80081244238D405
:1046D000F0BCA1F1C041BDE8004100F007BA4FEACB
:1046E000D22242EA43524FEAD323A7FB02864FEA83
:1046F000D02040EA415007FB03661EEA0E0F4FEA46
:10470000D12105FB026658BFA6EB0056B6EB00565A
:104710004FEA520E4EEAC37E18EB0E0E56EB530EC6
:10472000BDD518EB02085E417F1C55F10005B6E7C8
:104730004FF480154FF000074FF000064FF00008CF
:10474000ADE7F0BC4FF0000001F1C04101F00041C5
:10475000BDE8008111EA0C1F0CEA131500D00CE033
:1047600013EA0C1F00F025804FF00000F0BC81EA36
:10477000030101F00041BDE80081F0BCBDE800414B
:1047800081EA030100F0B2B9F0BCBDE8004170B5A8
:1047900000F05EF9097EFC3E00F007B881EA0301F3
:1047A0004FF0000001F00041704781EA030100F082
:1047B0009DB9F0BCBDE800414FF0000021497047B1
:1047C000FFFDFBF9F7F5F4F2F0EEEDEBE9E8E6E4D6
:1047D000E3E1E0DEDDDBDAD8D7D5D4D3D1D0CFCD5D
:1047E000CCCBCAC8C7C6C5C4C2C1C0BFBEBDBCBB96
:1047F000BAB9B8B7B6B5B4B3B2B1B0AFAEADACAB91
:10480000AAA9A8A8A7A6A5A4A3A3A2A1A09F9F9E6A
:104810009D9C9C9B9A99999897979695959493931C
:10482000929191908F8F8E8E8D8C8C8B8B8A8989B3
:104830008888878786858584848383828281818036
:104840000000FF070000F87F4FEA41034FEA53538F
:10485000A3F58063D3F11E03C8BFD3F1210C0CDD97
:104860004FF0004242EAC12242EA505232FA03FCBF
:104870008CEAE17CACEBE1707047102BC4BF0020E8
:10488000704703F5787CBCF1FF3F04D06FF0004225
:1048900082EA2100704770B500F0DAF8499224806E
:1048A00000207047F2E710F0004248BF4042B0FAE3
:1048B00080F310FA03F10AD0C3F11D0303F58063FE
:1048C0004FEA415002EB035202EBD12170474FF007
:1048D00000007047B0FA80F310FA03F10AD0C3F178
:1048E0001D0303F580634FEA41504FEA035202EB88
:1048F000D12170474FF0000070470000DFF848C139
:1049000070B51CEA111E1EBF1CEA13159EEA0C0F9F
:1049100095EA0C0F00F06F8081EA030423EA4C1340
:104920004EEAD47E21EA4C1141F4801143F4801305
:10493000AE44A1FB024CA0FB0365AEF17F7E3619AD
:1049400055EB0C05A1FB034C4CF10003A0FB021C32
:1049500016EB0C06654153F10003094218BF46F0FF
:10496000010613F4007F0BD14FEA03314FEA053003
:10497000340341EA155140EA16506FF003020AE091
:104980004FEAC3214FEAC520F40241EA555140EAFB
:1049900056506FF0020202EB2E4201EB025585EAFF
:1049A000CE710AD05FEA440C18BF24F0004450F1E5
:1049B000000041F1000120EAD47040F2FE7C624523
:1049C00000D270BDA84214BF4FF080444FF0404465
:1049D000002E08BF0024BEF1806FA8BFA1F1C04126
:1049E000BDE8704080F282804FF0000001F1C041CC
:1049F00001F0004170479EEA0C0F0CEA131518BF36
:104A000095EA0C0F06D04FF0000081EA030E0EF07D
:104A1000004170BD00F01CF88900013E00F007B8AD
:104A200000F009B84FEA430C5FEA5C5C08D081EA09
:104A3000030100F05BB84FEA410C5FEA5C5CF6D121
:104A40004FF00000014970470000FF070000F87FA9
:104A50000EF1020E2EF0030E5EF8046B364205D402
:104A6000012A43EB030515F5001F12D8012841EB7D
:104A7000010C1CF5001F0CD80ED14FEAD17C15F5A6
:104A8000001F0CEB4C0C0CF1020C08BF4CEBD37C60
:104A900004E04FF0080C01E04FEAD37C0CEB4C052E
:104AA00026FA05F606F00706B6F1040C06D20EEB60
:104AB000860CBDE870404CF0010C6047DFE80CF05C
:104AC000090B02024FF000414FF00000A1F5002158
:104AD00070BD19461046012851EB010418BFD4F5EA
:104AE000001484BF002001F0004170BD0808A0F54B
:104AF00000114FEA3101704791EA030F10B581F0C0
:104B000000413FF5A1AC83F0004300F009B800007C
:104B100010B591EA030F48BF83F000433FF594AC12
:104B2000841A71EB030C07D212198CF0004C43EB82
:104B30000C03001B61EB0C01DFF8A4E14FEA1154F8
:104B4000A4EB135C1EEA430F18BF9EEA445F00F01B
:104B5000B08023EA6E03524221EA0451C3EB6E0394
:104B600038BF5B1EDCF1200E25D322FA0CFE10EBC1
:104B70000E0043FA0CFE41EB0E01CCF1200E03FABD
:104B80000EFE10EB0E0051F10001CCF1200E29D4E5
:104B900012FA0EF201EB0451BDE8104058BF704705
:104BA000401C1CBFB2F1004F704700280CBF491CCD
:104BB00020F00100704712EB020E43EB030218BF16
:104BC0004FF0010E4EEA4202ACF1200CDCF11E0E59
:104BD00054D943FA0CFE10EB0E0051F1FF31CCF129
:104BE0001E0ED5D50EF1010E12FA0EFE404141EB1C
:104BF000010101EB445C5FEA5C5C10D910EBDE70F4
:104C000001EB045138BFBEF1004FBDE8104018BFA2
:104C1000704700280CBF491C20F00100704730D2BB
:104C20004FEAD42C11F5001124F400641BD0B1FA22
:104C300081F20B3AA41AA41ED2F12003914030FA5B
:104C400003F31943904001EBCC71002C01EB0451AC
:104C5000BDE81040A8BF704701F1C0414FF000000F
:104C600001F000417047B0FA80F310FA03F100D16F
:104C700010BDE41A173C4805C90AE4E701EB0451EA
:104C800010BD491001EB0451BDE810404FEA30005F
:104C900002E04FF0000170474A0008BF0042F8D020
:104CA000B2F5001F28BF704701F000414FF000002F
:104CB00070479EEA445F07D011EA5E0FBDE81040DE
:104CC00004BF002100207047BDE8104070B5FFF719
:104CD000BFFE00BF40DFF63E83F000411046704744
:104CE0000000E0FF0CF00F03092B08BF082000F0C4
:104CF00059800A2B0BD0082B18BF704708BF1CF037
:104D0000400F0AD04FF000004FF0000170471CF038
:104D1000400F18BF4FF0004070471CF0100F08D034
:104D200020F0704300F07F4242EAD3014FEA437023
:104D3000704700F0604021F07F4242EA000201F03B
:104D40007F4040EA727070474FF0FF0C4CF4E06C0B
:104D50001CEA11531CBF9CEA030C9445C2BFDA4203
:104D600001EB02517047002B0DD0BCF1000F0FD0AA
:104D7000002A01F00041A4BF41F0E04141F07F6111
:104D80004FF00000704701F000414FF00000704705
:104D900050EA01334FF09B0C18BF4CF0806C7FF44D
:104DA000F3AB70471CF4801F11D01CF4E02F03D02C
:104DB0006FEACC31490070474FF04050EFF300826A
:104DC00022F0704242EA000282F3008870474FF0FE
:104DD00000007047684F000800000000000000005D
:104DE00000000000000000000002000018000000A9
:104DF0000000000000000000704F000800000000EC
:104E000000000000000000000000000000020000A0
:104E10001800000000000000000000000102020372
:104E20000405060708090A0B0C0D0E0F10100000F0
:104E3000000000000000010203040607080900004A
:104E400000000102030400004C5555555555A53F7F
:104E50007751C1166CC156BF9015CB19A001FA3E0F
:104E6000AD529C804F7E92BEC4B1B4BD9EEE213E39
:104E7000D43888BEE9FAA8BD00004054FB21F93FB0
:104E80003163621A61B4D03D0000601A61B4D03D54
:104E90007370032E8A19A33B0000002E8A19A33BCE
:104EA000C14920259A837B390000000000000000E2
:104EB0006E83F9A22915444ED15727FCC0DD34F585
:104EC000999562DB4190433CAB6351FE61C5BBDE0B
:104ED0003A6E24B7E0D24D42EA2E49061C92D1091F
:104EE0001CEB1DFE3EA729B1F53582E88444BB2E9C
:104EF00026709CE9417E5FB439D69139F4395383E9
:104F00008B5F849C3B28F9BDFF97F81F0F9805DE47
:104F10008B112FEF1F6D0A5ACF7E366DB709CB2745
:104F2000663F464F2DEA5F9EC7BA27757BF1E5EBDA
:104F3000F739073DEA92528AB15FFB6B085D8D1F1E
:104F4000A6F810111111813FD561C119A0012ABF26
:104F50007DFEB157E31DC73EEB9C2B8AE6E55ABEAA
:104F60007CD5CF5A3AD9E53D425F4C45440000001C
:104F7000444D415F494F0000984F00080000002059
:104F8000A80000002801000840500008A8000020E8
:104F9000982200004401000800000000000000000A
:104FA0000000000000000000000000000000000001
:104FB00001000000100000000000000000127A0054
:104FC00000000000000000000000000000000000E1
:104FD00000000000000000000000000000000000D1
:104FE00000000000000000000000000000000000C1
:104FF00000000000000000000000000000000000B1
:1050000000000000000000000000000000000000A0
:105010000000000000000000000000000000000090
:105020000000000000000000000000000000000080
:105030000000000000000000AAAAAAAA00000000C8
:04000005080000ED02
:00000001FF
