:020000040800F2
:10000000F017002021020008791C0008E5190008FB
:10001000091C00088B0300081922000800000000DA
:10002000000000000000000000000000890100083E
:10003000A503000800000000CD010008591D0008BC
:100040003B0200083B0200083B0200083B0200089C
:100050003B0200083B0200083B0200083B0200088C
:100060003B0200083B0200083B0200083B0200087C
:100070003B0200083B0200088D03000899030008BA
:100080003B0200083B0200083B0200083B0200085C
:100090003B0200083B0200083B0200083B0200084C
:1000A0003B0200083B0200083B0200083B0200083C
:1000B0003B020008E51D00083B0200083B02000867
:1000C0003B0200083B0200083B0200083B0200081C
:1000D0003B0200080D2200083B0200083B0200081A
:1000E0003B0200083B0200083B02000800F002F857
:1000F00000F03AF80AA090E8000C82448344AAF188
:100100000107DA4501D100F02FF8AFF2090EBAE885
:100110000F0013F0010F18BFFB1A43F0010318473B
:100120001432000034320000103A24BF78C878C17D
:10013000FAD8520724BF30C830C144BF04680C60ED
:10014000704700000023002400250026103A28BF35
:1001500078C1FBD8520728BF30C148BF0B60704739
:100160001FB51FBD10B510BD00F0D6F81146FFF742
:10017000F7FF02F062F800F0F4F803B4FFF7F2FFC3
:1001800003BC00F0FBF80000224B19680868B0E8D7
:10019000F00F80F30988BFF36F8F4FF0000080F3FA
:1001A00011884EF00D0E70470000000006480068F0
:1001B000006880F3088862B661B6BFF34F8FBFF363
:1001C0006F8F00DF00BF00BF08ED00E0EFF3098094
:1001D000BFF36F8F0F4B1A6820E9F00F106008B55E
:1001E0004FF0500080F31188BFF34F8FBFF36F8F34
:1001F00002F048FB4FF0000080F31188BDE8084092
:1002000019680868B0E8F00F80F30988BFF36F8FB2
:10021000704700BF18000020EFF305807047000012
:100220000948804709480047FEE7FEE7FEE7FEE78A
:10023000FEE7FEE7FEE7FEE7FEE7FEE704480549C6
:10024000054A064B70470000E31D0008ED0000085A
:10025000F0110020F0170020F0130020F013002010
:1002600010B5203AC0F00B80B1E81850203AA0E851
:100270001850B1E81850A0E81850BFF4F5AF5FEA85
:10028000027C24BFB1E81850A0E8185044BF18C938
:1002900018C0BDE810405FEA827C24BF51F8043BDF
:1002A00040F8043B08BF7047D20728BF31F8023B33
:1002B00048BF11F8012B28BF20F8023B48BF00F8C7
:1002C000012B70474FF0000200B513469446964646
:1002D000203922BFA0E80C50A0E80C50B1F1200159
:1002E000BFF4F7AF090728BFA0E80C5048BF0CC007
:1002F0005DF804EB890028BF40F8042B08BF704765
:1003000048BF20F8022B11F0804F18BF00F8012BD6
:100310007047704770477047754600F02BF8AE463F
:1003200005006946534620F00700854618B020B501
:10033000FFF784FFBDE820404FF000064FF00007B4
:100340004FF000084FF0000B21F00701AC46ACE87D
:10035000C009ACE8C009ACE8C009ACE8C0098D46EA
:10036000704710B50446AFF300802046BDE810404A
:10037000FFF703BF004870478C1100200149182087
:10038000ABBEFEE7260002007047FEE7014800F022
:10039000A3B8000010040020014800F09DB8000040
:1003A000CC030020704700003C21014800F04CBF06
:1003B0003C03002072B6FEE770B506460C480468A0
:1003C000606A00B202F04AFD0546002060624FF408
:1003D0007A70B0FBF6F002F089FD04460549284624
:1003E00002F05AFC2146BDE8704002F093BD0000C7
:1003F0003C0300200000304110B590F8211000228D
:10040000022905D00421816380F82020012010BD3D
:1004100001680B6823F00E030B6001680B6823F082
:1004200001030B6090F84030C46B012101FA03F323
:10043000636080F8211080F82020104610BD000075
:1004400010B590F821100024022903D00421816303
:1004500001243DE001680A6822F00E020A6001688A
:100460000A6822F001020A601A4A0168914201D129
:10047000012121E0174A1432914201D110211BE0E1
:10048000144A2832914201D1891515E0114A3C32B3
:10049000914201D189140FE00E4A5032914202D1AB
:1004A0004FF4803108E00B4A6432914202D14FF49C
:1004B000801101E04FF08071064A083A5160012135
:1004C00080F82110002180F82010416B01B188478D
:1004D000204610BD080002402DE9F05FC16B0C689A
:1004E00001680B68D0F840C0042202FA0CF2494DB2
:1004F000DFF824A1494E4A4FDFF828B1DFF828E1A0
:1005000022422CD05A072AD50A68920603D40A68D8
:1005100022F004020A600168A94201D1042219E014
:10052000514501D1402215E0B14202D14FF4806221
:1005300010E0B94202D14FF480420BE0594502D19C
:100540004FF4802206E0714502D14FF4800201E0B1
:100550004FF080622F4908394A60C16A3BE04FF092
:10056000020808FA0CF818EA040F4FF000094FF0DF
:10057000010235D05FEA837832D50B689B0605D43B
:100580000B6823F00A030B6080F821200168A94260
:1005900001D1022219E0514501D1202215E0B142DA
:1005A00002D14FF4007210E0B94202D14FF4005270
:1005B0000BE0594502D14FF4003206E0714502D1FB
:1005C0004FF4001201E04FF00072124908394A60FE
:1005D00080F82090816A00291AD0BDE8F05F0847B2
:1005E000082505FA0CF5254212D01B0710D50B681B
:1005F00023F00E030B6090F84010C36B02FA01F178
:100600005960826380F8212080F82090016BE2E736
:10061000BDE8F09F080002401C000240300002408C
:1006200044000240580002406C00024030B528B33C
:1006300008C8134914221944B1FBF2F18900C163BF
:1006400010498163022141771A6843F6F0718A43A9
:10065000D0E900142143D0E902452C432143046929
:1006600021434469214384692143114319600021D6
:100670004163012242770177084630BD012030BD39
:10068000F8FFFDBF000002402DE9F84FDFF8B891F8
:100690000024A9F1040B23460F2709F1040AABF14A
:1006A000040EC9E00125A5402A40AA427DD1674E2B
:1006B000D1F804C0ACEB0608B44532D014DCBCF170
:1006C000030F3AD009DCBCF1000F2AD0BCF1010FB6
:1006D0001CD0BCF1020F31D11DE0BCF1110F17D0BD
:1006E000BCF1120F2AD119E0B8F5881F19D006DC29
:1006F000B8F5803F15D0B8F5801F1FD111E0B8F5CF
:10070000001F0ED0B8F5041F18D10AE0CB6815E021
:10071000CB681B1D12E0CB6808330FE0CB680C33AD
:100720000CE08B682BB1012B4FF0080303D045611F
:1007300004E0042302E0056100E00023FF2A01D861
:10074000064601E000F104064FEA840501D9A5F14F
:100750002005D6F8008007FA05FC28EA0C0803FA01
:1007600005F548EA0508C6F800804D68ED0062D539
:10077000374DAE6946F00106AE61AD6924F003065F
:1007800005F001050095334D06EB050CDCF808502B
:10079000A607360F07FA06F825EA0805DFF8B8803D
:1007A000404503D14FF0000817E044E0DFF8AC808B
:1007B000404502D14FF001080FE0DFF8A48040452A
:1007C00002D14FF0020808E0DFF89880404502D1DE
:1007D0004FF0030801E04FF0040808FA06F848EA71
:1007E0000508CCF808804D68D9F80060ED024D4648
:1007F00001D5164300E096432E604D68DAF800609C
:10080000AD02554601D5164300E096432E604D6873
:10081000DBF80060AD035D4601D5164300E096436A
:100820002E604D68DEF80060ED03754601D5164375
:1008300000E096432E60641C0D682A46E5407FF474
:1008400031AFBDE8F88F000008040140000011102E
:10085000001002400000014000080140000C01406F
:1008600000100140001401400AB101617047090401
:10087000FBE7000001488068704700000800002086
:1008800002488168027811448160704708000020A6
:10089000074810B5016841F010010160032000F025
:1008A000A7F80F2000F006F800F050F8002010BD67
:1008B0000020024030B505461F4887B0C16941F0AD
:1008C0000201C161C06906A900F00200009001A800
:1008D00000F036F90498B0B100F052F94000174921
:1008E000174AB0FBF1F11748491E0260416040F21F
:1008F000E7320021C0E903218160816100F04CFBF7
:10090000040003D015E000F03BF9E8E70D4800F0E3
:1009100083FB04000DD11D2000F03CF8102D07D200
:10092000002229461D2000F043F80748056000E03A
:10093000012407B0204630BD0010024040420F00A5
:1009400000040040540400200C0000200F4808B5AB
:10095000816941F001018161816901F0010100912A
:10096000C16941F08051C161C069002200F080502E
:1009700000900F21901E00F01BF80548416821F0FF
:10098000E06141F00071416008BD000000100240CC
:1009900000000140002809DB00F01F020121914006
:1009A0004009800000F1E020C0F80011704700000D
:1009B000F0B40E4B1B680C46C3F30223C3F10705CA
:1009C000042D00D90425191D072901D2002300E0B8
:1009D000DB1E012606FA05F1491E214099409E4082
:1009E000761E16403143F0BC01F017BC0CED00E060
:1009F000064900F0070208684FF6FF03184040EA76
:100A00000220034A10430860704700000CED00E02C
:100A10000000FA052DE9F0470F46050061D0434E6E
:100A2000306800F00700B84209D2306820F00700B3
:100A300038433060306800F00700B84251D1286870
:100A40003B4C810712D5400703D5606840F4E06055
:100A500060602878000703D5606840F460506060EB
:100A60006068A96820F0F000084360602878C0073B
:100A700028D06868012810D02168022810D0890782
:100A800000292EDA616821F0030101436160FFF75C
:100A9000F1FE804641F288390DE021688903EFE7D5
:100AA0008901EDE7FFF7E6FEA0EB0801494502D911
:100AB0000320BDE8F0876068696800F00C00B0EBC7
:100AC000810FEFD1306800F00700B8420BD93068D1
:100AD00020F0070038433060306800F00700B8426B
:100AE00001D00120E5E72878400705D56068E9686E
:100AF00020F4E060084360602878000706D560684D
:100B0000296920F4605040EAC100606000F058F8A4
:100B10006168084AC1F30311515CC8400649086086
:100B200006480068FFF7C6FE0020C2E7002002402A
:100B30000010024016330008140000200C000020B2
:100B40000F2202600C4A536803F0030343605368AA
:100B500003F0F0038360536803F4E063C3605268FA
:100B60004FF4E06303EAD20202610448006800F037
:100B7000070008607047000000100240002002409B
:100B80000448054900684968044AC1F30221515CE0
:100B9000C8407047140000200010024026330008AF
:100BA0000448054900684968044AC1F3C221515C00
:100BB000C84070471400002000100240263300088F
:100BC0000E4A51680E4801F00C03042B11D0082B7B
:100BD0000FD10C48C1F38343C903C05C0AD55168E7
:100BE000084AC1F34041921E515C054A5043B0FB94
:100BF000F1F070470449484370470000001002407C
:100C000000127A000633000800093D002DE9F84F74
:100C1000040070D02078C04DC00749D06868C0F388
:100C20008100012807D06868C0F38100022809D13B
:100C30006868C00306D52868800339D56068002835
:100C4000E7D035E06068B0F5803F0BD010B1B0F56B
:100C5000A02F11D0286820F480302860286820F464
:100C6000802002E0286840F480302860606890B1FD
:100C7000FFF700FE06460AE0286840F4802028605E
:100C8000F0E700BFFFF7F6FD801B642873D82868E3
:100C90008003F7D50CE0FFF7EDFD064605E000BF49
:100CA000FFF7E8FD801B6428F0D828688003F7D49C
:100CB00020789A4E80074FF001094FF0000839D58F
:100CC000686810F00C0F07D06868C0F38100022834
:100CD00009D16868C00306D42868800714D5206944
:100CE000012808D110E02069B0B1C6F80090FFF7E4
:100CF000C1FD074605E00AE1FFF7BCFDC01B022865
:100D0000C4D828688007F7D52868616920F0F80002
:100D100040EAC10028600DE0C6F80080FFF7AAFD98
:100D2000074604E0FFF7A6FDC01B022823D8286869
:100D30008007F7D4207800072CD57948A169D9B16C
:100D4000C0F80090FFF796FD074604E0FFF792FD1C
:100D5000C01B02280FD8686A8007F7D571484FF486
:100D6000FA510068B0FBF1F0009000BF0098411EFE
:100D70000091FAD20EE080E0C0F80080FFF77AFD23
:100D8000074604E0FFF776FDC01B022875D8686AA5
:100D90008007F7D42078400760D5E8690027C000B5
:100DA00008D4E86940F08050E861E869012700F064
:100DB000805000905C480168C90513D401688346DF
:100DC00041F480710160FFF755FD824606E000BFE7
:100DD000FFF750FDA0EB0A0064284ED8DBF80000B6
:100DE000C005F5D5E06801280AD008B1052813D060
:100DF000286A20F001002862286A20F0040002E03E
:100E0000286A40F001002862E06841F2883B98B10E
:100E1000FFF730FD82460BE0286A40F004002862AC
:100E2000EEE700BFFFF726FDA0EB0A0159455AD8AF
:100E3000286A8007F6D50CE0FFF71CFD824605E026
:100E4000FFF718FDA0EB0A0159454CD8286A800726
:100E5000F6D41FB1E86920F08050E861E06988B3FA
:100E60006968C1F38101022944D00228C6F8608074
:100E700004D0FFF7FFFC044638E034E0FFF7FAFC4B
:100E8000074604E0FFF7F6FCC01B02282BD82868B1
:100E90008001F7D4206AB0F5803F05D16868A16869
:100EA00020F4003008436860D4E908010843696809
:100EB00021F4741108436860C6F86090FFF7DAFC0B
:100EC000044606E025E000BFFFF7D4FC001B022823
:100ED00009D828688001F7D51BE000BFFFF7CAFCDE
:100EE000001B022802D90320BDE8F88F2868800182
:100EF000F4D40EE00128F7D06868226A00F480314B
:100F0000914204D1616A00F47010884201D001203E
:100F1000EAE70020E8E7000000100240000042423B
:100F20008004424214000020007000407047704767
:100F300070B590F83C20012A26D0012480F83C406E
:100F4000022280F83D2003685A689D6822F07006EE
:100F50000A6832435A600D4B02689A4208D0B2F1D7
:100F6000804F05D00A4B9A4202D00A4B9A4204D1D4
:100F7000496825F080031943916080F83D400021C5
:100F800080F83C10084670BD022070BD002C014066
:100F9000000400400008004010B5040003D094F89D
:100FA0003D0010B107E0012010BD002084F83C0096
:100FB000204600F01FF8022084F83D00211D206823
:100FC00000F016FF012084F8460084F83E0084F803
:100FD0003F0084F8400084F8410084F8420084F81F
:100FE000430084F8440084F8450084F83D00002064
:100FF00010BD000008B50068B0F1804F08D1054869
:10100000C16941F00101C161C06900F001000090B7
:1010100008BD00000010024090F83D10012901D0E9
:1010200001207047022180F83D100168CA6842F033
:101030000102CA6000680B49884208D0B0F1804FB5
:1010400005D00949884202D00849884204D1816804
:1010500001F00701062903D0016841F00101016098
:1010600000207047002C01400004004000080040B0
:1010700070B5044690F83C000025012817D00126E1
:1010800084F83C60022084F83D002068826822F0E9
:10109000770222F47F4282600868502838D00DDC45
:1010A00020284FD005DC90B3102811D14AE002204F
:1010B00070BD302846D040280AD13BE060282FD0B0
:1010C00070280DD0B0F5805F03D0B0F5005F12D06E
:1010D000012584F83D60002084F83C00284670BD5E
:1010E000CB68D1E90121206800F0CBFE206881683F
:1010F00041F0770109E0CB68D1E90121206800F0D7
:10110000C0FE2068816841F480418160E1E719E018
:10111000CA684968206800F069FF5021206806E02D
:10112000CA684968206800F072FF6021206800F0FA
:10113000B2FECEE7CA684968206800F057FF402138
:101140002068F4E7226801461046F0E72DE9F041F7
:101150000D46040003D094F83D0018B108E00120CA
:10116000BDE8F081002084F83C00204600F040F803
:10117000022084F83D002068816844F20702914310
:101180008160211D206800F033FE2268906891691B
:10119000166A2B68AF69034340F20330814341EA8A
:1011A0000721A868EF6908434FF6FC418843E968C6
:1011B00040EA0720014328692F6A000140EA07300E
:1011C000084369686D6926F0220646EA0515294339
:1011D00093602268906154F8460B0162012004F884
:1011E0001F09E0752076E0762077A0750020B7E72C
:1011F00000B585B000210091019102910391006832
:101200000E49884218D10E48C16941F00401C161FC
:10121000C16901F004010491816941F00801816113
:101220008069694600F008000490C0200090012009
:1012300002900448FFF728FA05B000BD00080040FE
:1012400000100240000C014070B590F83E6004466A
:1012500090F83F5090F8423090F84320022021B19E
:1012600004290ED0012E1BD114E0012E18D1012B20
:1012700016D184F83E0084F8420001220021206843
:1012800020E0012D0CD1012A0AD184F83F0084F816
:10129000430014E0012D03D1012B01D1012A01D01B
:1012A000012070BD84F83E0084F83F0084F84200BD
:1012B00084F8430001220021206800F0D5FD0122BE
:1012C0000421206800F0D0FD2068016841F0010190
:1012D0000160002070BD70472DE9F04104460068B0
:1012E000C66805694FF00007A90713D5B10711D5E6
:1012F000F91E01610120207720688069800720465F
:1013000002D0FFF7E8FF04E000F0A2F8204600F06A
:1013100034F92777680716D5700714D521686FF060
:1013200004000861022020772068806910F4407F63
:10133000204602D0FFF7CFFF04E000F089F82046F6
:1013400000F01BF92777280715D5300713D521683A
:101350006FF008000861042020772068C0698007CA
:10136000204602D0FFF7B7FF04E000F071F82046F6
:1013700000F003F92777E80616D5F00614D52168A2
:101380006FF010000861082020772068C06910F411
:10139000407F204602D0FFF79EFF04E000F058F89F
:1013A000204600F0EAF82777E80708D0F00706D0D3
:1013B00021686FF001000861204600F02DF9280631
:1013C00008D5300606D521686FF0800008612046F8
:1013D000FFF7ACFD680608D5700606D521686FF0EA
:1013E00040000861204600F021F9A8060AD5B006A1
:1013F00008D521686FF0200008612046BDE8F04163
:10140000FFF795BDBDE8F08100B585B000210091E2
:101410000191029103910068B0F1804F11D10A4807
:10142000816941F0040181618069694600F004002E
:101430000490012000900220019003900348FFF7E0
:1014400023F905B000BD0000001002400008014073
:10145000704770B5044690F83C0000260D46012800
:101460000FD0012084F83C006AB1042A1DD0082A5C
:101470002FD00C2A3FD00126002084F83C003046B3
:1014800070BD022070BD206800F00EFD20688169EB
:1014900041F0080181612068816921F004018161C6
:1014A000206881692A69114311E0206800F024FD59
:1014B0002068816941F4006181612068816921F4BB
:1014C00080618161206881692A6941EA0221816124
:1014D000D2E7206800F03CFD2068C16941F00801B6
:1014E000C1612068C16921F00401C1612068C1693E
:1014F0002A69114311E0206800F056FD2068C16997
:1015000041F40061C1612068C16921F48061C16159
:101510002068C1692A6941EA0221C161ACE710B5BE
:10152000040003D094F83D0010B107E0012010BD85
:10153000002084F83C00204600F01EF8022084F8C9
:101540003D00211D206800F053FC012084F8460076
:1015500084F83E0084F83F0084F8400084F841009D
:1015600084F8420084F8430084F8440084F845007D
:1015700084F83D00002010BD7047704710B5044648
:10158000022249B104290ED0082913D094F8410051
:10159000012816D0012010BD94F83E000128F9D191
:1015A00084F83E200FE094F83F000128F2D184F83F
:1015B0003F2008E094F840000128EBD184F8402057
:1015C00001E084F841200122206800F04DFC0F4921
:1015D0002068884203D1426C42F400424264206891
:1015E000884208D0B0F1804F05D00949884202D026
:1015F0000849884204D1816801F00701062903D017
:10160000016841F001010160002010BD002C014083
:10161000000400400008004000680349884201D1EE
:10162000FFF72EB970470000000400407047704774
:1016300070470000F8B5016804460868CA684B693D
:1016400010F00F0F4FF0000559D003F0010602F41F
:101650009077374365D0C10705D0D10503D5616CBC
:1016600041F001016164410705D5D90703D0616CE0
:1016700041F002016164810705D5D90703D0616C8F
:1016800041F004016164010707D502F020013143F4
:1016900003D0616C41F008016164616C00293AD0AB
:1016A000800604D5900602D5204600F0F1FC2068A3
:1016B0004069616CC0F38010090700D460B3204614
:1016C00000F0BFFC20684069400621D52068143036
:1016D00050E8001F21F0400140E80012002AF5D137
:1016E000E06BA8B16D494163E06BFEF7A9FE0028ED
:1016F00011D0E06B416B01B0BDE8F04008478306B4
:101700000FD593060DD52046BDE8F84000F0C0BCCB
:101710002046FFF78DFFF8BD2046FFF789FF65647F
:10172000F8BD266B2023012E7CD1C6067AD5D606BD
:1017300078D508684868009048694FF0020640066E
:1017400040D5E16B086840680004000CE8D0A28D29
:101750008242E5D9E085886920282DD020680C30A8
:1017600050E8001F21F4807140E80012002AF5D1F2
:101770002068143050E8001F21F0010140E80012F9
:10178000002AF5D12068143050E8001F21F04001F4
:1017900040E80012002AF5D184F842302563206821
:1017A0000C3050E8001F21F0100140E80012002A20
:1017B000F5D1E06BFEF720FE6663A08DE18D401A47
:1017C00081B22AE0A08DE18D401A81B2E08D00281F
:1017D000A6D00029A4D022680C3252E8000F20F4D1
:1017E000907042E80007002FF5D12068143050E8CF
:1017F000002F22F0010240E80027002FF5D184F8E5
:101800004230256320680C3050E8002F22F010028F
:1018100040E80023002BF5D166632046FFF707FF61
:10182000F8BDFFE705062BD5150629D594F841002C
:101830002128F5D1A068B0F5805F01D12069B0B151
:10184000206A411C2162216800784860E08C401EBB
:101850000004000CE084E3D12068C16821F080011D
:10186000C1602068C16841F04001C160D8E7206ACA
:101870000088C0F308004860206A801C2062E5E709
:101880004006CDD55006CBD5CA68204622F040028E
:10189000CA6084F8413000F0A4F8C1E733200008A2
:1018A00070B5040004D094F84100002510B106E0A2
:1018B000012070BD84F84050204600F023F8242019
:1018C00084F841002068C16821F40051C1602046BD
:1018D00000F040FC2068016921F49041016120681A
:1018E000416921F02A0141612068C16841F4005139
:1018F000C1606564202084F8410084F8420065637B
:10190000002070BDF0B585B0002406460094019417
:101910000294039400682D49884254D12C4881696F
:1019200041F480418161816901F4804104918169C0
:1019300041F0040181618069264D00F004000490AB
:101940004FF400700090022001900320039069463C
:101950002846FEF799FE2815CDE900046946284679
:101960000294FEF791FE1D4D1B488027C5E9000437
:10197000C5E902472C616C61AC612846EC61FEF759
:1019800055FE08B1FEF716FDF5636E62134D124861
:101990004435143801C5102091C5104845F8104948
:1019A00044306C61AC61EC61FEF740FE08B1FEF7BB
:1019B00001FDB5630022052125206E62FEF7F8FFC8
:1019C0002520FEF7E7FF05B0F0BD0000003801401C
:1019D000001002400008014058000240CC030020E3
:1019E00070477047FEE700000D4808B5416941F0B7
:1019F000010141614069002200F0010000900521D1
:101A00000E20FEF7D5FF0E20FEF7C4FF00220521B1
:101A10000F20FEF7CDFFBDE808400F20FEF7BABF4C
:101A20000010024000B587B01C2206496846FEF748
:101A300017FC0021684600F01EFC0349086007B04F
:101A400000BD0000E83200080400002070B586B038
:101A500000241C480094019402940394816941F08D
:101A600010018161816901F010010491816941F0E7
:101A700020018161816901F020010491816941F0B7
:101A800004018161816901F004010491816941F0DF
:101A90000801816180690C4E00F008004FF4005588
:101AA0000490002229463046FEF7DEFE0120009514
:101AB000CDE901040220039069463046FEF7E4FDBB
:101AC00006B070BD001002400010014010B58EB08D
:101AD00000240794089409940A940B941C216846E6
:101AE0000C94FEF7EFFB1E484FF08041016040F27E
:101AF000CF21C0E9011440F2E731C0E90314846149
:101B0000FFF74AFA08B1FEF755FC4FF480500790F2
:101B100007A91348FFF7ACFA08B1FEF74BFC1048D1
:101B2000FFF7FDFC08B1FEF745FC0B940BA90C4830
:101B30000C94FFF7FDF908B1FEF73CFC6020CDE9FD
:101B4000000402940022694605480494FFF781FCD2
:101B500008B1FEF72FFC0248FFF756FC0EB010BD8F
:101B6000F402002010B58CB024216846FEF7AAFBD1
:101B700000241648099414490A94C0E900144FF649
:101B8000FF71C0E90241046184610320CDE90004D2
:101B90000120CDE902040494CDE90540079469468B
:101BA0000A480894FFF7D2FA08B1FEF703FC09943B
:101BB00009A906480A94FFF7BBF9002801D0FEF7EF
:101BC000F9FB0CB010BD0000000800403C030020F1
:101BD0000C4810B50A4901604FF4E1314160002121
:101BE00081600C22C160C0E904128161C161FFF70C
:101BF00057FE002803D0BDE81040FEF7DBBB10BD48
:101C00000038014084030020FEE7000010B50D4CB1
:101C1000FEF730FE2168401A1428F9D901F11400AA
:101C200020601420FEF7C8FB0146074800F030F89A
:101C3000064901F06FF901F0F1F8054909684863B8
:101C400010BD000000000020800000200000C842FD
:101C5000F402002010B54FF07E5104460B461A46A0
:101C6000044800F00AF82146BDE81040014800F0A1
:101C70000DB8000080000020FEE780E80E00002183
:101C8000C0E90311C0E90511C1617047C160704727
:101C90002DE9F0470446C06801F012FA8146FEF7CC
:101CA000E9FD01F023F90646D4E9040101F0EEF85C
:101CB000314601F0FBF91F4901F02CF9D4F81880E6
:101CC00007464146484601F0FBF9394600F0E4FF7B
:101CD00005464146484600F077FF394601F01AF9BB
:101CE0004FF0FF3101F0C2FAE16900F06DFF0746E5
:101CF0004946206801F00EF982462946606801F0E5
:101D000009F980463946A06801F004F907464146C2
:101D1000504600F059FF394600F056FF074630465E
:101D2000C4F8189001F042FAE561C4E904013846AC
:101D3000BDE8F0876F12833AFEF736FB00210548B5
:101D4000FFF71CFC4FF07E50FFF784FFFFF75EFFAC
:101D5000FCE70000F402002010B5502080F3118849
:101D6000BFF34F8FBFF36F8F00F066FE18B10449C9
:101D70004FF080500860002080F3118810BD0000F3
:101D800004ED00E030B58FB028216846FEF79AFADE
:101D900014210AA8FEF796FA01210804CDE90010E3
:101DA0000024029402250491CDE907504FF4E0107D
:101DB00009906846FEF72AFF08B172B6FEE70F20C9
:101DC000CDE90A054FF48060CDE90C4002210AA854
:101DD0000E94FEF71FFE002801D072B6FEE70FB08A
:101DE00030BD70470148FFF777BA00005404002067
:101DF000F0B50268194B1A4C1A4D4FF080479842C3
:101E000005D0B84203D0A04201D0A84203D122F0AD
:101E100070064A683243984205D0B84203D0A042C7
:101E200001D0A84203D122F44074CA6822434C690D
:101E300022F08002224302608A68C2620A688262DB
:101E4000984201D109690163012141610169C90712
:101E500003D0016921F001010161F0BD002C0140B6
:101E6000000400400008004010B501F01F030121EC
:101E7000046A99408C430462016A9A4011430162EA
:101E800010BD10B5846842EA032224F47F440A435B
:101E90002243826010BD826822F070020A4342F041
:101EA000070181607047000030B5036A026A22F0C2
:101EB000010202624268846924F073050C682C43B5
:101EC00023F002058B682B430A4DA8420BD123F067
:101ED0000805CB6822F440722B434D6923F00403BC
:101EE00015438A692A4342608461496841630362F9
:101EF00030BD0000002C014030B5026A036A23F0B7
:101F000010030362436884690D6824F4E64444EADC
:101F100005248D6822F0200242EA05120B4DA842EA
:101F20000ED1CD6822F0800242EA05124D6923F4F9
:101F3000406343EA85038D6922F0400243EA85034A
:101F40004360846149688163026230BD002C0140B6
:101F500030B5036A026A22F4807202624268C46980
:101F600023F4007324F073050C682C438D6843EA56
:101F700005230C4DA8420ED1CD6823F4006343EA3B
:101F800005234D6922F4405242EA05128D6923F47B
:101F9000806342EA05124260C4614968C16303621A
:101FA00030BD0000002C014030B5046A026A22F402
:101FB000805202624268C3690D6823F4E64343EA33
:101FC00005238D6824F4005444EA0534064DA842E4
:101FD00004D14D6922F4804242EA85124260C36115
:101FE00049680164046230BD002C014010B5036AE9
:101FF000046A24F001040462846924F0F00444EAD1
:10200000021423F00A020A438461026210BD10B573
:10201000036A046A24F010040462846923F0A003B4
:1020200024F4704444EA023243EA011182610162FD
:1020300010BD10B5406A0021C185C184FFF7F8FAD0
:1020400010BD01680C3151E8002F22F4907241E874
:102050000023002BF5D10168143151E8002F22F044
:10206000010241E80023002BF5D1016B012909D1C0
:1020700001680C3151E8002F22F0100241E80023E2
:10208000002BF5D1202180F8421000210163704718
:1020900008B590F84210222901D0022008BD8268BC
:1020A0004FF480539A4201D1016921B1816A9A4269
:1020B0001BD04AB10AE00268816A5268C2F3080282
:1020C0000A80816A891C08E0026972B1026852685C
:1020D00002F07F020A70816A491C8162C18D491E2B
:1020E0000904090CC18503D01BE002685268F1E7BE
:1020F0000168CA6822F02002CA600168CA6822F436
:102100008072CA6001684A6922F001024A61202196
:1021100080F8421000214163026B012A03D0FFF7CF
:102120005FFC002008BD016301680C3151E8002FFD
:1021300022F0100241E80023002BF5D101680A6863
:10214000D20602D50A6849680091818DFFF76FFABF
:10215000E7E7000070B5044600680169E26821F411
:102160004051114301612169A06808436169084336
:102170002168CA6841F20C639A430243CA6020682E
:102180004169A26921F44071114341611E492068EF
:10219000884202D1FEF704FD01E0FEF7F1FC00EBFE
:1021A000C00101EB0012606864218000B2FBF0F313
:1021B000B3FBF1F36FF018067343B2FBF0F5B2FB1B
:1021C000F0F605EB8305322303EB0515B5FBF1F5BE
:1021D000B6FBF1F605F0F00505EB0615B2FBF0F6DF
:1021E000B2FBF0F0B0FBF1F06FF01802504306EBD9
:1021F000800003EB0010B0FBF1F0216800F00F004D
:102200002844886070BD0000003801400148FFF795
:1022100011BA000084030020FEE70907090E002818
:1022200004DB00F1E02080F80014704700F00F009C
:1022300000F1E02080F8141D7047FEF729FBFFF73E
:10224000A1FDFFF703FCFFF7CFFBFFF7C1FCFFF792
:102250003DFCFFF787FCFFF7E5FB00F007F8FEE722
:1022600001460020842900D0C81C704710B500F03A
:10227000CBFA002010BD7FB50D4604464169B0F988
:10228000080081B1A16971B1FFF7EAFFD4E9051235
:102290008DE80700D4E900102B46226900F0A1FB6D
:1022A000039004B070BDFFF7DBFF03A9CDE9000187
:1022B000208A2B4682B2D4E9001000F065FB012889
:1022C00001D00020EDE70398EBE700002DE9F04195
:1022D000054600F021FA2E4CA068401CA060206842
:1022E0002C4F10B1606940B32DE02560A068012833
:1022F00029D1002606EB860007EB800000F0F2F9FA
:10230000761C072EF6D323488C3000F0EBF92148D9
:10231000A03000F0E7F91F48B43000F0E3F91D48A1
:10232000C83000F0DFF91B48DC3000F0DBF9194859
:102330008C3060631430A06305E02068E96AC06AED
:10234000884200D82560606A401C6062E96A01200A
:10235000226988401043206101EB810007EB800077
:10236000291D00F0CDF900F0F7F9606900280CD0C4
:102370002068E96AC06A884207D207494FF0805056
:102380000860BFF34F8FBFF36F8FBDE8F08100008F
:10239000180000209C04002004ED00E010B5044665
:1023A00090F8510058B101280CD002280FD05020CD
:1023B00080F31188BFF34F8FBFF36F8FFEE7206B61
:1023C00000F0DEF92046BDE8104000F0D9B910BD9C
:1023D00010484FF44061420706D0C01D0D4920F05F
:1023E0000700411AC1F540610B4A00230144C2E9CC
:1023F00000030839183A21F0070111604B600B60A7
:102400000B1AC0E9001393604FF000405360506115
:10241000704700008C0500206C000020144E154C05
:10242000A6F1C8074FF08058DFF84C9012E000BFCB
:1024300000F072F9F068C568281D00F035F9A06851
:10244000401EA0606068401E606000F085F928466C
:10245000FFF7A4FF60680028EAD138680128F9D99D
:10246000C9F80080BFF34F8FBFF36F8FF2E7000012
:10247000640500201800002004ED00E02DE9F0477D
:102480009A46DDE9098481466FF00303206B03EB74
:1024900082021044089E20F00707780707D05020DA
:1024A00080F31188BFF34F8FBFF36F8FFEE70025D6
:1024B00061B1002023180A5C83F834200A5C12B151
:1024C000401C1028F6D384F8435001E084F83450BF
:1024D000072E00D30626E662C4E91165201D00F030
:1024E0000CF904F1180000F008F92461C6F10700A6
:1024F0006462A061E56484F850505246494638460B
:1025000000F0C0F82060B8F1000F01D0C8F800401A
:10251000BDE8F08730B5114900E011460A688242F3
:10252000FBD34B685C18844203D140681844486070
:10253000084643681C18944209D1084C183C24688A
:10254000A24209D052681A4442600A6812680260C6
:10255000814200D0086030BD0460F9E76C000020C3
:102560000648416B096829B1416BC968C968496867
:10257000816270474FF0FF31FAE700001800002039
:1025800008484068401C4FF0500080F3118804D088
:10259000BFF34F8FBFF36F8FFEE7BFF34F8FBFF3D4
:1025A0006F8FFEE7740000202DE9F04105460027FB
:1025B00000F060F9324E306808B9FFF709FF706922
:1025C00005424ED1C5B3083568070ED005F00700A7
:1025D000C0F108000544680707D0502080F3118837
:1025E000BFF34F8FBFF36F8FFEE72DB37068854247
:1025F00037D82348183001460C6801E020460C46C5
:102600006168A94202D221680029F7D131688C4261
:1026100027D007682168016060680837411B1029CE
:102620000FD96019420708D0502080F31188BFF3FA
:102630004F8FBFF36F8FFEE713E041606560FFF7D8
:1026400069FF61687068401A7060B268904200D299
:10265000B060706901430020C4E90001F068401CCB
:10266000F06000F04FFA780707D0502080F311880F
:10267000BFF34F8FBFF36F8FFEE73846BDE8F081A1
:102680005400002010B5031F4FF080741C601B1F06
:1026900021F001011960191F024B0B6014394038F9
:1026A0000A6010BD81250008D0E9013201699A60F5
:1026B000D0E901235A604A68824201D182684A60A7
:1026C000002202610868401E086008687047000028
:1026D000034B036003F154000860802010607047D2
:1026E000A000002000F108014FF0FF32C0E9011204
:1026F000C1600161002101607047002101617047E4
:1027000042684A6093688B60936859609160086181
:102710000168491C01607047502080F31188BFF3A5
:102720004F8FBFF36F8F0A494868401C48600128EB
:102730000CD10848006810F0FF0F07D0502080F33C
:102740001188BFF34F8FBFF36F8FFEE77047000014
:102750007400002004ED00E00849486828B1401EDC
:10276000486001D180F311887047502080F31188B0
:10277000BFF34F8FBFF36F8FFEE7000074000020A0
:1027800070B500282AD0164DA0F108046068696968
:10279000084207D1502080F31188BFF34F8FBFF359
:1027A0006F8FFEE722683AB1502080F31188BFF3A3
:1027B0004F8FBFF36F8FFEE78843606000F05AF8D9
:1027C00060686968084468602046FFF7A3FE2869CE
:1027D000401C2861BDE8704000F094B970BD000055
:1027E000540000204FF0E020002101618161054983
:1027F0004FF47A720968B1FBF2F1491E4161072179
:10280000016170471400002010B586B000240394C5
:1028100005AA04A903A80494FFF75AFFDDE9030100
:102820000094CDE9011000230EA11048059A00F094
:10283000D8F80F490028C86211D0502080F31188C1
:10284000BFF34F8FBFF36F8F4FF0FF3088620120CF
:102850004861CC6006B0BDE8104000F041B806B059
:1028600010BD000049444C45000000001D24000834
:10287000180000200248016B491C016370470000EA
:10288000180000201448016B11B10121C16170478B
:102890000021C1610169B1FA81F1C1F11F0101EBB0
:1028A00081020E4951F822306BB101EB820101F136
:1028B00008034A6852684A609A4201D152684A60E5
:1028C000D16801607047502080F31188BFF34F8FAB
:1028D000BFF36F8FFEE70000180000209C0400206B
:1028E0001CB5264908780190FF20087008788DF8FB
:1028F00000009DF800009DF8002000F0F0009042DC
:1029000007D0502080F31188BFF34F8FBFF36F8F34
:10291000FEE79DF800001A4C00F0500020700720E0
:10292000A06005E09DF8002052008DF80020401EB8
:102930009DF800201206F5D4A060032807D050208F
:1029400080F31188BFF34F8FBFF36F8FFEE74FF413
:102950004070A060019808700A48016841F4700155
:102960000160016841F070410160FFF73BFF00200A
:102970006060FDF71BFC00201CBD000000E400E0CF
:102980007400002020ED00E02DE9FF5F8346DDE9C3
:102990000E87994616468A469000FFF705FE050009
:1029A0001CD05420FFF700FE040014D00020256343
:1029B00084F85100CDE90240CDE900874B4632460C
:1029C00051465846FFF75AFD2046FFF77FFC01208D
:1029D00004B0BDE8F09F2846FFF7D2FE4FF0FF306D
:1029E000F6E7F0B585B0DDE90B640A9DA6B1DCB170
:1029F000542700972663022684F85160002604AF0E
:102A0000CDE90246CDE90057FFF738FD2046FFF734
:102A10005DFC049805B0F0BD502080F31188BFF331
:102A20004F8FBFF36F8FFEE7502080F31188BFF305
:102A30004F8FBFF36F8FFEE72DE9F0412F4C00263B
:102A4000206B28B1A069401CA0613046BDE8F08130
:102A5000E5686D1CE56013D1606B006838B15020EB
:102A600080F31188BFF34F8FBFF36F8FFEE7606B6A
:102A7000A16B6163A063206A401C2062FFF770FDB8
:102A8000A06ADFF87C80854209D3606B0068A0B142
:102A9000606BC068C7687868854211D2A062206800
:102AA000C06A00EB800158F82100012800D90126F6
:102AB000E0690028C9D00126C7E74FF0FF30EDE7F5
:102AC000381DFFF7F1FDB86A18B107F11800FFF7DC
:102AD000EBFDF96A0120226988401043206101EB77
:102AE000810108EB8100391DFFF70AFEF86A2168B1
:102AF000C96A8842C9D30126C7E700001800002030
:102B00009C0400202DE9F0472C4D00242746286B1B
:102B100038B1FFF701FE286B401E2863286B40B1D7
:102B200046E0502080F31188BFF34F8FBFF36F8FC3
:102B3000FEE7A968224E0120D1B3A6F1B409804670
:102B40003068E8B1F068C46804F11800FFF7ACFD24
:102B5000201DFFF7A9FDE06A2A6908FA00F1114378
:102B6000296100EB800109EB8100211DFFF7C8FD01
:102B7000E06A2968C96A8842E2D3C5F81C80DFE7A9
:102B80000CB1FFF7EDFCAC6944B14646FFF754FFCA
:102B900000B1EE61641EF9D10020A861E86938B186
:102BA0000849012738070860BFF34F8FBFF36F8FC5
:102BB000FFF7D2FD3846BDE8F0870000180000207E
:102BC0005005002004ED00E090EA010F48BF81F0BD
:102BD000004100F17C82421A3CBF801A89184FEAFA
:102BE000D0524FF07F4C1CEA410FA2EBD15318BFDB
:102BF0009CEA026F00F03B804FF0004C4CEA002052
:102C00004CEA012121FA03FC10EB0C0C1ED202F15C
:102C1000FF325FEA1C2040EBC25038BF70471CF007
:102C20007F0F4FEA400C18BFBCF17F4F38BF704791
:102C3000C3F12003994008BF20F00100BCF17F4F91
:102C400038BF7047A0F1C04000F02BBA4FEA3C00FB
:102C5000000A40EBC25028BF1CF0FF0F4FEA400CA7
:102C6000E6D018BFBCF17F4F38BF7047EAE79CEA57
:102C7000026F05D010EA5C0F08BF00F000407047FB
:102C800010B500F0C8F900BF64FBBE3E014800F07B
:102C9000BBBA00BF0000C07F4FF47F0C1CEAD0120B
:102CA0001EBF1CEAD11392EA0C0F93EA0C0F00F03E
:102CB000858090EA010F48BF42F4807240F4000C16
:102CC00041F400002CF07F4120F07F4000B58142AC
:102CD000A2EB03020FF2081CACEB504EC0F1000057
:102CE0009EF800E04FEA4E0E00FB0EFC38BF490094
:102CF0004FEA2C1C02F5FA020CFB0EF34FEACE1E33
:102D00004FEA112C4FEAC1210EEB635E42EB2242E7
:102D10000EFB0CFC4FEA1C5300FB03114FEA112C75
:102D20004FEA01310EFB0CFC4FEADC4C00FB0C11AE
:102D3000C14228BF09184CEB03335DF804EB10EBDC
:102D4000410143EBC250B2F57C0F38BF704729D523
:102D500012F0F00F1CBF00F1C04000F000407047BF
:102D6000008182838485868788898B8C8D8E8F9164
:102D70009293959697999A9C9D9FA0A2A3A5A7A888
:102D8000AAACAEB0B2B3B5B7B9BCBEC0C2C5C7C9B4
:102D9000CCCED1D4D7D9DCDFE2E6E9ECF0F3F7FA18
:102DA000FE0000004FEA400C0CF1807CBCF17E4F2D
:102DB00028BF7047B0F1C04000F073B990EA010F2E
:102DC0000CEAD11348BF42F48072624538BF6345B4
:102DD00007D213F47F0F16D080EA010000F0004004
:102DE000704710B500F017F9097EFC3E00F005B8F9
:102DF00080EA010000F00040704780EA010000F026
:102E0000004000F04EB912F47F0F04BF0248704733
:102E100080EA010000F045B90000C07FC10DD1F18A
:102E20009E0206DB4FEA002343F0004323FA02F040
:102E30007047004207D54FEA4001B1F1FE4F02D280
:102E40004FF00000704710B500F0E5F8499224807B
:102E5000002070476FEA20007047000010F000412A
:102E600048BF4042B0FA80F310FA03F2C3F19D0369
:102E70000BD051EAC35101EB1220530638BF704703
:102E800000F1010008BF20F0010070474FF07E52B2
:102E900009E011F0004204D54042C1F1000138BF01
:102EA000491E42F07E520B0002F1706212BF2023D5
:102EB0005FEA00017047B1FA81FCA3EB0C0301FA51
:102EC0000CF120FA03FC02EBC352C3F1200341EAE8
:102ED0000C0110FA03FC5CEA416C42EB112018BFB4
:102EE0005FF0806C28BF20F001007047B0FA80F3DB
:102EF00010FA03F2C3F19D030AD0D90501EB1220A9
:102F0000530638BF704700F1010008BF20F00100F0
:102F1000704700004FF47F0C1CEAD0121EBF1CEA61
:102F2000D11392EA0C0F93EA0C0F00F0478090EA5D
:102F3000010F48BF42F480724FF0004C4CEA002071
:102F40004CEA012102EB0302A0FB0113A2F50002EF
:102F5000002918BF43F001035B0028BF4FEA330389
:102F600042EB22425FEA132C4CEBC2502EBFBCEB6B
:102F7000436FB2F57C0F70474FEA036CBCF1004F12
:102F800008BF20F00100B2F57C0F38BF70470BD5A9
:102F900082F0FF0212F5803FC8BF704700F1C040C9
:102FA000D8BF00F00040704700F5000C5FEA4C0C01
:102FB00048BF7047B0F1C04000F073B890EA010F0D
:102FC0000CEAD11348BF42F48072624538BF6345B2
:102FD00004D280EA010000F00040704710B500F014
:102FE0001AF800BF8900013E00F007B800F009B8E8
:102FF0005FEA410C5FEA1C6C08D080EA010000F037
:1030000050B85FEA400C5FEA1C6CF6D14FF000400C
:10301000A0F5800070470EF1020E2EF0030E5EF850
:10302000044B244204D44FEA4102B2F17F4F11D83D
:103030004FEA4003B3F17F4F0CD80ED14FEAD07C5A
:10304000B2F17F4F0CEB4C0C0CF1020C08BF4CEBB7
:10305000D17C04E04FF0080C01E04FEAD17C0CEB8E
:103060004C0324FA03F404F00704B4F1040C06D270
:103070000EEB840CBDE810404CF0010C6047DFE81B
:103080000CF0070802024FF00040A0F5800010BDD0
:103090000846420018BFD2F1807288BF00F000409D
:1030A00010BDFF2141EAD050C005704780F00040BC
:1030B00090EA010F7FF58FAD81F0004100F007B875
:1030C00090EA010F48BF81F000413FF584AD421AFC
:1030D00004D882F00042A0EB020011444FEAD05223
:1030E0004FF07F4C1CEA410FA2EBD15318BF9CEA72
:1030F000026F4AD04FF0004C4CEA00204CEA01210C
:1031000021FA03FCB0EB0C0C0FD412F0FE0F36D0FA
:103110005FEA4C001DD5001240EBC25038BF70472B
:103120001CF03F0F18BF70470BE0A2F101025FEAED
:103130001C2040EBC25038BF70471CF07F0F18BFF7
:103140007047C3F12003994014BF401E20F00100D6
:10315000704780084FEA122308BF7047B0FA80FC1E
:10316000A2EB0C02CCF1280C60FA0CF093EA122FBF
:1031700004BF00EBC25070474FEAC3707047130A98
:103180005FEADC1008BF7047F6E79CEA026F04D0E4
:1031900010EA5C0F08BF0020704710B5FFF73BFF37
:1031A00040DFF63E81F0004070470000C2154FEA54
:1031B000002318BF43F000430ED4D2F1BE0215D352
:1031C00023FA02F1B2F1200C2EBF23FA0CF0C2F167
:1031D000200C03FA0CF070474FEA400CBCF1FE4F94
:1031E00004D24FF000004FF00001704710B5FFF718
:1031F00012FF00BF9224498000204FF00001704769
:103200006FEAE070014670470CF00F03092B08BF0E
:10321000082000F051800A2B0BD0082B18BF7047F4
:1032200008BF1CF0400F0AD04FF000004FF0000123
:1032300070471CF0400F18BF4FF0004070471CF063
:10324000100F08D020F0704300F07F4242EAD30113
:103250004FEA4370704700F0604021F07F4242EA3D
:10326000000201F07F4040EA727070474FF0FF02A9
:1032700012EAD0521CBF92F0FF038B42C2BFD14270
:1032800000EBC1507047002A0AD0002B0BD0002958
:1032900000F00040A4BF40F0FE4040F40000704742
:1032A00000F00040704743024FF00B0C18BF4CF089
:1032B000806C7FF4EBAC70471CF4801F11D01CF4C1
:1032C000E02F03D06FEACC31490070474FF04050F7
:1032D000EFF3008222F0704242EA000282F300889B
:1032E00070474FF00000704730330008391D000868
:1032F000000000000000000080000000000000004E
:1033000000000000010202030405060708090A0B79
:103310000C0D0E0F10100000000000000000010254
:10332000030406070809000000000102030400006E
:103330005049440054330008000000208000000081
:1033400028010008D4330008800000207017000016
:10335000440100080000000000000000010000001F
:10336000100000000000000000127A0000000000C1
:10337000000000000000000000000000000000004D
:10338000000000000000000000000000000000003D
:10339000000000000000000000000000000000002D
:1033A000000000000000000000000000000000001D
:1033B000000000000000000000000000000000000D
:1033C000000000000000000000000000AAAAAAAA55
:0433D00000000000F9
:04000005080000ED02
:00000001FF
