:020000040800F2
:1000000020070020BD010008711E00083D1D0008EA
:100010006D1E0008A9050008AD1F000800000000C3
:100020000000000000000000000000007D1E00082D
:10003000AD05000800000000751E0008811E0008C4
:10004000D7010008D7010008D7010008D701000830
:10005000D7010008791E0008D7010008D701000861
:10006000D7010008D7010008D7010008D701000810
:10007000D7010008D7010008D7010008D701000800
:10008000D7010008D7010008D7010008D7010008F0
:10009000D7010008D7010008D7010008D7010008E0
:1000A000D7010008D7010008D7010008D7010008D0
:1000B000891E0008D7010008D7010008D7010008F1
:1000C000D7010008D7010008D7010008D7010008B0
:1000D000D7010008A11F0008D7010008D7010008B8
:1000E000D7010008D7010008D701000800F002F886
:1000F00000F055F814A696E8000CB244B344DA4573
:1001000001D100F04CF8BAE80F000FA696E83000D5
:10011000A5EB040504EB0607AAEB0704A7F101070A
:100120004FEA15154FEA3414A4F10104AC4201D38F
:1001300000F035F813F0010F18BFFB1A43F001036C
:1001400000F001F8DBE71847F81F00001820000056
:10015000103A24BF78C878C1FAD8520724BF30C8F3
:1001600030C144BF04680C60704700007047000055
:100170000023002400250026103A28BF78C1FBD8B0
:10018000520728BF30C148BF0B607047642900F098
:100190007D80002070471FB51FBD10B510BD00F059
:1001A000C9F91146FFF7F7FF01F002FF00F0E7F988
:1001B00003B4FFF7F2FF03BC00F0EEF909488047F3
:1001C00009480047FEE7FEE7FEE7FEE7FEE7FEE739
:1001D000FEE7FEE7FEE7FEE704480549054A064B51
:1001E00070470000851E0008ED0000082001002077
:1001F0002007002020030020200300200FB41CB59E
:100200000C0007AA009007D04142A14202D320442B
:10021000401E01E04FF0FF30074B7B4469460190E0
:10022000069800F06CF90021002C01D0009A1170A2
:100230001CBC5DF814FB00000703000070B5044609
:1002400085690068C10601D5302600E02026C00778
:1002500007D070BDD4E9012130469047206A401C88
:1002600020626D1EF6D570BD70B5044685690078B4
:10027000C00707D170BDD4E9012120209047206A32
:10028000401C20626D1EF6D570BD00002DE9F041C6
:100290000646002410687529314616A510D0AFF324
:1002A0000080002802DA404213A507E031688A077F
:1002B00001D512A502E0490704D511A5012401E0EA
:1002C000AFF3008000210A2206F1240709E0B0FB09
:1002D000F2FCB0FBF2F302FB1C00303078541846FD
:1002E000491C0028F3D123462A463046BDE8F04198
:1002F00000F0A7B8000000002D0000002B00000057
:10030000200000002DE9F05F894604464FF0000A06
:10031000DFF824B1FB44C0F820A02046E1688847FC
:1003200000287DD0252806D0D4E901219047206AF5
:10033000401C2062F1E700255F462046E1688847BF
:100340002028064607DB312E05D2B81910F8200CFC
:1003500008B10543F1E7A80701D525F00405C4F865
:100360001CA00027C4F818A02A2E09D0304601F09E
:10037000BAFE38B304EB8708303EC8F8186019E0BD
:1003800059F8041B204604EB87029161E168884715
:10039000012F064618D1E069002820DA25F0200553
:1003A0001DE0D8F8180000EB800006EB4000303864
:1003B000C8F818002046E1688847064601F093FE19
:1003C0000028EED1012F0AD02E2E08D12046E16858
:1003D00088477F1C0646022F45F02005C4DBA06934
:1003E000002803DA404245F00105A061E80701D08A
:1003F00025F01005A6B1A6F14100192802D8203633
:1004000045F400654A463146204625604D46FFF7D3
:10041000BDFE60B1012807D0ED1D25F0070000E00A
:1004200007E000F1080978E705F1040975E73046AF
:100430007AE7206ABDE8F09FDC1D00007047704736
:1004400070472DE9F0470D4699469246044600F163
:1004500024080168880604D5E06921F010012160B4
:1004600000E00120A84201DD471B00E00027A16950
:100470007A1902EB0900081AA0612078C00602D49C
:100480002046FFF7DBFE002608E0D4E901211AF838
:1004900006009047206A401C761C20624E45F4DB23
:1004A0002078C0060AD52046FFF7C8FE06E0D4E94A
:1004B000012130209047206A401C2062381EA7F19D
:1004C0000107F4DC07E0D4E9012118F805009047A2
:1004D000206A401C2062281EA5F10105F3DC20469D
:1004E000FFF7C2FE2078000602D50220BDE8F087A3
:1004F0000120FBE701694A1C02610878704700B5DA
:100500008FB0CDE901310021059105497944CDE94C
:10051000031011466846FFF7F5FE0FB000BD00005E
:10052000E5FFFFFFD1E900239A4202D2531C0B6082
:1005300010707047754600F02BF8AE46050069460E
:10054000534620F00700854618B020B5FFF744FE5B
:10055000BDE820404FF000064FF000074FF00008C4
:100560004FF0000BAC46ACE8C009ACE8C009ACE801
:10057000C009ACE8C00921F007018D46704710B5ED
:100580000446AFF300802046BDE81040FFF710BEE0
:10059000004870471000002001491820ABBEFEE75C
:1005A0002600020070470000FEE7000070470000D0
:1005B000EFF3108072B600BFFEE70000014690F82E
:1005C0002100022816D10868D1E90FC3026822F081
:1005D0000E020260026822F001020260012000FAAD
:1005E00003F2CCF8042081F821000020002281F8D9
:1005F00020207047042088630120002281F82020F9
:100600007047000090F82110022923D1026840F2BF
:10061000040C1168C4F2020C21F00E011160136881
:100620002F21C4F202018A4223F00103136015DD79
:100630003023C4F202039A421CD04423C4F20203C2
:100640009A421BD05823C4F202039A421CD14FF4A1
:10065000803321E004218163012070470823C4F224
:1006600002039A420ED01C23C4F202039A420BD119
:10067000102311E04FF480730EE000BF4FF480535D
:100680000AE000BF012307E00CF168014FF080731E
:100690008A4208BF4FF480130121CCF8003080F863
:1006A0002110416B0022002980F8202004BF002087
:1006B000704780B58847002080BD00002DE9F04FCD
:1006C00082B00E68002E00F0FD8041F20042C4F2BC
:1006D0000102042340F2004E904208BF03234FF66C
:1006E000FF7CC4F2010E009300240123C1F2100C20
:1006F0004FF0000A4FF000094BE000BF41F200024A
:10070000C4F20102009F904208BF022704F00C03CC
:100710000F229A402BEA020207FA03F34FEA9A05E6
:100720001A4346F825204E6840F20C45F202DEF8E6
:10073000082054BF22EA080242EA0802C4F2010576
:10074000CEF808202A68B30254BF22EA080242EA1F
:1007500008022A60B303DEF8042054BF22EA08022C
:1007600042EA0802F303CEF80420DEF800204FF03E
:10077000010354BF22EA080242EA0802CEF8002030
:100780000E680AF1010A36FA0AF204F1040400F0D4
:10079000998003FA0AFB16EA0B08F1D04E68664509
:1007A00012DC122E56D8DFE806F0350B4D495555B0
:1007B000555555555555555555555545510000BF3D
:1007C000D1F80C9046E000BF4FF6FF72C1F2210253
:1007D00096420FDC0022C1F2110296421AD000228A
:1007E000C1F21202964215D00022C1F221029642B5
:1007F00010D02FE00022C1F2220296420AD000223D
:10080000C1F23102964205D00022C1F23202964274
:1008100020D100BF8A684AB1012A14BFC0F814B0C1
:10082000C0F810B04FF0080914E000BF4FF0040901
:1008300010E000BFCA6802F104090BE04FF00009A4
:1008400008E000BFCA6802F1080903E0CA6802F1C3
:100850000C0900BF02462646B8F5807F24BF04324B
:10086000203E17680F25B54027EA050509FA06F668
:1008700035431560CA79D2067FF582AF41F218037D
:10088000C4F202031A68AEF57E7642F001021A60E5
:100890001A6802F001020192019A2AF0030256F846
:1008A00002B040F60002C4F20102904208D040F6C5
:1008B0000042C4F2010290427FF420AF012725E7F5
:1008C000002723E702B0BDE8F08F0000002A08BF30
:1008D000090401617047000040F21810C2F20000E4
:1008E0000068704740F2000040F21811C2F20000A8
:1008F000C2F2000100780A681044086070470000E6
:1009000080B542F20000C4F20200016841F010011B
:100910000160032000F094F80F2000F005F800F0CB
:1009200027F8002080BD000070B540F20006C2F23A
:10093000000640F208013278C2F200014FF47A73E7
:100940000968B3FBF2F20446B1FBF2F1084600F08D
:100950008DFB0F2C4FF0010508D838B94FF0FF3050
:1009600021460022002500F03FF87460284670BD43
:1009700080B582B041F21800C4F202000168002282
:1009800041F001010160016801F00101019101994B
:10099000416841F0805141604068002100F0805082
:1009A00000900098052000F01FF8052000F00AF8DC
:1009B0000420C4F201000168022262F31A6101609E
:1009C00002B080BD002848BF704700F01F0101221F
:1009D00002FA01F11C2202EAD0004EF20012CEF21D
:1009E000000281507047000010B54EF60C5CCEF24C
:1009F000000CDCF80030C3F3022E8EF00704042C48
:100A000028BF0424BEF103034FF0FF3E0EFA04F4A6
:100A100038BF0023A14399400EFA03F39A431143D0
:100A200000F00F0200F160430901043A03F564434A
:100A30006244002848BF02F10C03197010BD000089
:100A40004EF60C51CEF200010A684FF6FF031A4031
:100A500060F30A2242F0806040F0FD700860704749
:100A6000002804BF012070472DE9F04381B042F215
:100A70000008C4F202080446D8F800000D4600F051
:100A8000070081420CD9D8F8000020F00700284365
:100A9000C8F80000D8F8000000F00700A8426CD1A8
:100AA000206841F204098107C4F2020917D5410701
:100AB00005D5D9F8001041F4E061C9F8001001072C
:100AC00005D5D9F8001041F46051C9F80010D9F8E3
:100AD0000010A26821F0F0011143C9F80010C0070E
:100AE00042D1D8F8000000F0070085420CD2D8F8B7
:100AF000000020F007002843C8F80000D8F80000E4
:100B000000F00700A84238D12068410707D5D9F87E
:100B10000010E26821F4E0611143C9F800100007F9
:100B200008D5D9F80000216920F4605040EAC100DE
:100B3000C9F80000D9F8002002F00C00082841F2A2
:100B40000020C0F27A004DD142F21F13C2F383415C
:100B5000C0F60003595CD20338D440F60010C0F24E
:100B60003D0048433EE000BF606859F8041C02287D
:100B700008D0012826D1890306D4012001B0BDE8A0
:100B8000F08300BF8901F8D5D9F8001021F00301E6
:100B90000843C9F80000FFF79FFE064641F2883778
:100BA000D9F80000616800F00C00B0EB810F98D01C
:100BB000FFF792FE801BB842F2D9032001B0BDE8D6
:100BC000F08300BF8907D8D5DEE700BFD9F8002041
:100BD00042F21D13C2F34042C0F600039A5C484340
:100BE000B0FBF2F0D9F8001042F20512C1F3031184
:100BF000C0F60002515C40F2080220FA01F140F216
:100C00000400C2F200000068C2F200021160FFF7A7
:100C10008BFE002001B0BDE8F083000040F2080028
:100C200041F20401C2F20000C4F202010068096846
:100C300042F21512C1F30221C0F60002515CC84015
:100C40007047000040F2080041F20401C2F20000C7
:100C5000C4F202010068096842F21512C1F3C22110
:100C6000C0F60002515CC84070470000002804BF75
:100C7000012070472DE9F04182B00446007841F22E
:100C80000006C007C4F202060CD0706800F00C0029
:100C9000042840F081803068800303D56068002814
:100CA00000F04681207880071BD5706810F00C0F8B
:100CB00009D0706800F00C00082840F08780706848
:100CC000C00300F183803068800703D520690128C4
:100CD00040F02E813068616920F0F80040EAC100E0
:100CE00030602078000713D4207840072CD4E569C1
:100CF000002D00F01881706800F00C00082840F00A
:100D0000A780012D40F00481012002B0BDE8F081F0
:100D1000A069002800F084800020C4F24220012154
:100D2000C0F88014FFF7D8FD054600BF706A800741
:100D300000F1B280FFF7D0FD401B0228F6D9032056
:100D400002B0BDE8F08100BFF0695FEAC00808D4D6
:100D5000F06940F08050F061F06900F08050009040
:100D6000009847F20007C4F200073868C00549D46C
:100D7000386840F480703860FFF7AEFD054600BF6C
:100D80003868C0053ED4FFF7A7FD401B6428F7D99B
:100D9000032002B0BDE8F081706800F00C00082864
:100DA00003D17068C0033FF576AF616830680029F1
:100DB00000F00C81B1F5A02F00F00081B1F5803F6B
:100DC00040F01A8140F480301CE100BF2069002807
:100DD00040F20000C4F2422000F08880012101604E
:100DE000FFF77AFD054600BF306880073FF572AF18
:100DF000FFF772FD401B0228F6D9032002B0BDE8C0
:100E0000F08100BFE168306A002900F09D8005296B
:100E100000F09280012940F0AF8040F00100B1E085
:100E20000020C4F242200021C0F88014FFF754FDD6
:100E3000054600BF706A80077FF556AFFFF74CFD8F
:100E4000401B0228F6D9032002B0BDE8F08100BFA4
:100E50000027C4F2422700203866FFF73DFD022D2F
:100E600005460DD13068800140F1DE80FFF734FD8A
:100E7000401B02284FF00300F4D902B0BDE8F08116
:100E8000306880014FD5FFF727FD401B02284FF047
:100E90000300F5D9F1E700BF40F20800C2F20000FC
:100EA000006844F6D351C1F26201A0FB0101480A77
:100EB000019000BF00BF0198411E002801913FF43E
:100EC00013AF00BF0198411E002801913FF40CAF01
:100ED00000BF0198411E002801913FF405AF00BFFB
:100EE0000198411E00280191E4D1FDE60021016036
:100EF000FFF7F2FC054600BF306880077FF5F1AED2
:100F0000FFF7EAFC401B02284FF00300F4D9B4E7D6
:100F10007068216A00F480328A4209D1616A00F463
:100F20007010884204D1002002B0BDE8F08100BFFB
:100F3000012002B0BDE8F08140F004003062306A68
:100F400040F001001EE000BF20F001003062306A76
:100F500020F004003062FFF7BFFC054641F28837FD
:100F6000306A800720D5FFF7B7FC401BB8424FF02E
:100F70000300F5D981E700BF20F001003062306A3C
:100F800020F004003062FFF7A7FC054641F28837E5
:100F9000306A800708D4FFF79FFC401BB842F7D99E
:100FA000032002B0BDE8F081B8F1000F3FF59FAE1D
:100FB000F06920F08050F06199E600BF40F4802095
:100FC0003060306840F480301CE000BF20F4803096
:100FD0003060306820F480203060FFF77DFC0546EB
:100FE000306880037FF55EAEFFF776FC401B642817
:100FF0004FF00300F4D940E720F4803030603068CF
:1010000020F480203060FFF767FC054630688003DD
:101010003FF548AEFFF760FC401B6428F6D903207B
:1010200002B0BDE8F08100BF206AB0F5803F05D175
:101030007168A26821F40031114371607168626ABD
:1010400021F4741111430843706001203866FFF7E2
:1010500043FC0446306880013FF565AFFFF73CFC78
:10106000001B02284FF00300F4D906E7411E0020C0
:10107000B0EB116F1CBF012070474EF21002CEF290
:10108000000251604EF62351CEF20001F0230B70A6
:1010900007219060116070477047000070470000A2
:1010A00090F83C20012A4FF0020236D010B580F8AB
:1010B0003D200268D2F804E0D2F808C00C682EF097
:1010C0007003234340F2FF74C4F20004A242536051
:1010D0000ADCB2F1804F13D040F20043C4F20003A7
:1010E0009A420DD011E000BF42F60043C4F2010362
:1010F0009A4205D040F60003C4F200039A4204D19C
:1011000049682CF08003194391600121002280F886
:101110003D1080F83C20BDE81040104670470000AC
:10112000002804BF0120704710B590F83D1031B978
:10113000002180F83C10044600F070F8204602219F
:1011400080F83D10016840F2FF740B68C4F200049F
:1011500042F6004CA142C4F2010C15DCB1F1804F03
:101160001AD040F20042C4F20002914214D0A142CF
:1011700018DCB1F1804F1DD040F20042C4F20002F1
:10118000914217D01AE000BF614505D040F6000239
:10119000C4F200029142EAD1826823F07003134343
:1011A000A142E6DD614505D040F60002C4F200022E
:1011B000914203D1026923F440731343846923F0FD
:1011C0008002D0F804E0C368224361450A60CB6224
:1011D000C1F828E002D14269CCF8302001224A61EE
:1011E0000B69DB0703D00B6923F001030B6180F867
:1011F000462080F83E2080F83F2080F8402080F88C
:10120000412080F8422080F8432080F8442080F874
:10121000452080F83D20002010BD00000068B0F19E
:10122000804F18BF704780B582B041F21C00C4F2F5
:1012300002000168002241F0010101600068002104
:1012400000F00100019001981C20FFF7CDFB1C204D
:1012500002B0BDE88040FFF7B5BB000090F83D103C
:1012600001291CBF01207047022180F83D10006851
:1012700040F2FF72C168C4F20002904241F00101E5
:10128000C16009DCB0F1804F12D040F20041C4F2DD
:10129000000188420CD012E042F60041C4F2010184
:1012A000884205D040F60001C4F20001884206D110
:1012B000816801F00701062904BF0020704701681A
:1012C00041F00101016000207047000090F83C20CF
:1012D000012A4FF002026CD080B580F83D20D0F892
:1012E00000C04FF67772DCF8083023EA0202CCF82F
:1012F00008200B684F2B29DC1F2B45DD202B46D007
:10130000302B44D0402B40F0AF80D1F804E0C968C6
:10131000DCF82030DCF8202022F00102CCF820207C
:10132000DCF8182022F0F00242EA011123F00A0250
:1013300042EA0E02CCF81810CCF82020DCF8081095
:1013400041F0470121F0300128E000BF6F2B33DD71
:10135000B3F5005F74D0B3F5805F21D0702B40F0FF
:101360008380D1E901E3C968DCF8082043EA0E0371
:1013700022F47F4243EA01211143CCF80810DCF843
:10138000081041F0770109E00BB1102B6CD1DCF8AB
:10139000081021F07001194341F00701CCF8081042
:1013A0000022012180F83D10002180F83C10BDE8AA
:1013B00080401046704700BF502B21D0602B53D186
:1013C000D1F804E0C968DCF82030DCF8202022F0F5
:1013D0001002CCF82020DCF8182022F4704242EAF7
:1013E000013123F0A00242EA0E12CCF81810CCF81A
:1013F0002020DCF8081041F0670121F01001CDE752
:10140000D1F804E0C968DCF82030DCF8202022F0B4
:101410000102CCF82020DCF8182022F0F00242EA89
:10142000011123F00A0242EA0E02CCF81810CCF89F
:101430002020DCF8081041F0570121F02001ADE731
:10144000D1E901E3C968DCF8082043EA0E0322F47D
:101450007F4243EA01211143CCF80810DCF8081060
:1014600041F480419AE700BF01229AE770470000EB
:1014700070B504460068C5680669B10716D515F051
:10148000020113D06FF0020101610121217780690F
:10149000800703D02046FFF7E9FF05E0204600F073
:1014A0008FF8204600F08EF800202077700719D5BD
:1014B00015F0040016D020686FF0040101610221CC
:1014C0002177806910F4407F04D02046FFF7CEFFDB
:1014D00006E000BF204600F073F8204600F072F8E6
:1014E00000202077300717D515F0080014D02068A9
:1014F0006FF00801016104212177C069800703D0E2
:101500002046FFF7B3FF05E0204600F059F82046DB
:1015100000F058F800202077F00619D515F01000DB
:1015200016D020686FF01001016108212177C06991
:1015300010F4407F04D02046FFF798FF06E000BF7C
:10154000204600F03DF8204600F03CF800202077CF
:10155000F00718BF15F0010002D1300609D412E0DF
:1015600020686FF001010161204600F02DF830067F
:1015700009D515F0800006D020686FF08001016168
:101580002046FFF789FD700609D515F0400006D00A
:1015900020686FF040010161204600F025F8B00698
:1015A00058BF70BD15F0200008D021686FF02002F0
:1015B00020460A61BDE87040FFF770BD70BD0000B5
:1015C00070470000704700000068B0F1804F18BFFE
:1015D000704740F27000C2F2000041680131416082
:1015E0000121017070470000704700007047000043
:1015F00070470000B0B582B001680A68CC684B69DA
:1016000002F02F05202D04F0200505D125B102B0F0
:10161000BDE8B04000F044BC5FEA027C1EBF03F0AE
:10162000010E04F4907313EB0E0341D1036BD50646
:1016300018D5012B16D114F0100313D000220192FB
:101640000A6801924A680192019A496949064BD495
:10165000818DC28DC38D002B18BF914240F0F48163
:1016600002B0B0BD13062DD514F080032AD090F837
:101670004120212AF4D18268B2F5805F03D102694A
:10168000002A00F06782026A531C036212784A60E3
:10169000C28C013A1304C284E2D1C86820F08000F1
:1016A000C860C86840F04000C86002B0B0BD00BF6C
:1016B000D30718BF14F4807340F0D080530700F1B3
:1016C000D380D8E05206CBD514F04002C8D0CA6807
:1016D00022F04002CA60202180F8411002B0BDE82B
:1016E000B04000F01BBB00BFC16B0A68526893B2E8
:1016F000002BB5D0858DAB42B2D2C2858969202935
:1017000000F0A180016851E8031F026821F4807194
:1017100042E80313DBB1016851E8031F026821F4BA
:10172000807142E8031393B1016851E8031F026816
:1017300021F4807142E803134BB1016851E8031FA3
:10174000026821F4807142E80313002BDAD10168AA
:1017500051E8051F026821F0010142E80513C3B3F7
:10176000016851E8051F026821F0010142E80513F4
:101770007BB3016851E8051F026821F0010142E8CE
:10178000051333B3016851E8051F026821F0010118
:1017900042E80513002BDAD11BE000BF016851E8D5
:1017A000051F026821F0400142E80513DBB1016822
:1017B00051E8051F026821F0400142E8051393B18A
:1017C000016851E8051F026821F0400142E8051355
:1017D0004BB1016851E8051F026821F0400142E861
:1017E0000513002BDAD1202180F84210002101637B
:1017F000016851E8031F026821F0100142E8031359
:10180000DBB1016851E8031F026821F0100142E8D2
:10181000031393B1016851E8031F026821F010011E
:1018200042E803134BB1016851E8031F026821F03D
:10183000100142E80313002BDAD1C16B04460846BD
:10184000FEF7BCFE204602214163818DC28D891ABC
:1018500089B202B0BDE8B040FFF7C8BE436C43F0A8
:1018600001034364530706D5BEF1000F03D0436C58
:1018700043F002034364930706D5BEF1000F03D083
:10188000436C43F004034364BCF1000F06D55EEAE9
:10189000050303D0436C43F008034364436C002BFF
:1018A0003FF4DEAE920605D525B1044600F0F8FA05
:1018B000216820464969426C01F0400102F00802AB
:1018C000891800F0B98000BF016851E8031F026861
:1018D00021F4907142E80313BBB3016851E8031F80
:1018E000026821F4907142E8031373B3016851E870
:1018F000031F026821F4907142E803132BB30168BF
:1019000051E8031F026821F4907142E80313002B91
:10191000DAD11AE0016851E8051F026821F00101DF
:1019200042E80513DBB1016851E8051F026821F0A8
:10193000010142E8051393B1016851E8051F0268EF
:1019400021F0010142E805134BB1016851E8051F80
:10195000026821F0010142E80513002BDAD1016B86
:10196000012924D1016851E8031F026821F0100108
:1019700042E80313DBB1016851E8031F026821F05C
:10198000100142E8031393B1016851E8031F026894
:1019900021F0100142E803134BB1016851E8031F25
:1019A000026821F0100142E80313002BDAD1202154
:1019B00080F842100021016301684969490640F13D
:1019C000C380016851E8051F026821F0400142E828
:1019D0000513DBB1016851E8051F026821F04001E1
:1019E00042E8051393B1016851E8051F026821F030
:1019F000400142E805134BB1016851E8051F026838
:101A000021F0400142E80513002BDAD1C16B002917
:101A100000F09A8041F69562C0F60002044608463E
:101A20004A63FEF7EFFD00283FF41AAEE06B416B0E
:101A300002B0BDE8B04008470446FFF7D9FD0020DA
:101A4000606402B0B0BD00BF891A00BF026852E8EE
:101A5000032F036822F4907243E80325BDB30268A4
:101A600052E8032F036822F4907243E8032575B30C
:101A7000026852E8032F036822F4907243E80325BA
:101A80002DB3026852E8032F036822F4907243E8F2
:101A90000325002DDAD11AE0026852E8052F036809
:101AA00022F0010243E80525DDB1026852E8052F66
:101AB000036822F0010243E8052595B1026852E867
:101AC000052F036822F0010243E805254DB10268A5
:101AD00052E8052F036822F0010243E80525002D96
:101AE000DAD1202280F8422000220263026852E804
:101AF000032F036822F0100243E80325DDB10268DA
:101B000052E8032F036822F0100243E8032595B141
:101B1000026852E8032F036822F0100243E803250D
:101B20004DB1026852E8032F036822F0100243E827
:101B30000325002DDAD1022289B2426302B0BDE84A
:101B4000B040FFF753BD00BF02B0BDE8B040FFF7A3
:101B50004FBD00BF026A32F8023B6FF35F234B6058
:101B6000026295E5002804BF0120704710B50446C5
:101B700090F8410028B9002084F84000204600F089
:101B800063F8242084F841002068D4E90212C36875
:101B900023F40053C360036923F440531A430261E2
:101BA000D4E904231143C268194341F20C639A43F8
:101BB0001143C1604169A26921F44071114343F6A8
:101BC0000002C4F201029042416103D0FFF726F8FF
:101BD00002E000BFFFF736F8D4E90023192148439B
:101BE0009900B0FBF1F048F21F5CC5F2EB1CA0FBC2
:101BF0000C314FF69C734909C0F6FF7301FB0300DB
:101C0000322303EB0010A0FB0C03F02000EA53107A
:101C100000EB0110C3F343110844906010692021C8
:101C200020F490401061506920F02A005061D06883
:101C300040F40050D0600020606484F8411084F8C3
:101C40004210606310BD000070B586B040F600041D
:101C5000C4F20104006804F540510026884205964C
:101C6000CDE90366029601D006B070BD41F21800BE
:101C7000C4F20200016802AD41F4804101600168D4
:101C800001F4804101910199016841F00401016072
:101C90000068294600F00400019001984FF400709C
:101CA000029002200390032005902046FEF706FDD7
:101CB0004FF48060CDE90206204629460496FEF7DF
:101CC000FDFC252000210022FEF78EFE2520FEF7D8
:101CD00079FE06B070BD00007047000090F84130FA
:101CE000202B07D100294FF0010318BF002A05D18E
:101CF0001846704702231846704700BF0162002350
:101D000021218284C284436480F841100068C16844
:101D100041F08001C160184670470000006843F63A
:101D20000001C4F20101884218BF704740F2700000
:101D3000C2F200000021417070470000FEE7000081
:101D400070B586B0002541F21800CDE90455CDE903
:101D50000255C4F20200016841F2000441F0100192
:101D600001600168C4F2010401F0100101910199C0
:101D70000168002241F02001016001684FF4005623
:101D800001F0200101910199016841F00401016015
:101D900000684FF4005100F00400019001982046C3
:101DA000FEF794FD0120CDE903050220059002A96C
:101DB00020460296FEF782FC06B070BD80B586B064
:101DC00040F288000021C2F200004FF0804247F646
:101DD000FF434FF0630C0591CDE90311CDE90011EC
:101DE000C0E90023C0E9021C01618161FFF798F995
:101DF000002818BFFEF7DCFB4FF48050029040F241
:101E00008800C2F2000002A9FFF760FA002818BF9C
:101E1000FEF7CEFB40F28800C2F200006946FFF7F1
:101E20003FF9002818BFFEF7C3FB06B080BD0000D5
:101E300080B540F2D00043F60001C2F20000C4F2C7
:101E4000010100234FF00C0C4FF4E13280E80E004A
:101E5000C0E90333C0E905C3C361FFF783FE00286F
:101E600008BF80BDBDE88040FEF7A2BBFEE70000D2
:101E7000FEE7000070470000704700007047000058
:101E8000FEF730BD7047000040F28800C2F200004B
:101E9000FFF7EEBA406A0021C185C184FFF7A8BBF5
:101EA00081B090F84210222921D183680246B3F50F
:101EB000805F09D152F8281F52F8183C002B63D0DC
:101EC00003685B680AE000BF52F8281F13B9036972
:101ED000002BF5D003685B6803F07F030B7011687B
:101EE00001311160C18D01390A04C18502D001B0F0
:101EF000704700BF0168CA6822F02002CA60CA6841
:101F000022F48072CA604A6922F001024A612021EB
:101F100080F8421000214163026B012A3CD1016329
:101F2000016851E8031F026821F0100142E8031321
:101F3000DBB1016851E8031F026821F0100142E89B
:101F4000031393B1016851E8031F026821F01001E7
:101F500042E803134BB1016851E8031F026821F006
:101F6000100142E80313002BDAD101680A68D20697
:101F700006D5002200920A680092496800910099F3
:101F8000818D01B0FFF732BB026852686FF35F22A8
:101F900021F8022B8162A5E701B0FFF79DBE00008A
:101FA00040F2D000C2F20000FFF724BBFEE70000C1
:101FB00092B0FEF7A5FC00240120CDE90D44CDE947
:101FC0000B4408900C904FF400204FF48031022510
:101FD000119008A8CDE90914CDE90F51FEF746FE8E
:101FE00020B1EFF3108072B6FEE700BF0F20CDE9FD
:101FF000030503A80121CDE905440794FEF730FD50
:1020000020B1EFF3108072B6FEE700BFFFF798FE35
:10201000FFF70EFFFFF7D2FE40F28800C2F2000089
:10202000FFF71CF940F270074CF6CD4B48F68906D5
:102030004BF2C53842F22F19C2F20007CCF6CC4B56
:10204000C8F68806C9F2A218C0F600090DF1200AE8
:10205000387879780029FBD110F00100F8D0002001
:1020600038707868A0FB0B01C808B860B86880FBBE
:10207000061211184A1102EBD171C1EB0111A0EB4C
:102080008100F860B86880FB06121044411101EB32
:10209000D07080FB061211184A1102EBD171C1EB0E
:1020A0000111A0EB81003861B86880FB0812104470
:1020B000C11201EBD07078617B693C69FD685046C4
:1020C00014214A46CDE90045FEF798F80106BFD035
:1020D0000121C2B240F2D0007970C2F20000514634
:1020E000FFF7FCFDB4E730380A2801D20120704721
:1020F00000207047040000080000000000000002FB
:1021000000010000100000000000000000010203B8
:10211000040607080900000000010203040102028E
:10212000030405060708090A0B0C0D0E0F101025F5
:102130003032643A253032643A253032640A000085
:10214000602100080000002010000000500100087D
:102150007021000810000020100700007001000826
:10216000010000001000000000127A0000000000D2
:04000005080000ED02
:00000001FF
