:020000040800F2
:100000007808002089010008931800085F1700088D
:1000100091180008F3020008491D000800000000C4
:100020000000000000000000000000009718000819
:100030003703000800000000951800089918000810
:10004000A3010008A3010008A3010008A301000800
:10005000A3010008A3010008A3010008A3010008F0
:10006000A3010008A3010008A3010008A3010008E0
:10007000A3010008A3010008F5020008010300081D
:10008000A3010008A301000891020008A3010008D1
:10009000A3010008A3010008A3010008A3010008B0
:1000A000A3010008A3010008A3010008A3010008A0
:1000B000A3010008A3010008A3010008A301000890
:1000C000A3010008A3010008A3010008A301000880
:1000D000A3010008FD1C0008A3010008A3010008FB
:1000E000A3010008A3010008A301000800F002F822
:1000F00000F03AF80AA090E8000C82448344AAF188
:100100000107DA4501D100F02FF8AFF2090EBAE885
:100110000F0013F0010F18BFFB1A43F0010318473B
:10012000241D0000441D0000103A24BF78C878C187
:10013000FAD8520724BF30C830C144BF04680C60ED
:10014000704700000023002400250026103A28BF35
:1001500078C1FBD8520728BF30C148BF0B60704739
:100160001FB51FBD10B510BD00F058F81146FFF7C0
:10017000F7FF01F0FBFD00F076F803B4FFF7F2FFA4
:1001800003BC00F07DF8000009488047094800479B
:10019000FEE7FEE7FEE7FEE7FEE7FEE7FEE7FEE737
:1001A000FEE7FEE704480549054A064B7047000094
:1001B00015190008ED0000087802002078080020DA
:1001C00078040020780400204FF0000200B51346A8
:1001D00094469646203922BFA0E80C50A0E80C5067
:1001E000B1F12001BFF4F7AF090728BFA0E80C5018
:1001F00048BF0CC05DF804EB890028BF40F8042B11
:1002000008BF704748BF20F8022B11F0804F18BF7D
:1002100000F8012B7047704770477047754600F033
:100220002BF8AE4605006946534620F00700854688
:1002300018B020B5FFF7B6FFBDE820404FF000062C
:100240004FF000074FF000084FF0000B21F00701BE
:10025000AC46ACE8C009ACE8C009ACE8C009ACE801
:10026000C0098D46704710B50446AFF300802046A4
:10027000BDE81040FFF781BF00487047180200201A
:1002800001491820ABBEFEE72600020070470000BF
:10029000014800F0D4B800001801002070B50446F1
:1002A00000688168C943C90717D1816821F001013D
:1002B000816000F087FC05460AE000BF00F082FC88
:1002C000401B022804D920688068C043C00706D0BC
:1002D00020688068C043C007F0D0002070BDA06ACD
:1002E00040F01000A062E06A40F00100E0620120EE
:1002F00070BDFEE7014800F045BA0000D4010020BF
:10030000014800F03FBA00009001002030B590F89D
:1003100040500124AC40C56B6C6004686360436866
:10032000102B036803D099600068C26030BD9A60EA
:100330000068C16030BD704772B6FEE770470000CC
:10034000F8B50024009490F824202546012A12D004
:10035000012280F824204A681F23072A0DD206684C
:10036000776B521E02EB820293409F430B689340CF
:100370001F43776319E00220F8BD06680D2A0AD2F0
:10038000376BD21F02EB820293409F430B6893406E
:100390001F43376309E0F76A0D3A02EB820293408C
:1003A0009F430B6893401F43F7620A680723066860
:1003B0000A2A0AD3F7680A3A02EB420293409F43A3
:1003C0008B6893401F43F76008E0376902EB4202F5
:1003D00093409F438B6893401F4337610A68102AFC
:1003E00001D0112A20D1124B02689A4217D193688A
:1003F0001B0219D4936843F4000393600968102921
:1004000012D10C490C4A0968B1FBF2F101EB8101F0
:10041000490000E0491E00910029FBD104E0816AF7
:1004200041F020018162012480F824502046F8BD6B
:10043000002401401400002040420F00704770B5B6
:100440000446006806684568A90625D5B10723D586
:10045000A16AC90603D4A16A41F40071A16281684E
:10046000C1F34241072910D1217B71B9416821F0C4
:1004700020014160A06A20F48070A062A06AC004DC
:1004800003D4A06A40F00100A0622046FFF7D6FF27
:1004900021686FF01200086028062ED570072CD551
:1004A000A06AC00603D4A06A40F40050A06220688D
:1004B0008168C1F30231072909D04168490515D483
:1004C0008168C1F34241072910D1217B71B941688C
:1004D00021F080014160A06A20F48050A062A06AEF
:1004E000C00503D4A06A40F00100A0622046FFF7D7
:1004F00025FF21686FF00C00086068060CD5F00736
:100500000AD0A06A40F48030A062204600F094F83F
:1005100021686FF00100086070BD00002DE9F04116
:100520004FF0000704003D467ED0A06A002628B99F
:10053000E66284F82460204600F080F82046FFF749
:10054000ADFEA16AC90600D420B1A06A40F0100037
:10055000A06269E0A16A21F4885141F00201A16220
:100560006268E169237B0A4347EA43010A43A168C1
:100570004FF48077B94209D0012907D05FF000011C
:1005800094F814C0BCF1010F02D00AE03946F7E735
:10059000F3B1A36A43F02003A362E36A43F00103CB
:1005A000E3622368D3F804C02CF4694C4CEA010CD4
:1005B000C3F804C021688B68DFF870C003EA0C033D
:1005C00013438B60A168B9420BD0012909D00CE01C
:1005D000DFF85CC0A3690CEB43330B4343F40061C9
:1005E000DFE7218A0D05A5F580152168CB6A23F484
:1005F00070032B43CB62216889680E4B19409142EE
:1006000008D1E662A16A21F0020141F00101A16274
:10061000BDE8F081A06A20F0020040F01000A06266
:10062000E06A40F00100E0620120F1E7FDF7E1FF40
:1006300000E0FFFFFE0E1FFF7047000000B585B011
:1006400000210091019102910391006812498842B2
:1006500020D11248816941F400718161816901F4FE
:1006600000710491816941F00401816180696946EA
:1006700000F004000490022000900320019008483C
:1006800000F0A2F900221146122000F007FB122010
:1006900000F0F6FA05B000BD002401400010024051
:1006A0000008014010B590F821100022022905D061
:1006B0000421816380F82020012010BD01680B68AF
:1006C00023F00E030B6001680B6823F001030B603D
:1006D00090F84030C46B012101FA03F3636080F8A5
:1006E000211080F82020104610BD000010B590F8B1
:1006F00021100024022903D00421816301243DE05C
:1007000001680A6822F00E020A6001680A6822F095
:1007100001020A601A4A0168914201D1012121E0D7
:10072000174A1432914201D110211BE0144A283299
:10073000914201D1891515E0114A3C32914201D113
:1007400089140FE00E4A5032914202D14FF48031A9
:1007500008E00B4A6432914202D14FF4801101E06B
:100760004FF08071064A083A5160012180F821104B
:10077000002180F82010416B01B18847204610BD50
:10078000080002402DE9F05FC16B0C6801680B683E
:10079000D0F840C0042202FA0CF2494DDFF824A13F
:1007A000494E4A4FDFF828B1DFF828E122422CD029
:1007B0005A072AD50A68920603D40A6822F004026E
:1007C0000A600168A94201D1042219E0514501D112
:1007D000402215E0B14202D14FF4806210E0B942EC
:1007E00002D14FF480420BE0594502D14FF48022F0
:1007F00006E0714502D14FF4800201E04FF08062C3
:100800002F4908394A60C16A3BE04FF0020808FAF4
:100810000CF818EA040F4FF000094FF0010235D030
:100820005FEA837832D50B689B0605D40B6823F00A
:100830000A030B6080F821200168A94201D102223D
:1008400019E0514501D1202215E0B14202D14FF407
:10085000007210E0B94202D14FF400520BE059454A
:1008600002D14FF4003206E0714502D14FF400127C
:1008700001E04FF00072124908394A6080F8209078
:10088000816A00291AD0BDE8F05F0847082505FAFB
:100890000CF5254212D01B0710D50B6823F00E0370
:1008A0000B6090F84010C36B02FA01F1596082634B
:1008B00080F8212080F82090016BE2E7BDE8F09FEE
:1008C000080002401C000240300002404400024088
:1008D000580002406C00024030B528B308C81349E4
:1008E00014221944B1FBF2F18900C16310498163FC
:1008F000022141771A6843F6F0718A43D0E9001467
:100900002143D0E902452C43214304692143446932
:10091000214384692143114319600021416301226D
:1009200042770177084630BD012030BDF8FFFDBF9A
:100930000000024070B5044690F820000025012810
:100940000CD0012084F8200094F821600020012EB2
:1009500006D084F820000225284670BD022070BD14
:10096000022684F82160A0632068066826F001064C
:1009700006602046FFF7CAFCE06A0028206801688C
:1009800002D041F00E0106E021F004010160206870
:10099000016841F00A0101602068016841F001012D
:1009A0000160D9E770B5044600F00CF90546601CFB
:1009B00002D004480078044400F004F9401BA0422F
:1009C000FAD370BD080000202DE9F84FDFF8B89188
:1009D0000024A9F1040B23460F2709F1040AABF107
:1009E000040EC9E00125A5402A40AA427DD1674EE8
:1009F000D1F804C0ACEB0608B44532D014DCBCF12D
:100A0000030F3AD009DCBCF1000F2AD0BCF1010F72
:100A10001CD0BCF1020F31D11DE0BCF1110F17D079
:100A2000BCF1120F2AD119E0B8F5881F19D006DCE5
:100A3000B8F5803F15D0B8F5801F1FD111E0B8F58B
:100A4000001F0ED0B8F5041F18D10AE0CB6815E0DE
:100A5000CB681B1D12E0CB6808330FE0CB680C336A
:100A60000CE08B682BB1012B4FF0080303D04561DC
:100A700004E0042302E0056100E00023FF2A01D81E
:100A8000064601E000F104064FEA840501D9A5F10C
:100A90002005D6F8008007FA05FC28EA0C0803FABE
:100AA00005F548EA0508C6F800804D68ED0062D5F6
:100AB000374DAE6946F00106AE61AD6924F003061C
:100AC00005F001050095334D06EB050CDCF80850E8
:100AD000A607360F07FA06F825EA0805DFF8B880FA
:100AE000404503D14FF0000817E044E0DFF8AC8048
:100AF000404502D14FF001080FE0DFF8A4804045E7
:100B000002D14FF0020808E0DFF89880404502D19A
:100B10004FF0030801E04FF0040808FA06F848EA2D
:100B20000508CCF808804D68D9F80060ED024D4604
:100B300001D5164300E096432E604D68DAF8006058
:100B4000AD02554601D5164300E096432E604D6830
:100B5000DBF80060AD035D4601D5164300E0964327
:100B60002E604D68DEF80060ED03754601D5164332
:100B700000E096432E60641C0D682A46E5407FF431
:100B800031AFBDE8F88F00000804014000001110EB
:100B9000001002400000014000080140000C01402C
:100BA0000010014000140140C26821EA02030A401B
:100BB00043EA0241016170470AB1016170470904CB
:100BC000FBE7000001488068704700000800002033
:100BD0000248816802781144816070470800002053
:100BE000074810B5016841F010010160032000F0D2
:100BF00075F80F2000F006F800F024F8002010BD72
:100C00000020024070B50D4D04464FF47A712878EB
:100C1000B1FBF0F00A490968B1FBF0F000F052FBBB
:100C200048B9102C07D200222146501E00F036F899
:100C300000206C6070BD012070BD00000800002025
:100C4000140000200C4808B5816941F00101816160
:100C5000816901F001010091C16941F08051C161D8
:100C6000C06900F0805000900448416821F0E061C4
:100C700041F00071416008BD0010024000000140D9
:100C8000002809DB00F01F0201219140400980008B
:100C900000F1E020C0F8001170470000F0B40E4BE6
:100CA0001B680C46C3F30223C3F10705042D00D9CA
:100CB0000425191D072901D2002300E0DB1E0126AF
:100CC00006FA05F1491E214099409E40761E1640C5
:100CD0003143F0BC01F039B80CED00E0064900F0FA
:100CE000070208684FF6FF03184040EA0220034A53
:100CF00010430860704700000CED00E00000FA05AA
:100D00002DE9F84305460078354CC00754D0E0691A
:100D10000026C00008D4E06940F08050E061E0693E
:100D2000012600F0805000902E480168C90512D4B9
:100D30000168804641F480710160FFF743FF074678
:100D400005E000BFFFF73EFFC01B642823D8D8F89A
:100D50000000C005F6D5206A10F4407021D0A988A3
:100D600001F4407181421CD0206A1F49012220F405
:100D700040700A6000220A602062C00711D0FFF7AD
:100D800021FF074641F2883808E000BFFFF71AFF4D
:100D9000C11B414502D90320BDE8F883206A8007C2
:100DA000F4D5206A696820F44070084320621EB1BF
:100DB000E06920F08050E0612878800705D5606800
:100DC000A96820F44040084360602878C00605D533
:100DD0006068E96820F48000084360600020DBE779
:100DE0000010024000700040400442422DE9F047EC
:100DF0000F46050061D0434E306800F00700B8424E
:100E000009D2306820F0070038433060306800F0C5
:100E10000700B84251D128683B4C810712D54007E2
:100E200003D5606840F4E06060602878000703D56F
:100E3000606840F4605060606068A96820F0F0006D
:100E4000084360602878C00728D06868012810D05F
:100E50002168022810D0890700292EDA616821F064
:100E6000030101436160FFF7ADFE804641F288391E
:100E70000DE021688903EFE78901EDE7FFF7A2FEA6
:100E8000A0EB0801494502D90320BDE8F08760685E
:100E9000696800F00C00B0EB810FEFD1306800F012
:100EA0000700B8420BD9306820F0070038433060A3
:100EB000306800F00700B84201D00120E5E728784B
:100EC000400705D56068E96820F4E0600843606089
:100ED0002878000706D56068296920F4605040EA48
:100EE000C100606000F038F86168084AC1F303117E
:100EF000515CC8400649086006480068FFF782FE5A
:100F00000020C2E700200240001002402A1E000814
:100F1000140000200C0000200448054900684968BE
:100F2000044AC1F30221515CC840704714000020FC
:100F3000001002403A1E000804480549006849684C
:100F4000044AC1F3C221515CC8407047140000201C
:100F5000001002403A1E00080E4A51680E4801F087
:100F60000C03042B11D0082B0FD10C48C1F3834381
:100F7000C903C05C0AD55168084AC1F34041921EBA
:100F8000515C054A5043B0FBF1F0704704494843B7
:100F9000704700000010024000127A001A1E00087C
:100FA00000093D002DE9F84F040070D02078C04DB5
:100FB000C00749D06868C0F38100012807D068687D
:100FC000C0F38100022809D16868C00306D52868EB
:100FD000800339D560680028E7D035E06068B0F557
:100FE000803F0BD010B1B0F5A02F11D0286820F4AD
:100FF00080302860286820F4802002E0286840F4CF
:1010000080302860606890B1FFF7DCFD06460AE09A
:10101000286840F480202860F0E700BFFFF7D2FD89
:10102000801B642873D828688003F7D50CE0FFF78D
:10103000C9FD064605E000BFFFF7C4FD801B64281C
:10104000F0D828688003F7D420789A4E80074FF0B4
:1010500001094FF0000839D5686810F00C0F07D06F
:101060006868C0F38100022809D16868C00306D40B
:101070002868800714D52069012808D110E020696C
:10108000B0B1C6F80090FFF79DFD074605E00AE104
:10109000FFF798FDC01B0228C4D828688007F7D541
:1010A0002868616920F0F80040EAC10028600DE07E
:1010B000C6F80080FFF786FD074604E0FFF782FDD3
:1010C000C01B022823D828688007F7D4207800079F
:1010D0002CD57948A169D9B1C0F80090FFF772FD0D
:1010E000074604E0FFF76EFDC01B02280FD8686AB0
:1010F0008007F7D571484FF4FA510068B0FBF1F062
:10110000009000BF0098411E0091FAD20EE080E0EE
:10111000C0F80080FFF756FD074604E0FFF752FDD8
:10112000C01B022875D8686A8007F7D4207840076A
:1011300060D5E8690027C00008D4E86940F0805015
:10114000E861E869012700F0805000905C48016880
:10115000C90513D40168834641F480710160FFF72B
:1011600031FD824606E000BFFFF72CFDA0EB0A0030
:1011700064284ED8DBF80000C005F5D5E0680128EA
:101180000AD008B1052813D0286A20F0010028628F
:10119000286A20F0040002E0286A40F0010028627A
:1011A000E06841F2883B98B1FFF70CFD82460BE006
:1011B000286A40F004002862EEE700BFFFF702FD56
:1011C000A0EB0A0159455AD8286A8007F6D50CE0E9
:1011D000FFF7F8FC824605E0FFF7F4FCA0EB0A01FC
:1011E00059454CD8286A8007F6D41FB1E86920F029
:1011F0008050E861E06988B36968C1F38101022920
:1012000044D00228C6F8608004D0FFF7DBFC044617
:1012100038E034E0FFF7D6FC074604E0FFF7D2FCE5
:10122000C01B02282BD828688001F7D4206AB0F5AB
:10123000803F05D16868A16820F4003008436860E9
:10124000D4E908010843696821F47411084368600F
:10125000C6F86090FFF7B6FC044606E025E000BF44
:10126000FFF7B0FC001B022809D828688001F7D5D9
:101270001BE000BFFFF7A6FC001B022802D90320D9
:10128000BDE8F88F28688001F4D40EE00128F7D07B
:101290006868226A00F48031914204D1616A00F4E6
:1012A0007010884201D00120EAE70020E8E7000042
:1012B000001002400000424280044242140000201C
:1012C0000070004010B5401EB0F1807F01D30120B6
:1012D00010BD4FF0E02460610F21601700F035FD74
:1012E0000020A06107202061002010BD70477047DA
:1012F000F8B5016804460868CA684B6910F00F0F1A
:101300004FF0000559D003F0010602F490773743FF
:1013100065D0C10705D0D10503D5616C41F001014D
:101320006164410705D5D90703D0616C41F0020122
:101330006164810705D5D90703D0616C41F00401D0
:101340006164010707D502F02001314303D0616CCD
:1013500041F008016164616C00293AD0800604D52F
:10136000900602D5204600F08AFB20684069616C37
:10137000C0F38010090700D460B3204600F04AFB98
:1013800020684069400621D52068143050E8001FCD
:1013900021F0400140E80012002AF5D1E06BA8B12D
:1013A0006D494163E06BFFF7A1F9002811D0E06BB4
:1013B000416B01B0BDE8F040084783060FD59306A6
:1013C0000DD52046BDE8F84000F059BB2046FFF798
:1013D0008EFFF8BD2046FFF78AFF6564F8BD266BD7
:1013E0002023012E7CD1C6067AD5D60678D508688A
:1013F0004868009048694FF00206400640D5E16B0E
:10140000086840680004000CE8D0A28D8242E5D94B
:10141000E085886920282DD020680C3050E8001F16
:1014200021F4807140E80012002AF5D120681430C0
:1014300050E8001F21F0010140E80012002AF5D118
:101440002068143050E8001F21F0400140E80012ED
:10145000002AF5D184F84230256320680C3050E82A
:10146000001F21F0100140E80012002AF5D1E06BC6
:10147000FFF718F96663A08DE18D401A81B22AE06A
:10148000A08DE18D401A81B2E08D0028A6D0002900
:10149000A4D022680C3252E8000F20F4907042E889
:1014A0000007002FF5D12068143050E8002F22F0FB
:1014B000010240E80027002FF5D184F8423025636F
:1014C00020680C3050E8002F22F0100240E8002382
:1014D000002BF5D166632046FFF708FFF8BDFFE754
:1014E00005062BD5150629D594F841002128F5D1FC
:1014F000A068B0F5805F01D12069B0B1206A411CBD
:101500002162216800784860E08C401E0004000CD5
:10151000E084E3D12068C16821F08001C1602068C7
:10152000C16841F04001C160D8E7206A0088C0F37B
:1015300008004860206A801C2062E5E74006CDD59F
:101540005006CBD5CA68204622F04002CA6084F813
:10155000413000F003F9C1E71719000870B5040025
:1015600004D094F84100002510B106E0012070BDC0
:1015700084F84050204600F023F8242084F84100ED
:101580002068C16821F40051C160204600F0D8FAFB
:101590002068016921F4904101612068416921F0CE
:1015A0002A0141612068C16841F40051C16065644D
:1015B000202084F8410084F842006563002070BD5B
:1015C000F0B585B00024064600940194029403947B
:1015D00000682D49884255D12C48816941F48041E9
:1015E0008161816901F480410491816941F00401C4
:1015F00081618069264D00F0040004904FF4007072
:101600000090022001900320039069462846FFF7CE
:10161000DBF92815CDE90004694628460294FFF756
:10162000D3F91D4D1B488027C5E90004C5E90247D1
:1016300020202C61C5E905402846EC61FFF74CF9F4
:1016400008B1FEF779FEF5636E62134D114844351B
:10165000143801C5102091C50F4845F81049443091
:101660006C61AC61EC61FFF737F908B1FEF764FE1D
:10167000B5630022114625206E62FFF70FFB25207F
:10168000FFF7FEFA05B0F0BD00380140001002403F
:1016900000080140580002409001002090F84230BC
:1016A000202B01D00220704721B11AB1002303631F
:1016B00000F0A2BA01207047704770472DE9F84347
:1016C000044690F84100984616460D46202802D060
:1016D0000220BDE8F88385B17EB10020606421203E
:1016E00084F84100FFF76EFAA6848146E684A0687C
:1016F0002027B0F5805F02D003E00120E9E72069F0
:1017000010B12E4600250EE000260CE08021204678
:1017100000F0BAFAA8B9C6B116F8010B2168486002
:10172000E08C401EE084E08C4B464FF00002CDF888
:1017300000800028EAD14FF04001204600F0A4FAD2
:1017400040B184F841700320C3E735F8020BC0F3C1
:101750000800E3E784F841700020BAE77047FEE72D
:101760003EB5002410480094019402940D49846011
:10177000016004730475012505614FF46021446024
:10178000C161FEF7CBFE08B1FEF7D6FD0095CDE9AD
:10179000015469460448FEF7D3FD002801D0FEF746
:1017A000CBFD3EBD00240140180100200D4808B5C6
:1017B000416941F0010141614069002200F00100EE
:1017C000009011460E20FFF769FA0E20FFF758FA35
:1017D000002211460F20FFF761FABDE808400F20F4
:1017E000FFF74EBA0010024070B586B000241848CA
:1017F0000094019402940394816941F01001816185
:10180000816901F010010491816941F02001816139
:10181000816901F020010491816941F00401816135
:1018200080690C4E00F004004FF400550490002233
:1018300029463046FFF7C0F901200095CDE90104A3
:101840000220039069463046FFF7BEF806B070BD2F
:1018500000100240001001400C4810B50A49016018
:101860004FF4E1314160002181600C22C160C0E988
:1018700004128161C161FFF771FE002803D0BDE849
:101880001040FEF759BD10BD00380140480100204E
:10189000FEE7FEE770477047FFF79AB930B593B09F
:1018A00028216846FEF790FC14210AA8FEF78CFC5C
:1018B000002501200F9510951195010412958DE8D2
:1018C000230004904FF4E010CDE90810022407949F
:1018D0006846FFF767FB08B172B6FEE70AA90F205A
:1018E00081E831004FF48060CDE90D0502210AA89E
:1018F000FFF77CFA08B172B6FEE74FF40040119092
:101900000F940FA8FFF7FCF9002801D072B6FEE78C
:1019100013B030BD704710B5406A0021C185C18445
:10192000FFF7E5FC10BD70B5446A2068406994F883
:101930004110C0F3C0100025212904D118B1E5845D
:10194000204600F08EF82068406994F84210C0F3F9
:101950008010222904D118B1E585204600F05AF8FC
:10196000606C40F0100060642046FFF7C0FC70BD62
:1019700010B50146406A096809684FF000028906FF
:101980002ED4C28501680C3151E8003F23F48073E6
:1019900041E80034002CF5D10168143151E8003FD2
:1019A00023F0010341E80034002CF5D10168143123
:1019B00051E8003F23F0400341E80034002CF5D10A
:1019C000202180F84210016B012909D101680C31F6
:1019D00051E8003F23F0100341E80034002CF5D11A
:1019E0004263016B012902D0FFF766FE10BD818DB5
:1019F000FFF77CFC10BD10B5406A01214163016B0B
:101A0000012902D0FFF759FE10BD818D4908FFF76B
:101A10006DFC10BD01680C3151E8002F22F490726A
:101A200041E80023002BF5D10168143151E8002F63
:101A300022F0010241E80023002BF5D1016B0129BE
:101A400009D101680C3151E8002F22F0100241E861
:101A50000023002BF5D1202180F8421000210163E2
:101A6000704701680C3151E8002F22F0C00241E8B4
:101A70000023002BF5D1202180F84110704708B5D4
:101A800090F84210222901D0022008BD82684FF44C
:101A900080539A4201D1016921B1816A9A421BD0D7
:101AA0004AB10AE00268816A5268C2F308020A80F9
:101AB000816A891C08E0026972B10268526802F00A
:101AC0007F020A70816A491C8162C18D491E090426
:101AD000090CC18503D01BE002685268F1E7016878
:101AE000CA6822F02002CA600168CA6822F48072C3
:101AF000CA6001684A6922F001024A61202180F827
:101B0000421000214163026B012A03D0FFF7D4FD8C
:101B1000002008BD016301680C3151E8002F22F05C
:101B2000100241E80023002BF5D101680A68D206B3
:101B300002D50A6849680091818DFFF7D7FBE7E776
:101B400070B5044600680169E26821F44051114310
:101B500001612169A0680843616908432168CA6876
:101B600041F20C639A430243CA6020684169A2694A
:101B700021F44071114341611E492068884202D11D
:101B8000FFF7DAF901E0FFF7C7F900EBC00101EB5D
:101B90000012606864218000B2FBF0F3B3FBF1F344
:101BA0006FF018067343B2FBF0F5B2FBF0F605EBED
:101BB0008305322303EB0515B5FBF1F5B6FBF1F612
:101BC00005F0F00505EB0615B2FBF0F6B2FBF0F000
:101BD000B0FBF1F06FF01802504306EB800003EB0E
:101BE0000010B0FBF1F0216800F00F00284488607D
:101BF00070BD00000038014038B58162044682851E
:101C0000002013466064222284F84220E56B1B4AC0
:101C1000AA62E56B1A4AEA62E56B1A4A2A63E26B2A
:101C200050630A462168E06B091DFEF783FE2068B9
:101C3000016840680090206948B120680C3050E885
:101C4000001F41F4807140E80012002AF5D120689D
:101C5000143050E8001F41F0010140E80012002A52
:101C6000F5D12068143050E8001F41F0400140E8F1
:101C70000012002AF5D1002038BD000071190008BB
:101C8000F7190008271900082DE9F8439846174668
:101C90000D460446089E24E0701C22D0FEF792FFF9
:101CA000A0EB0800B0421AD8CEB12068C16849073D
:101CB00017D5802D15D0402D13D00168C9430907D1
:101CC0000FD401680025406800902046FFF7A2FE6F
:101CD0000820606484F840500120BDE8F8830320A8
:101CE000FBE72068006835EA000004D00020B84215
:101CF000D2D00020F1E70120F9E700000E4982B0C0
:101D000008680268D243D20611D402684068009085
:101D1000C86B0068016821F0010101600748084AAA
:101D20000188128811440180064901200870024888
:101D300002B0FFF7DDBA00004801002002000020D9
:101D40000600002000000020FEE70907090E002819
:101D500004DB00F1E02080F80014704700F00F0071
:101D600000F1E02080F8141D70470000FEF738FFF6
:101D7000FFF794FDFFF738FDFFF718FDFFF76CFD47
:101D8000FFF7EEFC4FF4807632461C491C48FFF703
:101D900085FC1B4D2868C16841F01001C1606423B7
:101DA0000B2218A12846FFF789FC194CDFF8649034
:101DB00000274FF400584FF47A7A2078C8B1414692
:101DC0004846FEF7F1FEA08861885346401AE0803D
:101DD00032460A490A48FFF771FC27703246074924
:101DE0000748FFF75BFCE86B0068016841F0010100
:101DF00001601420FEF7D6FDDFE700001800002088
:101E00004801002053797374656D4C696E6B0A004C
:101E10000000002000100140010202030405060733
:101E200008090A0B0C0D0E0F101000000000000036
:101E30000000010203040607080900000000010277
:101E400003040000641E00080000002018000000C9
:101E5000280100087C1E000818000020600800000F
:101E60004401000800000000000000000100000024
:0C1E7000100000000000000000127A00CA
:04000005080000ED02
:00000001FF
